{
	"TOKEN721.sol": {
		"TOKEN721": {
			"abi": [
				{
					"anonymous": false,
					"inputs": [
						{
							"indexed": true,
							"internalType": "address",
							"name": "owner",
							"type": "address"
						},
						{
							"indexed": true,
							"internalType": "address",
							"name": "approved",
							"type": "address"
						},
						{
							"indexed": true,
							"internalType": "uint256",
							"name": "tokenId",
							"type": "uint256"
						}
					],
					"name": "Approval",
					"type": "event"
				},
				{
					"anonymous": false,
					"inputs": [
						{
							"indexed": true,
							"internalType": "address",
							"name": "owner",
							"type": "address"
						},
						{
							"indexed": true,
							"internalType": "address",
							"name": "operator",
							"type": "address"
						},
						{
							"indexed": false,
							"internalType": "bool",
							"name": "approved",
							"type": "bool"
						}
					],
					"name": "ApprovalForAll",
					"type": "event"
				},
				{
					"anonymous": false,
					"inputs": [
						{
							"indexed": true,
							"internalType": "address",
							"name": "from",
							"type": "address"
						},
						{
							"indexed": true,
							"internalType": "address",
							"name": "to",
							"type": "address"
						},
						{
							"indexed": true,
							"internalType": "uint256",
							"name": "tokenId",
							"type": "uint256"
						}
					],
					"name": "Transfer",
					"type": "event"
				},
				{
					"inputs": [
						{
							"internalType": "address",
							"name": "to",
							"type": "address"
						},
						{
							"internalType": "uint256",
							"name": "tokenId",
							"type": "uint256"
						},
						{
							"internalType": "bytes",
							"name": "_data",
							"type": "bytes"
						}
					],
					"name": "_safeMint",
					"outputs": [],
					"stateMutability": "nonpayable",
					"type": "function"
				},
				{
					"inputs": [
						{
							"internalType": "address",
							"name": "to",
							"type": "address"
						},
						{
							"internalType": "uint256",
							"name": "tokenId",
							"type": "uint256"
						}
					],
					"name": "_safeMint",
					"outputs": [],
					"stateMutability": "nonpayable",
					"type": "function"
				},
				{
					"inputs": [
						{
							"internalType": "address",
							"name": "to",
							"type": "address"
						},
						{
							"internalType": "uint256",
							"name": "tokenId",
							"type": "uint256"
						}
					],
					"name": "approve",
					"outputs": [],
					"stateMutability": "nonpayable",
					"type": "function"
				},
				{
					"inputs": [
						{
							"internalType": "address",
							"name": "owner",
							"type": "address"
						}
					],
					"name": "balanceOf",
					"outputs": [
						{
							"internalType": "uint256",
							"name": "",
							"type": "uint256"
						}
					],
					"stateMutability": "view",
					"type": "function"
				},
				{
					"inputs": [
						{
							"internalType": "uint256",
							"name": "tokenId",
							"type": "uint256"
						}
					],
					"name": "getApproved",
					"outputs": [
						{
							"internalType": "address",
							"name": "",
							"type": "address"
						}
					],
					"stateMutability": "view",
					"type": "function"
				},
				{
					"inputs": [
						{
							"internalType": "address",
							"name": "owner",
							"type": "address"
						},
						{
							"internalType": "address",
							"name": "operator",
							"type": "address"
						}
					],
					"name": "isApprovedForAll",
					"outputs": [
						{
							"internalType": "bool",
							"name": "",
							"type": "bool"
						}
					],
					"stateMutability": "view",
					"type": "function"
				},
				{
					"inputs": [
						{
							"internalType": "uint256",
							"name": "tokenId",
							"type": "uint256"
						}
					],
					"name": "ownerOf",
					"outputs": [
						{
							"internalType": "address",
							"name": "",
							"type": "address"
						}
					],
					"stateMutability": "view",
					"type": "function"
				},
				{
					"inputs": [
						{
							"internalType": "address",
							"name": "from",
							"type": "address"
						},
						{
							"internalType": "address",
							"name": "to",
							"type": "address"
						},
						{
							"internalType": "uint256",
							"name": "tokenId",
							"type": "uint256"
						}
					],
					"name": "safeTransferFrom",
					"outputs": [],
					"stateMutability": "nonpayable",
					"type": "function"
				},
				{
					"inputs": [
						{
							"internalType": "address",
							"name": "from",
							"type": "address"
						},
						{
							"internalType": "address",
							"name": "to",
							"type": "address"
						},
						{
							"internalType": "uint256",
							"name": "tokenId",
							"type": "uint256"
						},
						{
							"internalType": "bytes",
							"name": "_data",
							"type": "bytes"
						}
					],
					"name": "safeTransferFrom",
					"outputs": [],
					"stateMutability": "nonpayable",
					"type": "function"
				},
				{
					"inputs": [
						{
							"internalType": "address",
							"name": "operator",
							"type": "address"
						},
						{
							"internalType": "bool",
							"name": "approved",
							"type": "bool"
						}
					],
					"name": "setApprovalForAll",
					"outputs": [],
					"stateMutability": "nonpayable",
					"type": "function"
				},
				{
					"inputs": [
						{
							"internalType": "bytes4",
							"name": "interfaceID",
							"type": "bytes4"
						}
					],
					"name": "supportsInterface",
					"outputs": [
						{
							"internalType": "bool",
							"name": "",
							"type": "bool"
						}
					],
					"stateMutability": "view",
					"type": "function"
				},
				{
					"inputs": [
						{
							"internalType": "address",
							"name": "from",
							"type": "address"
						},
						{
							"internalType": "address",
							"name": "to",
							"type": "address"
						},
						{
							"internalType": "uint256",
							"name": "tokenId",
							"type": "uint256"
						}
					],
					"name": "transferFrom",
					"outputs": [],
					"stateMutability": "nonpayable",
					"type": "function"
				}
			],
			"devdoc": {
				"kind": "dev",
				"methods": {},
				"version": 1
			},
			"evm": {
				"assembly": "    /* \"TOKEN721.sol\":175:7485  contract TOKEN721 is ERC165 , IERC721{\r... */\n  mstore(0x40, 0x80)\n  callvalue\n  dup1\n  iszero\n  tag_1\n  jumpi\n  0x00\n  dup1\n  revert\ntag_1:\n  pop\n  dataSize(sub_0)\n  dup1\n  dataOffset(sub_0)\n  0x00\n  codecopy\n  0x00\n  return\nstop\n\nsub_0: assembly {\n        /* \"TOKEN721.sol\":175:7485  contract TOKEN721 is ERC165 , IERC721{\r... */\n      mstore(0x40, 0x80)\n      callvalue\n      dup1\n      iszero\n      tag_1\n      jumpi\n      0x00\n      dup1\n      revert\n    tag_1:\n      pop\n      jumpi(tag_2, lt(calldatasize, 0x04))\n      shr(0xe0, calldataload(0x00))\n      dup1\n      0x6a4f832b\n      gt\n      tag_15\n      jumpi\n      dup1\n      0x6a4f832b\n      eq\n      tag_9\n      jumpi\n      dup1\n      0x70a08231\n      eq\n      tag_10\n      jumpi\n      dup1\n      0xa22cb465\n      eq\n      tag_11\n      jumpi\n      dup1\n      0xb3e1c718\n      eq\n      tag_12\n      jumpi\n      dup1\n      0xb88d4fde\n      eq\n      tag_13\n      jumpi\n      dup1\n      0xe985e9c5\n      eq\n      tag_14\n      jumpi\n      jump(tag_2)\n    tag_15:\n      dup1\n      0x01ffc9a7\n      eq\n      tag_3\n      jumpi\n      dup1\n      0x081812fc\n      eq\n      tag_4\n      jumpi\n      dup1\n      0x095ea7b3\n      eq\n      tag_5\n      jumpi\n      dup1\n      0x23b872dd\n      eq\n      tag_6\n      jumpi\n      dup1\n      0x42842e0e\n      eq\n      tag_7\n      jumpi\n      dup1\n      0x6352211e\n      eq\n      tag_8\n      jumpi\n    tag_2:\n      0x00\n      dup1\n      revert\n        /* \"TOKEN721.sol\":822:1035  function supportsInterface(bytes4 interfaceID) public view virtual override(ERC165, IERC165) returns (bool){\r... */\n    tag_3:\n      tag_16\n      0x04\n      dup1\n      calldatasize\n      sub\n      dup2\n      add\n      swap1\n      tag_17\n      swap2\n      swap1\n      tag_18\n      jump\t// in\n    tag_17:\n      tag_19\n      jump\t// in\n    tag_16:\n      mload(0x40)\n      tag_20\n      swap2\n      swap1\n      tag_21\n      jump\t// in\n    tag_20:\n      mload(0x40)\n      dup1\n      swap2\n      sub\n      swap1\n      return\n        /* \"TOKEN721.sol\":2661:2934  function getApproved(uint256 tokenId) public view virtual override returns (address){\r... */\n    tag_4:\n      tag_22\n      0x04\n      dup1\n      calldatasize\n      sub\n      dup2\n      add\n      swap1\n      tag_23\n      swap2\n      swap1\n      tag_24\n      jump\t// in\n    tag_23:\n      tag_25\n      jump\t// in\n    tag_22:\n      mload(0x40)\n      tag_26\n      swap2\n      swap1\n      tag_27\n      jump\t// in\n    tag_26:\n      mload(0x40)\n      dup1\n      swap2\n      sub\n      swap1\n      return\n        /* \"TOKEN721.sol\":1643:2039  function approve(address to, uint256 tokenId) public virtual override {\r... */\n    tag_5:\n      tag_28\n      0x04\n      dup1\n      calldatasize\n      sub\n      dup2\n      add\n      swap1\n      tag_29\n      swap2\n      swap1\n      tag_30\n      jump\t// in\n    tag_29:\n      tag_31\n      jump\t// in\n    tag_28:\n      stop\n        /* \"TOKEN721.sol\":4012:4213  function transferFrom(address from , address to, uint256 tokenId) public virtual override {\r... */\n    tag_6:\n      tag_32\n      0x04\n      dup1\n      calldatasize\n      sub\n      dup2\n      add\n      swap1\n      tag_33\n      swap2\n      swap1\n      tag_34\n      jump\t// in\n    tag_33:\n      tag_35\n      jump\t// in\n    tag_32:\n      stop\n        /* \"TOKEN721.sol\":3333:3483  function safeTransferFrom(address from, address to, uint256 tokenId) public virtual override{\r... */\n    tag_7:\n      tag_36\n      0x04\n      dup1\n      calldatasize\n      sub\n      dup2\n      add\n      swap1\n      tag_37\n      swap2\n      swap1\n      tag_34\n      jump\t// in\n    tag_37:\n      tag_38\n      jump\t// in\n    tag_36:\n      stop\n        /* \"TOKEN721.sol\":1340:1562  function ownerOf(uint256 tokenId) public view override returns (address){\r... */\n    tag_8:\n      tag_39\n      0x04\n      dup1\n      calldatasize\n      sub\n      dup2\n      add\n      swap1\n      tag_40\n      swap2\n      swap1\n      tag_24\n      jump\t// in\n    tag_40:\n      tag_41\n      jump\t// in\n    tag_39:\n      mload(0x40)\n      tag_42\n      swap2\n      swap1\n      tag_27\n      jump\t// in\n    tag_42:\n      mload(0x40)\n      dup1\n      swap2\n      sub\n      swap1\n      return\n        /* \"TOKEN721.sol\":4679:5156  function _safeMint(address to, uint256 tokenId, bytes memory _data)public{\r... */\n    tag_9:\n      tag_43\n      0x04\n      dup1\n      calldatasize\n      sub\n      dup2\n      add\n      swap1\n      tag_44\n      swap2\n      swap1\n      tag_45\n      jump\t// in\n    tag_44:\n      tag_46\n      jump\t// in\n    tag_43:\n      stop\n        /* \"TOKEN721.sol\":1094:1286  function balanceOf(address owner) public view virtual override returns (uint256) {\r... */\n    tag_10:\n      tag_47\n      0x04\n      dup1\n      calldatasize\n      sub\n      dup2\n      add\n      swap1\n      tag_48\n      swap2\n      swap1\n      tag_49\n      jump\t// in\n    tag_48:\n      tag_50\n      jump\t// in\n    tag_47:\n      mload(0x40)\n      tag_51\n      swap2\n      swap1\n      tag_52\n      jump\t// in\n    tag_51:\n      mload(0x40)\n      dup1\n      swap2\n      sub\n      swap1\n      return\n        /* \"TOKEN721.sol\":2222:2611  function setApprovalForAll(address operator, bool approved) public virtual override {\r... */\n    tag_11:\n      tag_53\n      0x04\n      dup1\n      calldatasize\n      sub\n      dup2\n      add\n      swap1\n      tag_54\n      swap2\n      swap1\n      tag_55\n      jump\t// in\n    tag_54:\n      tag_56\n      jump\t// in\n    tag_53:\n      stop\n        /* \"TOKEN721.sol\":4572:4671  function _safeMint(address to, uint256 tokenId) public{\r... */\n    tag_12:\n      tag_57\n      0x04\n      dup1\n      calldatasize\n      sub\n      dup2\n      add\n      swap1\n      tag_58\n      swap2\n      swap1\n      tag_30\n      jump\t// in\n    tag_58:\n      tag_59\n      jump\t// in\n    tag_57:\n      stop\n        /* \"TOKEN721.sol\":3491:3727  function safeTransferFrom(address from, address to, uint256 tokenId, bytes memory _data) public virtual override{\r... */\n    tag_13:\n      tag_60\n      0x04\n      dup1\n      calldatasize\n      sub\n      dup2\n      add\n      swap1\n      tag_61\n      swap2\n      swap1\n      tag_62\n      jump\t// in\n    tag_61:\n      tag_63\n      jump\t// in\n    tag_60:\n      stop\n        /* \"TOKEN721.sol\":3051:3323  function isApprovedForAll(address owner, address operator) public view virtual override returns (bool) {\r... */\n    tag_14:\n      tag_64\n      0x04\n      dup1\n      calldatasize\n      sub\n      dup2\n      add\n      swap1\n      tag_65\n      swap2\n      swap1\n      tag_66\n      jump\t// in\n    tag_65:\n      tag_67\n      jump\t// in\n    tag_64:\n      mload(0x40)\n      tag_68\n      swap2\n      swap1\n      tag_21\n      jump\t// in\n    tag_68:\n      mload(0x40)\n      dup1\n      swap2\n      sub\n      swap1\n      return\n        /* \"TOKEN721.sol\":822:1035  function supportsInterface(bytes4 interfaceID) public view virtual override(ERC165, IERC165) returns (bool){\r... */\n    tag_19:\n        /* \"TOKEN721.sol\":924:928  bool */\n      0x00\n        /* \"TOKEN721.sol\":962:987  type(IERC721).interfaceId */\n      0x80ac58cd00000000000000000000000000000000000000000000000000000000\n        /* \"TOKEN721.sol\":947:987  interfaceID == type(IERC721).interfaceId */\n      not(0xffffffffffffffffffffffffffffffffffffffffffffffffffffffff)\n      and\n        /* \"TOKEN721.sol\":947:958  interfaceID */\n      dup3\n        /* \"TOKEN721.sol\":947:987  interfaceID == type(IERC721).interfaceId */\n      not(0xffffffffffffffffffffffffffffffffffffffffffffffffffffffff)\n      and\n      eq\n        /* \"TOKEN721.sol\":947:1027  interfaceID == type(IERC721).interfaceId || super.supportsInterface(interfaceID) */\n      dup1\n      tag_70\n      jumpi\n      pop\n        /* \"TOKEN721.sol\":991:1027  super.supportsInterface(interfaceID) */\n      tag_71\n        /* \"TOKEN721.sol\":1015:1026  interfaceID */\n      dup3\n        /* \"TOKEN721.sol\":991:1014  super.supportsInterface */\n      tag_72\n        /* \"TOKEN721.sol\":991:1027  super.supportsInterface(interfaceID) */\n      jump\t// in\n    tag_71:\n        /* \"TOKEN721.sol\":947:1027  interfaceID == type(IERC721).interfaceId || super.supportsInterface(interfaceID) */\n    tag_70:\n        /* \"TOKEN721.sol\":940:1027  return interfaceID == type(IERC721).interfaceId || super.supportsInterface(interfaceID) */\n      swap1\n      pop\n        /* \"TOKEN721.sol\":822:1035  function supportsInterface(bytes4 interfaceID) public view virtual override(ERC165, IERC165) returns (bool){\r... */\n      swap2\n      swap1\n      pop\n      jump\t// out\n        /* \"TOKEN721.sol\":2661:2934  function getApproved(uint256 tokenId) public view virtual override returns (address){\r... */\n    tag_25:\n        /* \"TOKEN721.sol\":2737:2744  address */\n      0x00\n        /* \"TOKEN721.sol\":2764:2780  _exists(tokenId) */\n      tag_74\n        /* \"TOKEN721.sol\":2772:2779  tokenId */\n      dup3\n        /* \"TOKEN721.sol\":2764:2771  _exists */\n      tag_75\n        /* \"TOKEN721.sol\":2764:2780  _exists(tokenId) */\n      jump\t// in\n    tag_74:\n        /* \"TOKEN721.sol\":2756:2817  require(_exists(tokenId), \"ERC721 ERROR: El token no existe\") */\n      tag_76\n      jumpi\n      mload(0x40)\n      0x08c379a000000000000000000000000000000000000000000000000000000000\n      dup2\n      mstore\n      0x04\n      add\n      tag_77\n      swap1\n      tag_78\n      jump\t// in\n    tag_77:\n      mload(0x40)\n      dup1\n      swap2\n      sub\n      swap1\n      revert\n    tag_76:\n        /* \"TOKEN721.sol\":2837:2852  _tokenApprovals */\n      0x02\n        /* \"TOKEN721.sol\":2837:2861  _tokenApprovals[tokenId] */\n      0x00\n        /* \"TOKEN721.sol\":2853:2860  tokenId */\n      dup4\n        /* \"TOKEN721.sol\":2837:2861  _tokenApprovals[tokenId] */\n      dup2\n      mstore\n      0x20\n      add\n      swap1\n      dup2\n      mstore\n      0x20\n      add\n      0x00\n      keccak256\n      0x00\n      swap1\n      sload\n      swap1\n      0x0100\n      exp\n      swap1\n      div\n      0xffffffffffffffffffffffffffffffffffffffff\n      and\n        /* \"TOKEN721.sol\":2830:2861  return _tokenApprovals[tokenId] */\n      swap1\n      pop\n        /* \"TOKEN721.sol\":2661:2934  function getApproved(uint256 tokenId) public view virtual override returns (address){\r... */\n      swap2\n      swap1\n      pop\n      jump\t// out\n        /* \"TOKEN721.sol\":1643:2039  function approve(address to, uint256 tokenId) public virtual override {\r... */\n    tag_31:\n        /* \"TOKEN721.sol\":1724:1737  address owner */\n      0x00\n        /* \"TOKEN721.sol\":1740:1756  ownerOf(tokenId) */\n      tag_80\n        /* \"TOKEN721.sol\":1748:1755  tokenId */\n      dup3\n        /* \"TOKEN721.sol\":1740:1747  ownerOf */\n      tag_41\n        /* \"TOKEN721.sol\":1740:1756  ownerOf(tokenId) */\n      jump\t// in\n    tag_80:\n        /* \"TOKEN721.sol\":1724:1756  address owner = ownerOf(tokenId) */\n      swap1\n      pop\n        /* \"TOKEN721.sol\":1781:1786  owner */\n      dup1\n        /* \"TOKEN721.sol\":1775:1786  to != owner */\n      0xffffffffffffffffffffffffffffffffffffffff\n      and\n        /* \"TOKEN721.sol\":1775:1777  to */\n      dup4\n        /* \"TOKEN721.sol\":1775:1786  to != owner */\n      0xffffffffffffffffffffffffffffffffffffffff\n      and\n      eq\n      iszero\n        /* \"TOKEN721.sol\":1767:1859  require(to != owner, \"ERC721 ERROR: La address de destino debe ser diferente a la de envio\") */\n      tag_81\n      jumpi\n      mload(0x40)\n      0x08c379a000000000000000000000000000000000000000000000000000000000\n      dup2\n      mstore\n      0x04\n      add\n      tag_82\n      swap1\n      tag_83\n      jump\t// in\n    tag_82:\n      mload(0x40)\n      dup1\n      swap2\n      sub\n      swap1\n      revert\n    tag_81:\n        /* \"TOKEN721.sol\":1892:1897  owner */\n      dup1\n        /* \"TOKEN721.sol\":1878:1897  msg.sender == owner */\n      0xffffffffffffffffffffffffffffffffffffffff\n      and\n        /* \"TOKEN721.sol\":1878:1888  msg.sender */\n      caller\n        /* \"TOKEN721.sol\":1878:1897  msg.sender == owner */\n      0xffffffffffffffffffffffffffffffffffffffff\n      and\n      eq\n        /* \"TOKEN721.sol\":1878:1936  msg.sender == owner || isApprovedForAll(owner, msg.sender) */\n      dup1\n      tag_84\n      jumpi\n      pop\n        /* \"TOKEN721.sol\":1901:1936  isApprovedForAll(owner, msg.sender) */\n      tag_85\n        /* \"TOKEN721.sol\":1918:1923  owner */\n      dup2\n        /* \"TOKEN721.sol\":1925:1935  msg.sender */\n      caller\n        /* \"TOKEN721.sol\":1901:1917  isApprovedForAll */\n      tag_67\n        /* \"TOKEN721.sol\":1901:1936  isApprovedForAll(owner, msg.sender) */\n      jump\t// in\n    tag_85:\n        /* \"TOKEN721.sol\":1878:1936  msg.sender == owner || isApprovedForAll(owner, msg.sender) */\n    tag_84:\n        /* \"TOKEN721.sol\":1870:1999  require(msg.sender == owner || isApprovedForAll(owner, msg.sender), \"ERC721 ERROR: No tienes permisos para gestionar este token\") */\n      tag_86\n      jumpi\n      mload(0x40)\n      0x08c379a000000000000000000000000000000000000000000000000000000000\n      dup2\n      mstore\n      0x04\n      add\n      tag_87\n      swap1\n      tag_88\n      jump\t// in\n    tag_87:\n      mload(0x40)\n      dup1\n      swap2\n      sub\n      swap1\n      revert\n    tag_86:\n        /* \"TOKEN721.sol\":2010:2031  _approve(to, tokenId) */\n      tag_89\n        /* \"TOKEN721.sol\":2019:2021  to */\n      dup4\n        /* \"TOKEN721.sol\":2023:2030  tokenId */\n      dup4\n        /* \"TOKEN721.sol\":2010:2018  _approve */\n      tag_90\n        /* \"TOKEN721.sol\":2010:2031  _approve(to, tokenId) */\n      jump\t// in\n    tag_89:\n        /* \"TOKEN721.sol\":1713:2039  {\r... */\n      pop\n        /* \"TOKEN721.sol\":1643:2039  function approve(address to, uint256 tokenId) public virtual override {\r... */\n      pop\n      pop\n      jump\t// out\n        /* \"TOKEN721.sol\":4012:4213  function transferFrom(address from , address to, uint256 tokenId) public virtual override {\r... */\n    tag_35:\n        /* \"TOKEN721.sol\":4121:4160  _isApprovedOrOwner(msg.sender, tokenId) */\n      tag_92\n        /* \"TOKEN721.sol\":4140:4150  msg.sender */\n      caller\n        /* \"TOKEN721.sol\":4152:4159  tokenId */\n      dup3\n        /* \"TOKEN721.sol\":4121:4139  _isApprovedOrOwner */\n      tag_93\n        /* \"TOKEN721.sol\":4121:4160  _isApprovedOrOwner(msg.sender, tokenId) */\n      jump\t// in\n    tag_92:\n        /* \"TOKEN721.sol\":4113:4165  require(_isApprovedOrOwner(msg.sender, tokenId), \"\") */\n      tag_94\n      jumpi\n      mload(0x40)\n      0x08c379a000000000000000000000000000000000000000000000000000000000\n      dup2\n      mstore\n      0x04\n      add\n      tag_95\n      swap1\n      tag_96\n      jump\t// in\n    tag_95:\n      mload(0x40)\n      dup1\n      swap2\n      sub\n      swap1\n      revert\n    tag_94:\n        /* \"TOKEN721.sol\":4176:4205  _transfer(from, to , tokenId) */\n      tag_97\n        /* \"TOKEN721.sol\":4186:4190  from */\n      dup4\n        /* \"TOKEN721.sol\":4192:4194  to */\n      dup4\n        /* \"TOKEN721.sol\":4197:4204  tokenId */\n      dup4\n        /* \"TOKEN721.sol\":4176:4185  _transfer */\n      tag_98\n        /* \"TOKEN721.sol\":4176:4205  _transfer(from, to , tokenId) */\n      jump\t// in\n    tag_97:\n        /* \"TOKEN721.sol\":4012:4213  function transferFrom(address from , address to, uint256 tokenId) public virtual override {\r... */\n      pop\n      pop\n      pop\n      jump\t// out\n        /* \"TOKEN721.sol\":3333:3483  function safeTransferFrom(address from, address to, uint256 tokenId) public virtual override{\r... */\n    tag_38:\n        /* \"TOKEN721.sol\":3436:3475  safeTransferFrom(from, to, tokenId, \"\") */\n      tag_100\n        /* \"TOKEN721.sol\":3453:3457  from */\n      dup4\n        /* \"TOKEN721.sol\":3459:3461  to */\n      dup4\n        /* \"TOKEN721.sol\":3463:3470  tokenId */\n      dup4\n        /* \"TOKEN721.sol\":3436:3475  safeTransferFrom(from, to, tokenId, \"\") */\n      mload(0x40)\n      dup1\n      0x20\n      add\n      0x40\n      mstore\n      dup1\n      0x00\n      dup2\n      mstore\n      pop\n        /* \"TOKEN721.sol\":3436:3452  safeTransferFrom */\n      tag_63\n        /* \"TOKEN721.sol\":3436:3475  safeTransferFrom(from, to, tokenId, \"\") */\n      jump\t// in\n    tag_100:\n        /* \"TOKEN721.sol\":3333:3483  function safeTransferFrom(address from, address to, uint256 tokenId) public virtual override{\r... */\n      pop\n      pop\n      pop\n      jump\t// out\n        /* \"TOKEN721.sol\":1340:1562  function ownerOf(uint256 tokenId) public view override returns (address){\r... */\n    tag_41:\n        /* \"TOKEN721.sol\":1404:1411  address */\n      0x00\n        /* \"TOKEN721.sol\":1423:1436  address owner */\n      dup1\n        /* \"TOKEN721.sol\":1439:1446  _owners */\n      0x00\n        /* \"TOKEN721.sol\":1439:1455  _owners[tokenId] */\n      dup1\n        /* \"TOKEN721.sol\":1447:1454  tokenId */\n      dup5\n        /* \"TOKEN721.sol\":1439:1455  _owners[tokenId] */\n      dup2\n      mstore\n      0x20\n      add\n      swap1\n      dup2\n      mstore\n      0x20\n      add\n      0x00\n      keccak256\n      0x00\n      swap1\n      sload\n      swap1\n      0x0100\n      exp\n      swap1\n      div\n      0xffffffffffffffffffffffffffffffffffffffff\n      and\n        /* \"TOKEN721.sol\":1423:1455  address owner = _owners[tokenId] */\n      swap1\n      pop\n        /* \"TOKEN721.sol\":1491:1492  0 */\n      0x00\n        /* \"TOKEN721.sol\":1474:1493  owner != address(0) */\n      0xffffffffffffffffffffffffffffffffffffffff\n      and\n        /* \"TOKEN721.sol\":1474:1479  owner */\n      dup2\n        /* \"TOKEN721.sol\":1474:1493  owner != address(0) */\n      0xffffffffffffffffffffffffffffffffffffffff\n      and\n      eq\n      iszero\n        /* \"TOKEN721.sol\":1466:1531  require(owner != address(0), \"ERC721 ERROR: No existe el token;\") */\n      tag_102\n      jumpi\n      mload(0x40)\n      0x08c379a000000000000000000000000000000000000000000000000000000000\n      dup2\n      mstore\n      0x04\n      add\n      tag_103\n      swap1\n      tag_104\n      jump\t// in\n    tag_103:\n      mload(0x40)\n      dup1\n      swap2\n      sub\n      swap1\n      revert\n    tag_102:\n        /* \"TOKEN721.sol\":1549:1554  owner */\n      dup1\n        /* \"TOKEN721.sol\":1542:1554  return owner */\n      swap2\n      pop\n      pop\n        /* \"TOKEN721.sol\":1340:1562  function ownerOf(uint256 tokenId) public view override returns (address){\r... */\n      swap2\n      swap1\n      pop\n      jump\t// out\n        /* \"TOKEN721.sol\":4679:5156  function _safeMint(address to, uint256 tokenId, bytes memory _data)public{\r... */\n    tag_46:\n        /* \"TOKEN721.sol\":4763:4781  _mint(to, tokenId) */\n      tag_106\n        /* \"TOKEN721.sol\":4769:4771  to */\n      dup4\n        /* \"TOKEN721.sol\":4773:4780  tokenId */\n      dup4\n        /* \"TOKEN721.sol\":4763:4768  _mint */\n      tag_107\n        /* \"TOKEN721.sol\":4763:4781  _mint(to, tokenId) */\n      jump\t// in\n    tag_106:\n        /* \"TOKEN721.sol\":5028:5081  _chekOnERC721Received(address(0), to, tokenId, _data) */\n      tag_108\n        /* \"TOKEN721.sol\":5058:5059  0 */\n      0x00\n        /* \"TOKEN721.sol\":5062:5064  to */\n      dup5\n        /* \"TOKEN721.sol\":5066:5073  tokenId */\n      dup5\n        /* \"TOKEN721.sol\":5075:5080  _data */\n      dup5\n        /* \"TOKEN721.sol\":5028:5049  _chekOnERC721Received */\n      tag_109\n        /* \"TOKEN721.sol\":5028:5081  _chekOnERC721Received(address(0), to, tokenId, _data) */\n      jump\t// in\n    tag_108:\n        /* \"TOKEN721.sol\":5020:5148  require(_chekOnERC721Received(address(0), to, tokenId, _data), \"ERC721 ERROR: Transferencia no implementada en IERC721Receiver\") */\n      tag_110\n      jumpi\n      mload(0x40)\n      0x08c379a000000000000000000000000000000000000000000000000000000000\n      dup2\n      mstore\n      0x04\n      add\n      tag_111\n      swap1\n      tag_112\n      jump\t// in\n    tag_111:\n      mload(0x40)\n      dup1\n      swap2\n      sub\n      swap1\n      revert\n    tag_110:\n        /* \"TOKEN721.sol\":4679:5156  function _safeMint(address to, uint256 tokenId, bytes memory _data)public{\r... */\n      pop\n      pop\n      pop\n      jump\t// out\n        /* \"TOKEN721.sol\":1094:1286  function balanceOf(address owner) public view virtual override returns (uint256) {\r... */\n    tag_50:\n        /* \"TOKEN721.sol\":1166:1173  uint256 */\n      0x00\n        /* \"TOKEN721.sol\":1211:1212  0 */\n      dup1\n        /* \"TOKEN721.sol\":1194:1213  owner != address(0) */\n      0xffffffffffffffffffffffffffffffffffffffff\n      and\n        /* \"TOKEN721.sol\":1194:1199  owner */\n      dup3\n        /* \"TOKEN721.sol\":1194:1213  owner != address(0) */\n      0xffffffffffffffffffffffffffffffffffffffff\n      and\n      eq\n      iszero\n        /* \"TOKEN721.sol\":1186:1245  require(owner != address(0), \"ERC721 ERROR: Address Vacia\") */\n      tag_114\n      jumpi\n      mload(0x40)\n      0x08c379a000000000000000000000000000000000000000000000000000000000\n      dup2\n      mstore\n      0x04\n      add\n      tag_115\n      swap1\n      tag_116\n      jump\t// in\n    tag_115:\n      mload(0x40)\n      dup1\n      swap2\n      sub\n      swap1\n      revert\n    tag_114:\n        /* \"TOKEN721.sol\":1263:1271  _balance */\n      0x01\n        /* \"TOKEN721.sol\":1263:1278  _balance[owner] */\n      0x00\n        /* \"TOKEN721.sol\":1272:1277  owner */\n      dup4\n        /* \"TOKEN721.sol\":1263:1278  _balance[owner] */\n      0xffffffffffffffffffffffffffffffffffffffff\n      and\n      0xffffffffffffffffffffffffffffffffffffffff\n      and\n      dup2\n      mstore\n      0x20\n      add\n      swap1\n      dup2\n      mstore\n      0x20\n      add\n      0x00\n      keccak256\n      sload\n        /* \"TOKEN721.sol\":1256:1278  return _balance[owner] */\n      swap1\n      pop\n        /* \"TOKEN721.sol\":1094:1286  function balanceOf(address owner) public view virtual override returns (uint256) {\r... */\n      swap2\n      swap1\n      pop\n      jump\t// out\n        /* \"TOKEN721.sol\":2222:2611  function setApprovalForAll(address operator, bool approved) public virtual override {\r... */\n    tag_56:\n        /* \"TOKEN721.sol\":2339:2347  operator */\n      dup2\n        /* \"TOKEN721.sol\":2325:2347  msg.sender != operator */\n      0xffffffffffffffffffffffffffffffffffffffff\n      and\n        /* \"TOKEN721.sol\":2325:2335  msg.sender */\n      caller\n        /* \"TOKEN721.sol\":2325:2347  msg.sender != operator */\n      0xffffffffffffffffffffffffffffffffffffffff\n      and\n      eq\n      iszero\n        /* \"TOKEN721.sol\":2317:2402  require(msg.sender != operator, \"ERC721 ERROR: No te puedes dar permisos a ti mismo\") */\n      tag_118\n      jumpi\n      mload(0x40)\n      0x08c379a000000000000000000000000000000000000000000000000000000000\n      dup2\n      mstore\n      0x04\n      add\n      tag_119\n      swap1\n      tag_120\n      jump\t// in\n    tag_119:\n      mload(0x40)\n      dup1\n      swap2\n      sub\n      swap1\n      revert\n    tag_118:\n        /* \"TOKEN721.sol\":2458:2466  approved */\n      dup1\n        /* \"TOKEN721.sol\":2415:2433  _operatorApprovals */\n      0x03\n        /* \"TOKEN721.sol\":2415:2445  _operatorApprovals[msg.sender] */\n      0x00\n        /* \"TOKEN721.sol\":2434:2444  msg.sender */\n      caller\n        /* \"TOKEN721.sol\":2415:2445  _operatorApprovals[msg.sender] */\n      0xffffffffffffffffffffffffffffffffffffffff\n      and\n      0xffffffffffffffffffffffffffffffffffffffff\n      and\n      dup2\n      mstore\n      0x20\n      add\n      swap1\n      dup2\n      mstore\n      0x20\n      add\n      0x00\n      keccak256\n        /* \"TOKEN721.sol\":2415:2455  _operatorApprovals[msg.sender][operator] */\n      0x00\n        /* \"TOKEN721.sol\":2446:2454  operator */\n      dup5\n        /* \"TOKEN721.sol\":2415:2455  _operatorApprovals[msg.sender][operator] */\n      0xffffffffffffffffffffffffffffffffffffffff\n      and\n      0xffffffffffffffffffffffffffffffffffffffff\n      and\n      dup2\n      mstore\n      0x20\n      add\n      swap1\n      dup2\n      mstore\n      0x20\n      add\n      0x00\n      keccak256\n      0x00\n        /* \"TOKEN721.sol\":2415:2466  _operatorApprovals[msg.sender][operator] = approved */\n      0x0100\n      exp\n      dup2\n      sload\n      dup2\n      0xff\n      mul\n      not\n      and\n      swap1\n      dup4\n      iszero\n      iszero\n      mul\n      or\n      swap1\n      sstore\n      pop\n        /* \"TOKEN721.sol\":2565:2573  operator */\n      dup2\n        /* \"TOKEN721.sol\":2538:2584  ApprovalForAll(msg.sender, operator, approved) */\n      0xffffffffffffffffffffffffffffffffffffffff\n      and\n        /* \"TOKEN721.sol\":2553:2563  msg.sender */\n      caller\n        /* \"TOKEN721.sol\":2538:2584  ApprovalForAll(msg.sender, operator, approved) */\n      0xffffffffffffffffffffffffffffffffffffffff\n      and\n      0x17307eab39ab6107e8899845ad3d59bd9653f200f220920489ca2b5937696c31\n        /* \"TOKEN721.sol\":2575:2583  approved */\n      dup4\n        /* \"TOKEN721.sol\":2538:2584  ApprovalForAll(msg.sender, operator, approved) */\n      mload(0x40)\n      tag_121\n      swap2\n      swap1\n      tag_21\n      jump\t// in\n    tag_121:\n      mload(0x40)\n      dup1\n      swap2\n      sub\n      swap1\n      log3\n        /* \"TOKEN721.sol\":2222:2611  function setApprovalForAll(address operator, bool approved) public virtual override {\r... */\n      pop\n      pop\n      jump\t// out\n        /* \"TOKEN721.sol\":4572:4671  function _safeMint(address to, uint256 tokenId) public{\r... */\n    tag_59:\n        /* \"TOKEN721.sol\":4637:4663  _safeMint(to, tokenId, \"\") */\n      tag_123\n        /* \"TOKEN721.sol\":4647:4649  to */\n      dup3\n        /* \"TOKEN721.sol\":4651:4658  tokenId */\n      dup3\n        /* \"TOKEN721.sol\":4637:4663  _safeMint(to, tokenId, \"\") */\n      mload(0x40)\n      dup1\n      0x20\n      add\n      0x40\n      mstore\n      dup1\n      0x00\n      dup2\n      mstore\n      pop\n        /* \"TOKEN721.sol\":4637:4646  _safeMint */\n      tag_46\n        /* \"TOKEN721.sol\":4637:4663  _safeMint(to, tokenId, \"\") */\n      jump\t// in\n    tag_123:\n        /* \"TOKEN721.sol\":4572:4671  function _safeMint(address to, uint256 tokenId) public{\r... */\n      pop\n      pop\n      jump\t// out\n        /* \"TOKEN721.sol\":3491:3727  function safeTransferFrom(address from, address to, uint256 tokenId, bytes memory _data) public virtual override{\r... */\n    tag_63:\n        /* \"TOKEN721.sol\":3622:3661  _isApprovedOrOwner(msg.sender, tokenId) */\n      tag_125\n        /* \"TOKEN721.sol\":3641:3651  msg.sender */\n      caller\n        /* \"TOKEN721.sol\":3653:3660  tokenId */\n      dup4\n        /* \"TOKEN721.sol\":3622:3640  _isApprovedOrOwner */\n      tag_93\n        /* \"TOKEN721.sol\":3622:3661  _isApprovedOrOwner(msg.sender, tokenId) */\n      jump\t// in\n    tag_125:\n        /* \"TOKEN721.sol\":3614:3666  require(_isApprovedOrOwner(msg.sender, tokenId), \"\") */\n      tag_126\n      jumpi\n      mload(0x40)\n      0x08c379a000000000000000000000000000000000000000000000000000000000\n      dup2\n      mstore\n      0x04\n      add\n      tag_127\n      swap1\n      tag_96\n      jump\t// in\n    tag_127:\n      mload(0x40)\n      dup1\n      swap2\n      sub\n      swap1\n      revert\n    tag_126:\n        /* \"TOKEN721.sol\":3679:3719  _safeTransfer(from, to , tokenId, _data) */\n      tag_128\n        /* \"TOKEN721.sol\":3693:3697  from */\n      dup5\n        /* \"TOKEN721.sol\":3699:3701  to */\n      dup5\n        /* \"TOKEN721.sol\":3704:3711  tokenId */\n      dup5\n        /* \"TOKEN721.sol\":3713:3718  _data */\n      dup5\n        /* \"TOKEN721.sol\":3679:3692  _safeTransfer */\n      tag_129\n        /* \"TOKEN721.sol\":3679:3719  _safeTransfer(from, to , tokenId, _data) */\n      jump\t// in\n    tag_128:\n        /* \"TOKEN721.sol\":3491:3727  function safeTransferFrom(address from, address to, uint256 tokenId, bytes memory _data) public virtual override{\r... */\n      pop\n      pop\n      pop\n      pop\n      jump\t// out\n        /* \"TOKEN721.sol\":3051:3323  function isApprovedForAll(address owner, address operator) public view virtual override returns (bool) {\r... */\n    tag_67:\n        /* \"TOKEN721.sol\":3148:3152  bool */\n      0x00\n        /* \"TOKEN721.sol\":3172:3190  _operatorApprovals */\n      0x03\n        /* \"TOKEN721.sol\":3172:3197  _operatorApprovals[owner] */\n      0x00\n        /* \"TOKEN721.sol\":3191:3196  owner */\n      dup5\n        /* \"TOKEN721.sol\":3172:3197  _operatorApprovals[owner] */\n      0xffffffffffffffffffffffffffffffffffffffff\n      and\n      0xffffffffffffffffffffffffffffffffffffffff\n      and\n      dup2\n      mstore\n      0x20\n      add\n      swap1\n      dup2\n      mstore\n      0x20\n      add\n      0x00\n      keccak256\n        /* \"TOKEN721.sol\":3172:3207  _operatorApprovals[owner][operator] */\n      0x00\n        /* \"TOKEN721.sol\":3198:3206  operator */\n      dup4\n        /* \"TOKEN721.sol\":3172:3207  _operatorApprovals[owner][operator] */\n      0xffffffffffffffffffffffffffffffffffffffff\n      and\n      0xffffffffffffffffffffffffffffffffffffffff\n      and\n      dup2\n      mstore\n      0x20\n      add\n      swap1\n      dup2\n      mstore\n      0x20\n      add\n      0x00\n      keccak256\n      0x00\n      swap1\n      sload\n      swap1\n      0x0100\n      exp\n      swap1\n      div\n      0xff\n      and\n        /* \"TOKEN721.sol\":3165:3207  return _operatorApprovals[owner][operator] */\n      swap1\n      pop\n        /* \"TOKEN721.sol\":3051:3323  function isApprovedForAll(address owner, address operator) public view virtual override returns (bool) {\r... */\n      swap3\n      swap2\n      pop\n      pop\n      jump\t// out\n        /* \"CONTRACTS/ERC165.sol\":140:295  function supportsInterface(bytes4 interfaceId) public view virtual override returns(bool){\r... */\n    tag_72:\n        /* \"CONTRACTS/ERC165.sol\":224:228  bool */\n      0x00\n        /* \"CONTRACTS/ERC165.sol\":262:287  type(IERC165).interfaceId */\n      0x01ffc9a700000000000000000000000000000000000000000000000000000000\n        /* \"CONTRACTS/ERC165.sol\":247:287  interfaceId == type(IERC165).interfaceId */\n      not(0xffffffffffffffffffffffffffffffffffffffffffffffffffffffff)\n      and\n        /* \"CONTRACTS/ERC165.sol\":247:258  interfaceId */\n      dup3\n        /* \"CONTRACTS/ERC165.sol\":247:287  interfaceId == type(IERC165).interfaceId */\n      not(0xffffffffffffffffffffffffffffffffffffffffffffffffffffffff)\n      and\n      eq\n        /* \"CONTRACTS/ERC165.sol\":240:287  return interfaceId == type(IERC165).interfaceId */\n      swap1\n      pop\n        /* \"CONTRACTS/ERC165.sol\":140:295  function supportsInterface(bytes4 interfaceId) public view virtual override returns(bool){\r... */\n      swap2\n      swap1\n      pop\n      jump\t// out\n        /* \"TOKEN721.sol\":6855:7049  function _exists(uint256 tokenId) internal view virtual returns (bool) {\r... */\n    tag_75:\n        /* \"TOKEN721.sol\":6920:6924  bool */\n      0x00\n        /* \"TOKEN721.sol\":6971:6972  0 */\n      dup1\n        /* \"TOKEN721.sol\":6944:6973  _owners[tokenId]!= address(0) */\n      0xffffffffffffffffffffffffffffffffffffffff\n      and\n        /* \"TOKEN721.sol\":6944:6951  _owners */\n      0x00\n        /* \"TOKEN721.sol\":6944:6960  _owners[tokenId] */\n      dup1\n        /* \"TOKEN721.sol\":6952:6959  tokenId */\n      dup5\n        /* \"TOKEN721.sol\":6944:6960  _owners[tokenId] */\n      dup2\n      mstore\n      0x20\n      add\n      swap1\n      dup2\n      mstore\n      0x20\n      add\n      0x00\n      keccak256\n      0x00\n      swap1\n      sload\n      swap1\n      0x0100\n      exp\n      swap1\n      div\n      0xffffffffffffffffffffffffffffffffffffffff\n      and\n        /* \"TOKEN721.sol\":6944:6973  _owners[tokenId]!= address(0) */\n      0xffffffffffffffffffffffffffffffffffffffff\n      and\n      eq\n      iszero\n        /* \"TOKEN721.sol\":6937:6973  return _owners[tokenId]!= address(0) */\n      swap1\n      pop\n        /* \"TOKEN721.sol\":6855:7049  function _exists(uint256 tokenId) internal view virtual returns (bool) {\r... */\n      swap2\n      swap1\n      pop\n      jump\t// out\n        /* \"TOKEN721.sol\":2047:2214  function _approve(address to, uint256 tokenId) internal virtual {\r... */\n    tag_90:\n        /* \"TOKEN721.sol\":2149:2151  to */\n      dup2\n        /* \"TOKEN721.sol\":2122:2137  _tokenApprovals */\n      0x02\n        /* \"TOKEN721.sol\":2122:2146  _tokenApprovals[tokenId] */\n      0x00\n        /* \"TOKEN721.sol\":2138:2145  tokenId */\n      dup4\n        /* \"TOKEN721.sol\":2122:2146  _tokenApprovals[tokenId] */\n      dup2\n      mstore\n      0x20\n      add\n      swap1\n      dup2\n      mstore\n      0x20\n      add\n      0x00\n      keccak256\n      0x00\n        /* \"TOKEN721.sol\":2122:2151  _tokenApprovals[tokenId] = to */\n      0x0100\n      exp\n      dup2\n      sload\n      dup2\n      0xffffffffffffffffffffffffffffffffffffffff\n      mul\n      not\n      and\n      swap1\n      dup4\n      0xffffffffffffffffffffffffffffffffffffffff\n      and\n      mul\n      or\n      swap1\n      sstore\n      pop\n        /* \"TOKEN721.sol\":2198:2205  tokenId */\n      dup1\n        /* \"TOKEN721.sol\":2194:2196  to */\n      dup3\n        /* \"TOKEN721.sol\":2167:2206  Approval(ownerOf(tokenId), to, tokenId) */\n      0xffffffffffffffffffffffffffffffffffffffff\n      and\n        /* \"TOKEN721.sol\":2176:2192  ownerOf(tokenId) */\n      tag_134\n        /* \"TOKEN721.sol\":2184:2191  tokenId */\n      dup4\n        /* \"TOKEN721.sol\":2176:2183  ownerOf */\n      tag_41\n        /* \"TOKEN721.sol\":2176:2192  ownerOf(tokenId) */\n      jump\t// in\n    tag_134:\n        /* \"TOKEN721.sol\":2167:2206  Approval(ownerOf(tokenId), to, tokenId) */\n      0xffffffffffffffffffffffffffffffffffffffff\n      and\n      0x8c5be1e5ebec7d5bd14f71427d1e84f3dd0314c0f7b2291e5b200ac8c7c3b925\n      mload(0x40)\n      mload(0x40)\n      dup1\n      swap2\n      sub\n      swap1\n      log4\n        /* \"TOKEN721.sol\":2047:2214  function _approve(address to, uint256 tokenId) internal virtual {\r... */\n      pop\n      pop\n      jump\t// out\n        /* \"TOKEN721.sol\":7157:7482  function _isApprovedOrOwner(address spender, uint256 tokenId) internal view virtual returns(bool){\r... */\n    tag_93:\n        /* \"TOKEN721.sol\":7249:7253  bool */\n      0x00\n        /* \"TOKEN721.sol\":7273:7289  _exists(tokenId) */\n      tag_136\n        /* \"TOKEN721.sol\":7281:7288  tokenId */\n      dup3\n        /* \"TOKEN721.sol\":7273:7280  _exists */\n      tag_75\n        /* \"TOKEN721.sol\":7273:7289  _exists(tokenId) */\n      jump\t// in\n    tag_136:\n        /* \"TOKEN721.sol\":7265:7326  require(_exists(tokenId), \"ERC721 ERROR: No existe el token\") */\n      tag_137\n      jumpi\n      mload(0x40)\n      0x08c379a000000000000000000000000000000000000000000000000000000000\n      dup2\n      mstore\n      0x04\n      add\n      tag_138\n      swap1\n      tag_139\n      jump\t// in\n    tag_138:\n      mload(0x40)\n      dup1\n      swap2\n      sub\n      swap1\n      revert\n    tag_137:\n        /* \"TOKEN721.sol\":7337:7350  address owner */\n      0x00\n        /* \"TOKEN721.sol\":7353:7369  ownerOf(tokenId) */\n      tag_140\n        /* \"TOKEN721.sol\":7361:7368  tokenId */\n      dup4\n        /* \"TOKEN721.sol\":7353:7360  ownerOf */\n      tag_41\n        /* \"TOKEN721.sol\":7353:7369  ownerOf(tokenId) */\n      jump\t// in\n    tag_140:\n        /* \"TOKEN721.sol\":7337:7369  address owner = ownerOf(tokenId) */\n      swap1\n      pop\n        /* \"TOKEN721.sol\":7399:7404  owner */\n      dup1\n        /* \"TOKEN721.sol\":7388:7404  spender == owner */\n      0xffffffffffffffffffffffffffffffffffffffff\n      and\n        /* \"TOKEN721.sol\":7388:7395  spender */\n      dup5\n        /* \"TOKEN721.sol\":7388:7404  spender == owner */\n      0xffffffffffffffffffffffffffffffffffffffff\n      and\n      eq\n        /* \"TOKEN721.sol\":7388:7437  spender == owner || getApproved(tokenId)==spender */\n      dup1\n      tag_141\n      jumpi\n      pop\n        /* \"TOKEN721.sol\":7430:7437  spender */\n      dup4\n        /* \"TOKEN721.sol\":7408:7437  getApproved(tokenId)==spender */\n      0xffffffffffffffffffffffffffffffffffffffff\n      and\n        /* \"TOKEN721.sol\":7408:7428  getApproved(tokenId) */\n      tag_142\n        /* \"TOKEN721.sol\":7420:7427  tokenId */\n      dup5\n        /* \"TOKEN721.sol\":7408:7419  getApproved */\n      tag_25\n        /* \"TOKEN721.sol\":7408:7428  getApproved(tokenId) */\n      jump\t// in\n    tag_142:\n        /* \"TOKEN721.sol\":7408:7437  getApproved(tokenId)==spender */\n      0xffffffffffffffffffffffffffffffffffffffff\n      and\n      eq\n        /* \"TOKEN721.sol\":7388:7437  spender == owner || getApproved(tokenId)==spender */\n    tag_141:\n        /* \"TOKEN721.sol\":7388:7473  spender == owner || getApproved(tokenId)==spender || isApprovedForAll(owner, spender) */\n      dup1\n      tag_143\n      jumpi\n      pop\n        /* \"TOKEN721.sol\":7441:7473  isApprovedForAll(owner, spender) */\n      tag_144\n        /* \"TOKEN721.sol\":7458:7463  owner */\n      dup2\n        /* \"TOKEN721.sol\":7465:7472  spender */\n      dup6\n        /* \"TOKEN721.sol\":7441:7457  isApprovedForAll */\n      tag_67\n        /* \"TOKEN721.sol\":7441:7473  isApprovedForAll(owner, spender) */\n      jump\t// in\n    tag_144:\n        /* \"TOKEN721.sol\":7388:7473  spender == owner || getApproved(tokenId)==spender || isApprovedForAll(owner, spender) */\n    tag_143:\n        /* \"TOKEN721.sol\":7380:7474  return (spender == owner || getApproved(tokenId)==spender || isApprovedForAll(owner, spender)) */\n      swap2\n      pop\n      pop\n        /* \"TOKEN721.sol\":7157:7482  function _isApprovedOrOwner(address spender, uint256 tokenId) internal view virtual returns(bool){\r... */\n      swap3\n      swap2\n      pop\n      pop\n      jump\t// out\n        /* \"TOKEN721.sol\":4221:4566  function _transfer(address from, address to, uint256 tokenId) internal virtual {\r... */\n    tag_98:\n        /* \"TOKEN721.sol\":4339:4343  from */\n      dup3\n        /* \"TOKEN721.sol\":4319:4343  ownerOf(tokenId) == from */\n      0xffffffffffffffffffffffffffffffffffffffff\n      and\n        /* \"TOKEN721.sol\":4319:4335  ownerOf(tokenId) */\n      tag_146\n        /* \"TOKEN721.sol\":4327:4334  tokenId */\n      dup3\n        /* \"TOKEN721.sol\":4319:4326  ownerOf */\n      tag_41\n        /* \"TOKEN721.sol\":4319:4335  ownerOf(tokenId) */\n      jump\t// in\n    tag_146:\n        /* \"TOKEN721.sol\":4319:4343  ownerOf(tokenId) == from */\n      0xffffffffffffffffffffffffffffffffffffffff\n      and\n      eq\n        /* \"TOKEN721.sol\":4311:4381  require(ownerOf(tokenId) == from, \"ERC721 ERROR: No existe ese token\") */\n      tag_147\n      jumpi\n      mload(0x40)\n      0x08c379a000000000000000000000000000000000000000000000000000000000\n      dup2\n      mstore\n      0x04\n      add\n      tag_148\n      swap1\n      tag_149\n      jump\t// in\n    tag_148:\n      mload(0x40)\n      dup1\n      swap2\n      sub\n      swap1\n      revert\n    tag_147:\n        /* \"TOKEN721.sol\":4414:4415  0 */\n      0x00\n        /* \"TOKEN721.sol\":4400:4416  to != address(0) */\n      0xffffffffffffffffffffffffffffffffffffffff\n      and\n        /* \"TOKEN721.sol\":4400:4402  to */\n      dup3\n        /* \"TOKEN721.sol\":4400:4416  to != address(0) */\n      0xffffffffffffffffffffffffffffffffffffffff\n      and\n      eq\n      iszero\n        /* \"TOKEN721.sol\":4392:4421  require(to != address(0), \"\") */\n      tag_150\n      jumpi\n      mload(0x40)\n      0x08c379a000000000000000000000000000000000000000000000000000000000\n      dup2\n      mstore\n      0x04\n      add\n      tag_151\n      swap1\n      tag_96\n      jump\t// in\n    tag_151:\n      mload(0x40)\n      dup1\n      swap2\n      sub\n      swap1\n      revert\n    tag_150:\n        /* \"TOKEN721.sol\":4452:4453  1 */\n      0x01\n        /* \"TOKEN721.sol\":4434:4442  _balance */\n      dup1\n        /* \"TOKEN721.sol\":4434:4448  _balance[from] */\n      0x00\n        /* \"TOKEN721.sol\":4443:4447  from */\n      dup6\n        /* \"TOKEN721.sol\":4434:4448  _balance[from] */\n      0xffffffffffffffffffffffffffffffffffffffff\n      and\n      0xffffffffffffffffffffffffffffffffffffffff\n      and\n      dup2\n      mstore\n      0x20\n      add\n      swap1\n      dup2\n      mstore\n      0x20\n      add\n      0x00\n      keccak256\n      0x00\n        /* \"TOKEN721.sol\":4434:4453  _balance[from] -= 1 */\n      dup3\n      dup3\n      sload\n      tag_152\n      swap2\n      swap1\n      tag_153\n      jump\t// in\n    tag_152:\n      swap3\n      pop\n      pop\n      dup2\n      swap1\n      sstore\n      pop\n        /* \"TOKEN721.sol\":4480:4481  1 */\n      0x01\n        /* \"TOKEN721.sol\":4464:4472  _balance */\n      dup1\n        /* \"TOKEN721.sol\":4464:4476  _balance[to] */\n      0x00\n        /* \"TOKEN721.sol\":4473:4475  to */\n      dup5\n        /* \"TOKEN721.sol\":4464:4476  _balance[to] */\n      0xffffffffffffffffffffffffffffffffffffffff\n      and\n      0xffffffffffffffffffffffffffffffffffffffff\n      and\n      dup2\n      mstore\n      0x20\n      add\n      swap1\n      dup2\n      mstore\n      0x20\n      add\n      0x00\n      keccak256\n      0x00\n        /* \"TOKEN721.sol\":4464:4481  _balance[to] += 1 */\n      dup3\n      dup3\n      sload\n      tag_154\n      swap2\n      swap1\n      tag_155\n      jump\t// in\n    tag_154:\n      swap3\n      pop\n      pop\n      dup2\n      swap1\n      sstore\n      pop\n        /* \"TOKEN721.sol\":4511:4513  to */\n      dup2\n        /* \"TOKEN721.sol\":4492:4499  _owners */\n      0x00\n        /* \"TOKEN721.sol\":4492:4508  _owners[tokenId] */\n      dup1\n        /* \"TOKEN721.sol\":4500:4507  tokenId */\n      dup4\n        /* \"TOKEN721.sol\":4492:4508  _owners[tokenId] */\n      dup2\n      mstore\n      0x20\n      add\n      swap1\n      dup2\n      mstore\n      0x20\n      add\n      0x00\n      keccak256\n      0x00\n        /* \"TOKEN721.sol\":4492:4513  _owners[tokenId] = to */\n      0x0100\n      exp\n      dup2\n      sload\n      dup2\n      0xffffffffffffffffffffffffffffffffffffffff\n      mul\n      not\n      and\n      swap1\n      dup4\n      0xffffffffffffffffffffffffffffffffffffffff\n      and\n      mul\n      or\n      swap1\n      sstore\n      pop\n        /* \"TOKEN721.sol\":4550:4557  tokenId */\n      dup1\n        /* \"TOKEN721.sol\":4546:4548  to */\n      dup3\n        /* \"TOKEN721.sol\":4531:4558  Transfer(from, to, tokenId) */\n      0xffffffffffffffffffffffffffffffffffffffff\n      and\n        /* \"TOKEN721.sol\":4540:4544  from */\n      dup5\n        /* \"TOKEN721.sol\":4531:4558  Transfer(from, to, tokenId) */\n      0xffffffffffffffffffffffffffffffffffffffff\n      and\n      0xddf252ad1be2c89b69c2b068fc378daa952ba7f163c4a11628f55a4df523b3ef\n      mload(0x40)\n      mload(0x40)\n      dup1\n      swap2\n      sub\n      swap1\n      log4\n        /* \"TOKEN721.sol\":4221:4566  function _transfer(address from, address to, uint256 tokenId) internal virtual {\r... */\n      pop\n      pop\n      pop\n      jump\t// out\n        /* \"TOKEN721.sol\":5164:5641  function _mint(address to, uint256 tokenId) internal virtual{\r... */\n    tag_107:\n        /* \"TOKEN721.sol\":5257:5258  0 */\n      0x00\n        /* \"TOKEN721.sol\":5243:5259  to != address(0) */\n      0xffffffffffffffffffffffffffffffffffffffff\n      and\n        /* \"TOKEN721.sol\":5243:5245  to */\n      dup3\n        /* \"TOKEN721.sol\":5243:5259  to != address(0) */\n      0xffffffffffffffffffffffffffffffffffffffff\n      and\n      eq\n      iszero\n        /* \"TOKEN721.sol\":5235:5264  require(to != address(0), \"\") */\n      tag_157\n      jumpi\n      mload(0x40)\n      0x08c379a000000000000000000000000000000000000000000000000000000000\n      dup2\n      mstore\n      0x04\n      add\n      tag_158\n      swap1\n      tag_96\n      jump\t// in\n    tag_158:\n      mload(0x40)\n      dup1\n      swap2\n      sub\n      swap1\n      revert\n    tag_157:\n        /* \"TOKEN721.sol\":5284:5300  _exists(tokenId) */\n      tag_159\n        /* \"TOKEN721.sol\":5292:5299  tokenId */\n      dup2\n        /* \"TOKEN721.sol\":5284:5291  _exists */\n      tag_75\n        /* \"TOKEN721.sol\":5284:5300  _exists(tokenId) */\n      jump\t// in\n    tag_159:\n        /* \"TOKEN721.sol\":5283:5300  !_exists(tokenId) */\n      iszero\n        /* \"TOKEN721.sol\":5275:5347  require(!_exists(tokenId), \"ERC721 ERROR: El token ya ha sido minteado\") */\n      tag_160\n      jumpi\n      mload(0x40)\n      0x08c379a000000000000000000000000000000000000000000000000000000000\n      dup2\n      mstore\n      0x04\n      add\n      tag_161\n      swap1\n      tag_162\n      jump\t// in\n    tag_161:\n      mload(0x40)\n      dup1\n      swap2\n      sub\n      swap1\n      revert\n    tag_160:\n        /* \"TOKEN721.sol\":5360:5406  _beforeTokenTransfer(address(0), to, tokenId ) */\n      tag_163\n        /* \"TOKEN721.sol\":5389:5390  0 */\n      0x00\n        /* \"TOKEN721.sol\":5393:5395  to */\n      dup4\n        /* \"TOKEN721.sol\":5397:5404  tokenId */\n      dup4\n        /* \"TOKEN721.sol\":5360:5380  _beforeTokenTransfer */\n      tag_164\n        /* \"TOKEN721.sol\":5360:5406  _beforeTokenTransfer(address(0), to, tokenId ) */\n      jump\t// in\n    tag_163:\n        /* \"TOKEN721.sol\":5435:5436  1 */\n      0x01\n        /* \"TOKEN721.sol\":5419:5427  _balance */\n      dup1\n        /* \"TOKEN721.sol\":5419:5431  _balance[to] */\n      0x00\n        /* \"TOKEN721.sol\":5428:5430  to */\n      dup5\n        /* \"TOKEN721.sol\":5419:5431  _balance[to] */\n      0xffffffffffffffffffffffffffffffffffffffff\n      and\n      0xffffffffffffffffffffffffffffffffffffffff\n      and\n      dup2\n      mstore\n      0x20\n      add\n      swap1\n      dup2\n      mstore\n      0x20\n      add\n      0x00\n      keccak256\n      0x00\n        /* \"TOKEN721.sol\":5419:5436  _balance[to] += 1 */\n      dup3\n      dup3\n      sload\n      tag_165\n      swap2\n      swap1\n      tag_155\n      jump\t// in\n    tag_165:\n      swap3\n      pop\n      pop\n      dup2\n      swap1\n      sstore\n      pop\n        /* \"TOKEN721.sol\":5466:5468  to */\n      dup2\n        /* \"TOKEN721.sol\":5447:5454  _owners */\n      0x00\n        /* \"TOKEN721.sol\":5447:5463  _owners[tokenId] */\n      dup1\n        /* \"TOKEN721.sol\":5455:5462  tokenId */\n      dup4\n        /* \"TOKEN721.sol\":5447:5463  _owners[tokenId] */\n      dup2\n      mstore\n      0x20\n      add\n      swap1\n      dup2\n      mstore\n      0x20\n      add\n      0x00\n      keccak256\n      0x00\n        /* \"TOKEN721.sol\":5447:5468  _owners[tokenId] = to */\n      0x0100\n      exp\n      dup2\n      sload\n      dup2\n      0xffffffffffffffffffffffffffffffffffffffff\n      mul\n      not\n      and\n      swap1\n      dup4\n      0xffffffffffffffffffffffffffffffffffffffff\n      and\n      mul\n      or\n      swap1\n      sstore\n      pop\n        /* \"TOKEN721.sol\":5625:5632  tokenId */\n      dup1\n        /* \"TOKEN721.sol\":5621:5623  to */\n      dup3\n        /* \"TOKEN721.sol\":5600:5633  Transfer(address(0), to, tokenId) */\n      0xffffffffffffffffffffffffffffffffffffffff\n      and\n        /* \"TOKEN721.sol\":5617:5618  0 */\n      0x00\n        /* \"TOKEN721.sol\":5600:5633  Transfer(address(0), to, tokenId) */\n      0xffffffffffffffffffffffffffffffffffffffff\n      and\n      0xddf252ad1be2c89b69c2b068fc378daa952ba7f163c4a11628f55a4df523b3ef\n      mload(0x40)\n      mload(0x40)\n      dup1\n      swap2\n      sub\n      swap1\n      log4\n        /* \"TOKEN721.sol\":5164:5641  function _mint(address to, uint256 tokenId) internal virtual{\r... */\n      pop\n      pop\n      jump\t// out\n        /* \"TOKEN721.sol\":5649:6472  function _chekOnERC721Received(address from , address to, uint256 tokenId, bytes memory _data) private returns (bool){\r... */\n    tag_109:\n        /* \"TOKEN721.sol\":5761:5765  bool */\n      0x00\n        /* \"TOKEN721.sol\":5780:5794  isContract(to) */\n      tag_167\n        /* \"TOKEN721.sol\":5791:5793  to */\n      dup5\n        /* \"TOKEN721.sol\":5780:5790  isContract */\n      tag_168\n        /* \"TOKEN721.sol\":5780:5794  isContract(to) */\n      jump\t// in\n    tag_167:\n        /* \"TOKEN721.sol\":5777:6465  if(isContract(to)){\r... */\n      iszero\n      tag_169\n      jumpi\n        /* \"TOKEN721.sol\":5830:5832  to */\n      dup4\n        /* \"TOKEN721.sol\":5814:5850  IERC721Receiver(to).onERC721Receiver */\n      0xffffffffffffffffffffffffffffffffffffffff\n      and\n      0x9642d02d\n        /* \"TOKEN721.sol\":5851:5861  msg.sender */\n      caller\n        /* \"TOKEN721.sol\":5863:5867  from */\n      dup8\n        /* \"TOKEN721.sol\":5869:5876  tokenId */\n      dup7\n        /* \"TOKEN721.sol\":5878:5883  _data */\n      dup7\n        /* \"TOKEN721.sol\":5814:5884  IERC721Receiver(to).onERC721Receiver(msg.sender, from, tokenId, _data) */\n      mload(0x40)\n      dup6\n      0xffffffff\n      and\n      0xe0\n      shl\n      dup2\n      mstore\n      0x04\n      add\n      tag_170\n      swap5\n      swap4\n      swap3\n      swap2\n      swap1\n      tag_171\n      jump\t// in\n    tag_170:\n      0x20\n      mload(0x40)\n      dup1\n      dup4\n      sub\n      dup2\n      0x00\n      dup8\n      dup1\n      extcodesize\n      iszero\n      dup1\n      iszero\n      tag_172\n      jumpi\n      0x00\n      dup1\n      revert\n    tag_172:\n      pop\n      gas\n      call\n      swap3\n      pop\n      pop\n      pop\n      dup1\n      iszero\n      tag_173\n      jumpi\n      pop\n      mload(0x40)\n      returndatasize\n      not(0x1f)\n      0x1f\n      dup3\n      add\n      and\n      dup3\n      add\n      dup1\n      0x40\n      mstore\n      pop\n      dup2\n      add\n      swap1\n      tag_174\n      swap2\n      swap1\n      tag_175\n      jump\t// in\n    tag_174:\n      0x01\n    tag_173:\n        /* \"TOKEN721.sol\":5810:6412  try IERC721Receiver(to).onERC721Receiver(msg.sender, from, tokenId, _data) returns (bytes4 retval){\r... */\n      tag_176\n      jumpi\n      returndatasize\n      dup1\n      0x00\n      dup2\n      eq\n      tag_181\n      jumpi\n      mload(0x40)\n      swap2\n      pop\n      and(add(returndatasize, 0x3f), not(0x1f))\n      dup3\n      add\n      0x40\n      mstore\n      returndatasize\n      dup3\n      mstore\n      returndatasize\n      0x00\n      0x20\n      dup5\n      add\n      returndatacopy\n      jump(tag_180)\n    tag_181:\n      0x60\n      swap2\n      pop\n    tag_180:\n      pop\n        /* \"TOKEN721.sol\":6070:6071  0 */\n      0x00\n        /* \"TOKEN721.sol\":6053:6059  reason */\n      dup2\n        /* \"TOKEN721.sol\":6053:6066  reason.length */\n      mload\n        /* \"TOKEN721.sol\":6053:6071  reason.length == 0 */\n      eq\n        /* \"TOKEN721.sol\":6050:6397  if(reason.length == 0) {\r... */\n      iszero\n      tag_182\n      jumpi\n        /* \"TOKEN721.sol\":6096:6167  revert(\"ERC721 ERROR, transferencia no implementada para ese contrato\") */\n      mload(0x40)\n      0x08c379a000000000000000000000000000000000000000000000000000000000\n      dup2\n      mstore\n      0x04\n      add\n      tag_183\n      swap1\n      tag_184\n      jump\t// in\n    tag_183:\n      mload(0x40)\n      dup1\n      swap2\n      sub\n      swap1\n      revert\n        /* \"TOKEN721.sol\":6050:6397  if(reason.length == 0) {\r... */\n    tag_182:\n        /* \"TOKEN721.sol\":6347:6353  reason */\n      dup1\n        /* \"TOKEN721.sol\":6341:6354  mload(reason) */\n      mload\n        /* \"TOKEN721.sol\":6332:6338  reason */\n      dup2\n        /* \"TOKEN721.sol\":6328:6330  32 */\n      0x20\n        /* \"TOKEN721.sol\":6324:6339  add(32, reason) */\n      add\n        /* \"TOKEN721.sol\":6317:6355  revert(add(32, reason), mload(reason)) */\n      revert\n        /* \"TOKEN721.sol\":5810:6412  try IERC721Receiver(to).onERC721Receiver(msg.sender, from, tokenId, _data) returns (bytes4 retval){\r... */\n    tag_176:\n        /* \"TOKEN721.sol\":5944:5989  IERC721Receiver(to).onERC721Receiver.selector */\n      shl(0xe0, 0x9642d02d)\n        /* \"TOKEN721.sol\":5934:5989  retval == IERC721Receiver(to).onERC721Receiver.selector */\n      not(0xffffffffffffffffffffffffffffffffffffffffffffffffffffffff)\n      and\n        /* \"TOKEN721.sol\":5934:5940  retval */\n      dup2\n        /* \"TOKEN721.sol\":5934:5989  retval == IERC721Receiver(to).onERC721Receiver.selector */\n      not(0xffffffffffffffffffffffffffffffffffffffffffffffffffffffff)\n      and\n      eq\n        /* \"TOKEN721.sol\":5927:5989  return retval == IERC721Receiver(to).onERC721Receiver.selector */\n      swap2\n      pop\n      pop\n      jump(tag_166)\n        /* \"TOKEN721.sol\":5777:6465  if(isContract(to)){\r... */\n    tag_169:\n        /* \"TOKEN721.sol\":6449:6453  true */\n      0x01\n        /* \"TOKEN721.sol\":6442:6453  return true */\n      swap1\n      pop\n        /* \"TOKEN721.sol\":5649:6472  function _chekOnERC721Received(address from , address to, uint256 tokenId, bytes memory _data) private returns (bool){\r... */\n    tag_166:\n      swap5\n      swap4\n      pop\n      pop\n      pop\n      pop\n      jump\t// out\n        /* \"TOKEN721.sol\":3736:4004  function _safeTransfer(address from, address to, uint256 tokenId, bytes memory _data) internal virtual{\r... */\n    tag_129:\n        /* \"TOKEN721.sol\":3849:3877  _transfer(from, to, tokenId) */\n      tag_189\n        /* \"TOKEN721.sol\":3859:3863  from */\n      dup5\n        /* \"TOKEN721.sol\":3865:3867  to */\n      dup5\n        /* \"TOKEN721.sol\":3869:3876  tokenId */\n      dup5\n        /* \"TOKEN721.sol\":3849:3858  _transfer */\n      tag_98\n        /* \"TOKEN721.sol\":3849:3877  _transfer(from, to, tokenId) */\n      jump\t// in\n    tag_189:\n        /* \"TOKEN721.sol\":3896:3943  _chekOnERC721Received(from, to, tokenId, _data) */\n      tag_190\n        /* \"TOKEN721.sol\":3918:3922  from */\n      dup5\n        /* \"TOKEN721.sol\":3924:3926  to */\n      dup5\n        /* \"TOKEN721.sol\":3928:3935  tokenId */\n      dup5\n        /* \"TOKEN721.sol\":3937:3942  _data */\n      dup5\n        /* \"TOKEN721.sol\":3896:3917  _chekOnERC721Received */\n      tag_109\n        /* \"TOKEN721.sol\":3896:3943  _chekOnERC721Received(from, to, tokenId, _data) */\n      jump\t// in\n    tag_190:\n        /* \"TOKEN721.sol\":3888:3996  require(_chekOnERC721Received(from, to, tokenId, _data), \"ERC721 ERROR: El destino no admite este estandar\") */\n      tag_191\n      jumpi\n      mload(0x40)\n      0x08c379a000000000000000000000000000000000000000000000000000000000\n      dup2\n      mstore\n      0x04\n      add\n      tag_192\n      swap1\n      tag_193\n      jump\t// in\n    tag_192:\n      mload(0x40)\n      dup1\n      swap2\n      sub\n      swap1\n      revert\n    tag_191:\n        /* \"TOKEN721.sol\":3736:4004  function _safeTransfer(address from, address to, uint256 tokenId, bytes memory _data) internal virtual{\r... */\n      pop\n      pop\n      pop\n      pop\n      jump\t// out\n        /* \"TOKEN721.sol\":7057:7149  function _beforeTokenTransfer(address from, address to, uint256 tokenId) internal virtual {} */\n    tag_164:\n      pop\n      pop\n      pop\n      jump\t// out\n        /* \"TOKEN721.sol\":6561:6847  function isContract(address _addr) private view returns (bool){\r... */\n    tag_168:\n        /* \"TOKEN721.sol\":6618:6622  bool */\n      0x00\n        /* \"TOKEN721.sol\":6634:6645  uint32 size */\n      dup1\n        /* \"TOKEN721.sol\":6698:6703  _addr */\n      dup3\n        /* \"TOKEN721.sol\":6686:6704  extcodesize(_addr) */\n      extcodesize\n        /* \"TOKEN721.sol\":6679:6704  size :=extcodesize(_addr) */\n      swap1\n      pop\n        /* \"TOKEN721.sol\":6837:6838  0 */\n      0x00\n        /* \"TOKEN721.sol\":6830:6834  size */\n      dup2\n        /* \"TOKEN721.sol\":6830:6838  size > 0 */\n      0xffffffff\n      and\n      gt\n        /* \"TOKEN721.sol\":6822:6839  return (size > 0) */\n      swap2\n      pop\n      pop\n        /* \"TOKEN721.sol\":6561:6847  function isContract(address _addr) private view returns (bool){\r... */\n      swap2\n      swap1\n      pop\n      jump\t// out\n        /* \"#utility.yul\":7:417   */\n    tag_197:\n        /* \"#utility.yul\":84:89   */\n      0x00\n        /* \"#utility.yul\":109:174   */\n      tag_199\n        /* \"#utility.yul\":125:173   */\n      tag_200\n        /* \"#utility.yul\":166:172   */\n      dup5\n        /* \"#utility.yul\":125:173   */\n      tag_201\n      jump\t// in\n    tag_200:\n        /* \"#utility.yul\":109:174   */\n      tag_202\n      jump\t// in\n    tag_199:\n        /* \"#utility.yul\":100:174   */\n      swap1\n      pop\n        /* \"#utility.yul\":197:203   */\n      dup3\n        /* \"#utility.yul\":190:195   */\n      dup2\n        /* \"#utility.yul\":183:204   */\n      mstore\n        /* \"#utility.yul\":235:239   */\n      0x20\n        /* \"#utility.yul\":228:233   */\n      dup2\n        /* \"#utility.yul\":224:240   */\n      add\n        /* \"#utility.yul\":273:276   */\n      dup5\n        /* \"#utility.yul\":264:270   */\n      dup5\n        /* \"#utility.yul\":259:262   */\n      dup5\n        /* \"#utility.yul\":255:271   */\n      add\n        /* \"#utility.yul\":252:277   */\n      gt\n        /* \"#utility.yul\":249:361   */\n      iszero\n      tag_203\n      jumpi\n        /* \"#utility.yul\":280:359   */\n      tag_204\n      tag_205\n      jump\t// in\n    tag_204:\n        /* \"#utility.yul\":249:361   */\n    tag_203:\n        /* \"#utility.yul\":370:411   */\n      tag_206\n        /* \"#utility.yul\":404:410   */\n      dup5\n        /* \"#utility.yul\":399:402   */\n      dup3\n        /* \"#utility.yul\":394:397   */\n      dup6\n        /* \"#utility.yul\":370:411   */\n      tag_207\n      jump\t// in\n    tag_206:\n        /* \"#utility.yul\":90:417   */\n      pop\n        /* \"#utility.yul\":7:417   */\n      swap4\n      swap3\n      pop\n      pop\n      pop\n      jump\t// out\n        /* \"#utility.yul\":423:562   */\n    tag_208:\n        /* \"#utility.yul\":469:474   */\n      0x00\n        /* \"#utility.yul\":507:513   */\n      dup2\n        /* \"#utility.yul\":494:514   */\n      calldataload\n        /* \"#utility.yul\":485:514   */\n      swap1\n      pop\n        /* \"#utility.yul\":523:556   */\n      tag_210\n        /* \"#utility.yul\":550:555   */\n      dup2\n        /* \"#utility.yul\":523:556   */\n      tag_211\n      jump\t// in\n    tag_210:\n        /* \"#utility.yul\":423:562   */\n      swap3\n      swap2\n      pop\n      pop\n      jump\t// out\n        /* \"#utility.yul\":568:701   */\n    tag_212:\n        /* \"#utility.yul\":611:616   */\n      0x00\n        /* \"#utility.yul\":649:655   */\n      dup2\n        /* \"#utility.yul\":636:656   */\n      calldataload\n        /* \"#utility.yul\":627:656   */\n      swap1\n      pop\n        /* \"#utility.yul\":665:695   */\n      tag_214\n        /* \"#utility.yul\":689:694   */\n      dup2\n        /* \"#utility.yul\":665:695   */\n      tag_215\n      jump\t// in\n    tag_214:\n        /* \"#utility.yul\":568:701   */\n      swap3\n      swap2\n      pop\n      pop\n      jump\t// out\n        /* \"#utility.yul\":707:844   */\n    tag_216:\n        /* \"#utility.yul\":752:757   */\n      0x00\n        /* \"#utility.yul\":790:796   */\n      dup2\n        /* \"#utility.yul\":777:797   */\n      calldataload\n        /* \"#utility.yul\":768:797   */\n      swap1\n      pop\n        /* \"#utility.yul\":806:838   */\n      tag_218\n        /* \"#utility.yul\":832:837   */\n      dup2\n        /* \"#utility.yul\":806:838   */\n      tag_219\n      jump\t// in\n    tag_218:\n        /* \"#utility.yul\":707:844   */\n      swap3\n      swap2\n      pop\n      pop\n      jump\t// out\n        /* \"#utility.yul\":850:991   */\n    tag_220:\n        /* \"#utility.yul\":906:911   */\n      0x00\n        /* \"#utility.yul\":937:943   */\n      dup2\n        /* \"#utility.yul\":931:944   */\n      mload\n        /* \"#utility.yul\":922:944   */\n      swap1\n      pop\n        /* \"#utility.yul\":953:985   */\n      tag_222\n        /* \"#utility.yul\":979:984   */\n      dup2\n        /* \"#utility.yul\":953:985   */\n      tag_219\n      jump\t// in\n    tag_222:\n        /* \"#utility.yul\":850:991   */\n      swap3\n      swap2\n      pop\n      pop\n      jump\t// out\n        /* \"#utility.yul\":1010:1348   */\n    tag_223:\n        /* \"#utility.yul\":1065:1070   */\n      0x00\n        /* \"#utility.yul\":1114:1117   */\n      dup3\n        /* \"#utility.yul\":1107:1111   */\n      0x1f\n        /* \"#utility.yul\":1099:1105   */\n      dup4\n        /* \"#utility.yul\":1095:1112   */\n      add\n        /* \"#utility.yul\":1091:1118   */\n      slt\n        /* \"#utility.yul\":1081:1203   */\n      tag_225\n      jumpi\n        /* \"#utility.yul\":1122:1201   */\n      tag_226\n      tag_227\n      jump\t// in\n    tag_226:\n        /* \"#utility.yul\":1081:1203   */\n    tag_225:\n        /* \"#utility.yul\":1239:1245   */\n      dup2\n        /* \"#utility.yul\":1226:1246   */\n      calldataload\n        /* \"#utility.yul\":1264:1342   */\n      tag_228\n        /* \"#utility.yul\":1338:1341   */\n      dup5\n        /* \"#utility.yul\":1330:1336   */\n      dup3\n        /* \"#utility.yul\":1323:1327   */\n      0x20\n        /* \"#utility.yul\":1315:1321   */\n      dup7\n        /* \"#utility.yul\":1311:1328   */\n      add\n        /* \"#utility.yul\":1264:1342   */\n      tag_197\n      jump\t// in\n    tag_228:\n        /* \"#utility.yul\":1255:1342   */\n      swap2\n      pop\n        /* \"#utility.yul\":1071:1348   */\n      pop\n        /* \"#utility.yul\":1010:1348   */\n      swap3\n      swap2\n      pop\n      pop\n      jump\t// out\n        /* \"#utility.yul\":1354:1493   */\n    tag_229:\n        /* \"#utility.yul\":1400:1405   */\n      0x00\n        /* \"#utility.yul\":1438:1444   */\n      dup2\n        /* \"#utility.yul\":1425:1445   */\n      calldataload\n        /* \"#utility.yul\":1416:1445   */\n      swap1\n      pop\n        /* \"#utility.yul\":1454:1487   */\n      tag_231\n        /* \"#utility.yul\":1481:1486   */\n      dup2\n        /* \"#utility.yul\":1454:1487   */\n      tag_232\n      jump\t// in\n    tag_231:\n        /* \"#utility.yul\":1354:1493   */\n      swap3\n      swap2\n      pop\n      pop\n      jump\t// out\n        /* \"#utility.yul\":1499:1828   */\n    tag_49:\n        /* \"#utility.yul\":1558:1564   */\n      0x00\n        /* \"#utility.yul\":1607:1609   */\n      0x20\n        /* \"#utility.yul\":1595:1604   */\n      dup3\n        /* \"#utility.yul\":1586:1593   */\n      dup5\n        /* \"#utility.yul\":1582:1605   */\n      sub\n        /* \"#utility.yul\":1578:1610   */\n      slt\n        /* \"#utility.yul\":1575:1694   */\n      iszero\n      tag_234\n      jumpi\n        /* \"#utility.yul\":1613:1692   */\n      tag_235\n      tag_236\n      jump\t// in\n    tag_235:\n        /* \"#utility.yul\":1575:1694   */\n    tag_234:\n        /* \"#utility.yul\":1733:1734   */\n      0x00\n        /* \"#utility.yul\":1758:1811   */\n      tag_237\n        /* \"#utility.yul\":1803:1810   */\n      dup5\n        /* \"#utility.yul\":1794:1800   */\n      dup3\n        /* \"#utility.yul\":1783:1792   */\n      dup6\n        /* \"#utility.yul\":1779:1801   */\n      add\n        /* \"#utility.yul\":1758:1811   */\n      tag_208\n      jump\t// in\n    tag_237:\n        /* \"#utility.yul\":1748:1811   */\n      swap2\n      pop\n        /* \"#utility.yul\":1704:1821   */\n      pop\n        /* \"#utility.yul\":1499:1828   */\n      swap3\n      swap2\n      pop\n      pop\n      jump\t// out\n        /* \"#utility.yul\":1834:2308   */\n    tag_66:\n        /* \"#utility.yul\":1902:1908   */\n      0x00\n        /* \"#utility.yul\":1910:1916   */\n      dup1\n        /* \"#utility.yul\":1959:1961   */\n      0x40\n        /* \"#utility.yul\":1947:1956   */\n      dup4\n        /* \"#utility.yul\":1938:1945   */\n      dup6\n        /* \"#utility.yul\":1934:1957   */\n      sub\n        /* \"#utility.yul\":1930:1962   */\n      slt\n        /* \"#utility.yul\":1927:2046   */\n      iszero\n      tag_239\n      jumpi\n        /* \"#utility.yul\":1965:2044   */\n      tag_240\n      tag_236\n      jump\t// in\n    tag_240:\n        /* \"#utility.yul\":1927:2046   */\n    tag_239:\n        /* \"#utility.yul\":2085:2086   */\n      0x00\n        /* \"#utility.yul\":2110:2163   */\n      tag_241\n        /* \"#utility.yul\":2155:2162   */\n      dup6\n        /* \"#utility.yul\":2146:2152   */\n      dup3\n        /* \"#utility.yul\":2135:2144   */\n      dup7\n        /* \"#utility.yul\":2131:2153   */\n      add\n        /* \"#utility.yul\":2110:2163   */\n      tag_208\n      jump\t// in\n    tag_241:\n        /* \"#utility.yul\":2100:2163   */\n      swap3\n      pop\n        /* \"#utility.yul\":2056:2173   */\n      pop\n        /* \"#utility.yul\":2212:2214   */\n      0x20\n        /* \"#utility.yul\":2238:2291   */\n      tag_242\n        /* \"#utility.yul\":2283:2290   */\n      dup6\n        /* \"#utility.yul\":2274:2280   */\n      dup3\n        /* \"#utility.yul\":2263:2272   */\n      dup7\n        /* \"#utility.yul\":2259:2281   */\n      add\n        /* \"#utility.yul\":2238:2291   */\n      tag_208\n      jump\t// in\n    tag_242:\n        /* \"#utility.yul\":2228:2291   */\n      swap2\n      pop\n        /* \"#utility.yul\":2183:2301   */\n      pop\n        /* \"#utility.yul\":1834:2308   */\n      swap3\n      pop\n      swap3\n      swap1\n      pop\n      jump\t// out\n        /* \"#utility.yul\":2314:2933   */\n    tag_34:\n        /* \"#utility.yul\":2391:2397   */\n      0x00\n        /* \"#utility.yul\":2399:2405   */\n      dup1\n        /* \"#utility.yul\":2407:2413   */\n      0x00\n        /* \"#utility.yul\":2456:2458   */\n      0x60\n        /* \"#utility.yul\":2444:2453   */\n      dup5\n        /* \"#utility.yul\":2435:2442   */\n      dup7\n        /* \"#utility.yul\":2431:2454   */\n      sub\n        /* \"#utility.yul\":2427:2459   */\n      slt\n        /* \"#utility.yul\":2424:2543   */\n      iszero\n      tag_244\n      jumpi\n        /* \"#utility.yul\":2462:2541   */\n      tag_245\n      tag_236\n      jump\t// in\n    tag_245:\n        /* \"#utility.yul\":2424:2543   */\n    tag_244:\n        /* \"#utility.yul\":2582:2583   */\n      0x00\n        /* \"#utility.yul\":2607:2660   */\n      tag_246\n        /* \"#utility.yul\":2652:2659   */\n      dup7\n        /* \"#utility.yul\":2643:2649   */\n      dup3\n        /* \"#utility.yul\":2632:2641   */\n      dup8\n        /* \"#utility.yul\":2628:2650   */\n      add\n        /* \"#utility.yul\":2607:2660   */\n      tag_208\n      jump\t// in\n    tag_246:\n        /* \"#utility.yul\":2597:2660   */\n      swap4\n      pop\n        /* \"#utility.yul\":2553:2670   */\n      pop\n        /* \"#utility.yul\":2709:2711   */\n      0x20\n        /* \"#utility.yul\":2735:2788   */\n      tag_247\n        /* \"#utility.yul\":2780:2787   */\n      dup7\n        /* \"#utility.yul\":2771:2777   */\n      dup3\n        /* \"#utility.yul\":2760:2769   */\n      dup8\n        /* \"#utility.yul\":2756:2778   */\n      add\n        /* \"#utility.yul\":2735:2788   */\n      tag_208\n      jump\t// in\n    tag_247:\n        /* \"#utility.yul\":2725:2788   */\n      swap3\n      pop\n        /* \"#utility.yul\":2680:2798   */\n      pop\n        /* \"#utility.yul\":2837:2839   */\n      0x40\n        /* \"#utility.yul\":2863:2916   */\n      tag_248\n        /* \"#utility.yul\":2908:2915   */\n      dup7\n        /* \"#utility.yul\":2899:2905   */\n      dup3\n        /* \"#utility.yul\":2888:2897   */\n      dup8\n        /* \"#utility.yul\":2884:2906   */\n      add\n        /* \"#utility.yul\":2863:2916   */\n      tag_229\n      jump\t// in\n    tag_248:\n        /* \"#utility.yul\":2853:2916   */\n      swap2\n      pop\n        /* \"#utility.yul\":2808:2926   */\n      pop\n        /* \"#utility.yul\":2314:2933   */\n      swap3\n      pop\n      swap3\n      pop\n      swap3\n      jump\t// out\n        /* \"#utility.yul\":2939:3882   */\n    tag_62:\n        /* \"#utility.yul\":3034:3040   */\n      0x00\n        /* \"#utility.yul\":3042:3048   */\n      dup1\n        /* \"#utility.yul\":3050:3056   */\n      0x00\n        /* \"#utility.yul\":3058:3064   */\n      dup1\n        /* \"#utility.yul\":3107:3110   */\n      0x80\n        /* \"#utility.yul\":3095:3104   */\n      dup6\n        /* \"#utility.yul\":3086:3093   */\n      dup8\n        /* \"#utility.yul\":3082:3105   */\n      sub\n        /* \"#utility.yul\":3078:3111   */\n      slt\n        /* \"#utility.yul\":3075:3195   */\n      iszero\n      tag_250\n      jumpi\n        /* \"#utility.yul\":3114:3193   */\n      tag_251\n      tag_236\n      jump\t// in\n    tag_251:\n        /* \"#utility.yul\":3075:3195   */\n    tag_250:\n        /* \"#utility.yul\":3234:3235   */\n      0x00\n        /* \"#utility.yul\":3259:3312   */\n      tag_252\n        /* \"#utility.yul\":3304:3311   */\n      dup8\n        /* \"#utility.yul\":3295:3301   */\n      dup3\n        /* \"#utility.yul\":3284:3293   */\n      dup9\n        /* \"#utility.yul\":3280:3302   */\n      add\n        /* \"#utility.yul\":3259:3312   */\n      tag_208\n      jump\t// in\n    tag_252:\n        /* \"#utility.yul\":3249:3312   */\n      swap5\n      pop\n        /* \"#utility.yul\":3205:3322   */\n      pop\n        /* \"#utility.yul\":3361:3363   */\n      0x20\n        /* \"#utility.yul\":3387:3440   */\n      tag_253\n        /* \"#utility.yul\":3432:3439   */\n      dup8\n        /* \"#utility.yul\":3423:3429   */\n      dup3\n        /* \"#utility.yul\":3412:3421   */\n      dup9\n        /* \"#utility.yul\":3408:3430   */\n      add\n        /* \"#utility.yul\":3387:3440   */\n      tag_208\n      jump\t// in\n    tag_253:\n        /* \"#utility.yul\":3377:3440   */\n      swap4\n      pop\n        /* \"#utility.yul\":3332:3450   */\n      pop\n        /* \"#utility.yul\":3489:3491   */\n      0x40\n        /* \"#utility.yul\":3515:3568   */\n      tag_254\n        /* \"#utility.yul\":3560:3567   */\n      dup8\n        /* \"#utility.yul\":3551:3557   */\n      dup3\n        /* \"#utility.yul\":3540:3549   */\n      dup9\n        /* \"#utility.yul\":3536:3558   */\n      add\n        /* \"#utility.yul\":3515:3568   */\n      tag_229\n      jump\t// in\n    tag_254:\n        /* \"#utility.yul\":3505:3568   */\n      swap3\n      pop\n        /* \"#utility.yul\":3460:3578   */\n      pop\n        /* \"#utility.yul\":3645:3647   */\n      0x60\n        /* \"#utility.yul\":3634:3643   */\n      dup6\n        /* \"#utility.yul\":3630:3648   */\n      add\n        /* \"#utility.yul\":3617:3649   */\n      calldataload\n        /* \"#utility.yul\":3676:3694   */\n      0xffffffffffffffff\n        /* \"#utility.yul\":3668:3674   */\n      dup2\n        /* \"#utility.yul\":3665:3695   */\n      gt\n        /* \"#utility.yul\":3662:3779   */\n      iszero\n      tag_255\n      jumpi\n        /* \"#utility.yul\":3698:3777   */\n      tag_256\n      tag_257\n      jump\t// in\n    tag_256:\n        /* \"#utility.yul\":3662:3779   */\n    tag_255:\n        /* \"#utility.yul\":3803:3865   */\n      tag_258\n        /* \"#utility.yul\":3857:3864   */\n      dup8\n        /* \"#utility.yul\":3848:3854   */\n      dup3\n        /* \"#utility.yul\":3837:3846   */\n      dup9\n        /* \"#utility.yul\":3833:3855   */\n      add\n        /* \"#utility.yul\":3803:3865   */\n      tag_223\n      jump\t// in\n    tag_258:\n        /* \"#utility.yul\":3793:3865   */\n      swap2\n      pop\n        /* \"#utility.yul\":3588:3875   */\n      pop\n        /* \"#utility.yul\":2939:3882   */\n      swap3\n      swap6\n      swap2\n      swap5\n      pop\n      swap3\n      pop\n      jump\t// out\n        /* \"#utility.yul\":3888:4356   */\n    tag_55:\n        /* \"#utility.yul\":3953:3959   */\n      0x00\n        /* \"#utility.yul\":3961:3967   */\n      dup1\n        /* \"#utility.yul\":4010:4012   */\n      0x40\n        /* \"#utility.yul\":3998:4007   */\n      dup4\n        /* \"#utility.yul\":3989:3996   */\n      dup6\n        /* \"#utility.yul\":3985:4008   */\n      sub\n        /* \"#utility.yul\":3981:4013   */\n      slt\n        /* \"#utility.yul\":3978:4097   */\n      iszero\n      tag_260\n      jumpi\n        /* \"#utility.yul\":4016:4095   */\n      tag_261\n      tag_236\n      jump\t// in\n    tag_261:\n        /* \"#utility.yul\":3978:4097   */\n    tag_260:\n        /* \"#utility.yul\":4136:4137   */\n      0x00\n        /* \"#utility.yul\":4161:4214   */\n      tag_262\n        /* \"#utility.yul\":4206:4213   */\n      dup6\n        /* \"#utility.yul\":4197:4203   */\n      dup3\n        /* \"#utility.yul\":4186:4195   */\n      dup7\n        /* \"#utility.yul\":4182:4204   */\n      add\n        /* \"#utility.yul\":4161:4214   */\n      tag_208\n      jump\t// in\n    tag_262:\n        /* \"#utility.yul\":4151:4214   */\n      swap3\n      pop\n        /* \"#utility.yul\":4107:4224   */\n      pop\n        /* \"#utility.yul\":4263:4265   */\n      0x20\n        /* \"#utility.yul\":4289:4339   */\n      tag_263\n        /* \"#utility.yul\":4331:4338   */\n      dup6\n        /* \"#utility.yul\":4322:4328   */\n      dup3\n        /* \"#utility.yul\":4311:4320   */\n      dup7\n        /* \"#utility.yul\":4307:4329   */\n      add\n        /* \"#utility.yul\":4289:4339   */\n      tag_212\n      jump\t// in\n    tag_263:\n        /* \"#utility.yul\":4279:4339   */\n      swap2\n      pop\n        /* \"#utility.yul\":4234:4349   */\n      pop\n        /* \"#utility.yul\":3888:4356   */\n      swap3\n      pop\n      swap3\n      swap1\n      pop\n      jump\t// out\n        /* \"#utility.yul\":4362:4836   */\n    tag_30:\n        /* \"#utility.yul\":4430:4436   */\n      0x00\n        /* \"#utility.yul\":4438:4444   */\n      dup1\n        /* \"#utility.yul\":4487:4489   */\n      0x40\n        /* \"#utility.yul\":4475:4484   */\n      dup4\n        /* \"#utility.yul\":4466:4473   */\n      dup6\n        /* \"#utility.yul\":4462:4485   */\n      sub\n        /* \"#utility.yul\":4458:4490   */\n      slt\n        /* \"#utility.yul\":4455:4574   */\n      iszero\n      tag_265\n      jumpi\n        /* \"#utility.yul\":4493:4572   */\n      tag_266\n      tag_236\n      jump\t// in\n    tag_266:\n        /* \"#utility.yul\":4455:4574   */\n    tag_265:\n        /* \"#utility.yul\":4613:4614   */\n      0x00\n        /* \"#utility.yul\":4638:4691   */\n      tag_267\n        /* \"#utility.yul\":4683:4690   */\n      dup6\n        /* \"#utility.yul\":4674:4680   */\n      dup3\n        /* \"#utility.yul\":4663:4672   */\n      dup7\n        /* \"#utility.yul\":4659:4681   */\n      add\n        /* \"#utility.yul\":4638:4691   */\n      tag_208\n      jump\t// in\n    tag_267:\n        /* \"#utility.yul\":4628:4691   */\n      swap3\n      pop\n        /* \"#utility.yul\":4584:4701   */\n      pop\n        /* \"#utility.yul\":4740:4742   */\n      0x20\n        /* \"#utility.yul\":4766:4819   */\n      tag_268\n        /* \"#utility.yul\":4811:4818   */\n      dup6\n        /* \"#utility.yul\":4802:4808   */\n      dup3\n        /* \"#utility.yul\":4791:4800   */\n      dup7\n        /* \"#utility.yul\":4787:4809   */\n      add\n        /* \"#utility.yul\":4766:4819   */\n      tag_229\n      jump\t// in\n    tag_268:\n        /* \"#utility.yul\":4756:4819   */\n      swap2\n      pop\n        /* \"#utility.yul\":4711:4829   */\n      pop\n        /* \"#utility.yul\":4362:4836   */\n      swap3\n      pop\n      swap3\n      swap1\n      pop\n      jump\t// out\n        /* \"#utility.yul\":4842:5639   */\n    tag_45:\n        /* \"#utility.yul\":4928:4934   */\n      0x00\n        /* \"#utility.yul\":4936:4942   */\n      dup1\n        /* \"#utility.yul\":4944:4950   */\n      0x00\n        /* \"#utility.yul\":4993:4995   */\n      0x60\n        /* \"#utility.yul\":4981:4990   */\n      dup5\n        /* \"#utility.yul\":4972:4979   */\n      dup7\n        /* \"#utility.yul\":4968:4991   */\n      sub\n        /* \"#utility.yul\":4964:4996   */\n      slt\n        /* \"#utility.yul\":4961:5080   */\n      iszero\n      tag_270\n      jumpi\n        /* \"#utility.yul\":4999:5078   */\n      tag_271\n      tag_236\n      jump\t// in\n    tag_271:\n        /* \"#utility.yul\":4961:5080   */\n    tag_270:\n        /* \"#utility.yul\":5119:5120   */\n      0x00\n        /* \"#utility.yul\":5144:5197   */\n      tag_272\n        /* \"#utility.yul\":5189:5196   */\n      dup7\n        /* \"#utility.yul\":5180:5186   */\n      dup3\n        /* \"#utility.yul\":5169:5178   */\n      dup8\n        /* \"#utility.yul\":5165:5187   */\n      add\n        /* \"#utility.yul\":5144:5197   */\n      tag_208\n      jump\t// in\n    tag_272:\n        /* \"#utility.yul\":5134:5197   */\n      swap4\n      pop\n        /* \"#utility.yul\":5090:5207   */\n      pop\n        /* \"#utility.yul\":5246:5248   */\n      0x20\n        /* \"#utility.yul\":5272:5325   */\n      tag_273\n        /* \"#utility.yul\":5317:5324   */\n      dup7\n        /* \"#utility.yul\":5308:5314   */\n      dup3\n        /* \"#utility.yul\":5297:5306   */\n      dup8\n        /* \"#utility.yul\":5293:5315   */\n      add\n        /* \"#utility.yul\":5272:5325   */\n      tag_229\n      jump\t// in\n    tag_273:\n        /* \"#utility.yul\":5262:5325   */\n      swap3\n      pop\n        /* \"#utility.yul\":5217:5335   */\n      pop\n        /* \"#utility.yul\":5402:5404   */\n      0x40\n        /* \"#utility.yul\":5391:5400   */\n      dup5\n        /* \"#utility.yul\":5387:5405   */\n      add\n        /* \"#utility.yul\":5374:5406   */\n      calldataload\n        /* \"#utility.yul\":5433:5451   */\n      0xffffffffffffffff\n        /* \"#utility.yul\":5425:5431   */\n      dup2\n        /* \"#utility.yul\":5422:5452   */\n      gt\n        /* \"#utility.yul\":5419:5536   */\n      iszero\n      tag_274\n      jumpi\n        /* \"#utility.yul\":5455:5534   */\n      tag_275\n      tag_257\n      jump\t// in\n    tag_275:\n        /* \"#utility.yul\":5419:5536   */\n    tag_274:\n        /* \"#utility.yul\":5560:5622   */\n      tag_276\n        /* \"#utility.yul\":5614:5621   */\n      dup7\n        /* \"#utility.yul\":5605:5611   */\n      dup3\n        /* \"#utility.yul\":5594:5603   */\n      dup8\n        /* \"#utility.yul\":5590:5612   */\n      add\n        /* \"#utility.yul\":5560:5622   */\n      tag_223\n      jump\t// in\n    tag_276:\n        /* \"#utility.yul\":5550:5622   */\n      swap2\n      pop\n        /* \"#utility.yul\":5345:5632   */\n      pop\n        /* \"#utility.yul\":4842:5639   */\n      swap3\n      pop\n      swap3\n      pop\n      swap3\n      jump\t// out\n        /* \"#utility.yul\":5645:5972   */\n    tag_18:\n        /* \"#utility.yul\":5703:5709   */\n      0x00\n        /* \"#utility.yul\":5752:5754   */\n      0x20\n        /* \"#utility.yul\":5740:5749   */\n      dup3\n        /* \"#utility.yul\":5731:5738   */\n      dup5\n        /* \"#utility.yul\":5727:5750   */\n      sub\n        /* \"#utility.yul\":5723:5755   */\n      slt\n        /* \"#utility.yul\":5720:5839   */\n      iszero\n      tag_278\n      jumpi\n        /* \"#utility.yul\":5758:5837   */\n      tag_279\n      tag_236\n      jump\t// in\n    tag_279:\n        /* \"#utility.yul\":5720:5839   */\n    tag_278:\n        /* \"#utility.yul\":5878:5879   */\n      0x00\n        /* \"#utility.yul\":5903:5955   */\n      tag_280\n        /* \"#utility.yul\":5947:5954   */\n      dup5\n        /* \"#utility.yul\":5938:5944   */\n      dup3\n        /* \"#utility.yul\":5927:5936   */\n      dup6\n        /* \"#utility.yul\":5923:5945   */\n      add\n        /* \"#utility.yul\":5903:5955   */\n      tag_216\n      jump\t// in\n    tag_280:\n        /* \"#utility.yul\":5893:5955   */\n      swap2\n      pop\n        /* \"#utility.yul\":5849:5965   */\n      pop\n        /* \"#utility.yul\":5645:5972   */\n      swap3\n      swap2\n      pop\n      pop\n      jump\t// out\n        /* \"#utility.yul\":5978:6327   */\n    tag_175:\n        /* \"#utility.yul\":6047:6053   */\n      0x00\n        /* \"#utility.yul\":6096:6098   */\n      0x20\n        /* \"#utility.yul\":6084:6093   */\n      dup3\n        /* \"#utility.yul\":6075:6082   */\n      dup5\n        /* \"#utility.yul\":6071:6094   */\n      sub\n        /* \"#utility.yul\":6067:6099   */\n      slt\n        /* \"#utility.yul\":6064:6183   */\n      iszero\n      tag_282\n      jumpi\n        /* \"#utility.yul\":6102:6181   */\n      tag_283\n      tag_236\n      jump\t// in\n    tag_283:\n        /* \"#utility.yul\":6064:6183   */\n    tag_282:\n        /* \"#utility.yul\":6222:6223   */\n      0x00\n        /* \"#utility.yul\":6247:6310   */\n      tag_284\n        /* \"#utility.yul\":6302:6309   */\n      dup5\n        /* \"#utility.yul\":6293:6299   */\n      dup3\n        /* \"#utility.yul\":6282:6291   */\n      dup6\n        /* \"#utility.yul\":6278:6300   */\n      add\n        /* \"#utility.yul\":6247:6310   */\n      tag_220\n      jump\t// in\n    tag_284:\n        /* \"#utility.yul\":6237:6310   */\n      swap2\n      pop\n        /* \"#utility.yul\":6193:6320   */\n      pop\n        /* \"#utility.yul\":5978:6327   */\n      swap3\n      swap2\n      pop\n      pop\n      jump\t// out\n        /* \"#utility.yul\":6333:6662   */\n    tag_24:\n        /* \"#utility.yul\":6392:6398   */\n      0x00\n        /* \"#utility.yul\":6441:6443   */\n      0x20\n        /* \"#utility.yul\":6429:6438   */\n      dup3\n        /* \"#utility.yul\":6420:6427   */\n      dup5\n        /* \"#utility.yul\":6416:6439   */\n      sub\n        /* \"#utility.yul\":6412:6444   */\n      slt\n        /* \"#utility.yul\":6409:6528   */\n      iszero\n      tag_286\n      jumpi\n        /* \"#utility.yul\":6447:6526   */\n      tag_287\n      tag_236\n      jump\t// in\n    tag_287:\n        /* \"#utility.yul\":6409:6528   */\n    tag_286:\n        /* \"#utility.yul\":6567:6568   */\n      0x00\n        /* \"#utility.yul\":6592:6645   */\n      tag_288\n        /* \"#utility.yul\":6637:6644   */\n      dup5\n        /* \"#utility.yul\":6628:6634   */\n      dup3\n        /* \"#utility.yul\":6617:6626   */\n      dup6\n        /* \"#utility.yul\":6613:6635   */\n      add\n        /* \"#utility.yul\":6592:6645   */\n      tag_229\n      jump\t// in\n    tag_288:\n        /* \"#utility.yul\":6582:6645   */\n      swap2\n      pop\n        /* \"#utility.yul\":6538:6655   */\n      pop\n        /* \"#utility.yul\":6333:6662   */\n      swap3\n      swap2\n      pop\n      pop\n      jump\t// out\n        /* \"#utility.yul\":6668:6786   */\n    tag_289:\n        /* \"#utility.yul\":6755:6779   */\n      tag_291\n        /* \"#utility.yul\":6773:6778   */\n      dup2\n        /* \"#utility.yul\":6755:6779   */\n      tag_292\n      jump\t// in\n    tag_291:\n        /* \"#utility.yul\":6750:6753   */\n      dup3\n        /* \"#utility.yul\":6743:6780   */\n      mstore\n        /* \"#utility.yul\":6668:6786   */\n      pop\n      pop\n      jump\t// out\n        /* \"#utility.yul\":6792:6901   */\n    tag_293:\n        /* \"#utility.yul\":6873:6894   */\n      tag_295\n        /* \"#utility.yul\":6888:6893   */\n      dup2\n        /* \"#utility.yul\":6873:6894   */\n      tag_296\n      jump\t// in\n    tag_295:\n        /* \"#utility.yul\":6868:6871   */\n      dup3\n        /* \"#utility.yul\":6861:6895   */\n      mstore\n        /* \"#utility.yul\":6792:6901   */\n      pop\n      pop\n      jump\t// out\n        /* \"#utility.yul\":6907:7267   */\n    tag_297:\n        /* \"#utility.yul\":6993:6996   */\n      0x00\n        /* \"#utility.yul\":7021:7059   */\n      tag_299\n        /* \"#utility.yul\":7053:7058   */\n      dup3\n        /* \"#utility.yul\":7021:7059   */\n      tag_300\n      jump\t// in\n    tag_299:\n        /* \"#utility.yul\":7075:7145   */\n      tag_301\n        /* \"#utility.yul\":7138:7144   */\n      dup2\n        /* \"#utility.yul\":7133:7136   */\n      dup6\n        /* \"#utility.yul\":7075:7145   */\n      tag_302\n      jump\t// in\n    tag_301:\n        /* \"#utility.yul\":7068:7145   */\n      swap4\n      pop\n        /* \"#utility.yul\":7154:7206   */\n      tag_303\n        /* \"#utility.yul\":7199:7205   */\n      dup2\n        /* \"#utility.yul\":7194:7197   */\n      dup6\n        /* \"#utility.yul\":7187:7191   */\n      0x20\n        /* \"#utility.yul\":7180:7185   */\n      dup7\n        /* \"#utility.yul\":7176:7192   */\n      add\n        /* \"#utility.yul\":7154:7206   */\n      tag_304\n      jump\t// in\n    tag_303:\n        /* \"#utility.yul\":7231:7260   */\n      tag_305\n        /* \"#utility.yul\":7253:7259   */\n      dup2\n        /* \"#utility.yul\":7231:7260   */\n      tag_306\n      jump\t// in\n    tag_305:\n        /* \"#utility.yul\":7226:7229   */\n      dup5\n        /* \"#utility.yul\":7222:7261   */\n      add\n        /* \"#utility.yul\":7215:7261   */\n      swap2\n      pop\n        /* \"#utility.yul\":6997:7267   */\n      pop\n        /* \"#utility.yul\":6907:7267   */\n      swap3\n      swap2\n      pop\n      pop\n      jump\t// out\n        /* \"#utility.yul\":7273:7639   */\n    tag_307:\n        /* \"#utility.yul\":7415:7418   */\n      0x00\n        /* \"#utility.yul\":7436:7503   */\n      tag_309\n        /* \"#utility.yul\":7500:7502   */\n      0x20\n        /* \"#utility.yul\":7495:7498   */\n      dup4\n        /* \"#utility.yul\":7436:7503   */\n      tag_310\n      jump\t// in\n    tag_309:\n        /* \"#utility.yul\":7429:7503   */\n      swap2\n      pop\n        /* \"#utility.yul\":7512:7605   */\n      tag_311\n        /* \"#utility.yul\":7601:7604   */\n      dup3\n        /* \"#utility.yul\":7512:7605   */\n      tag_312\n      jump\t// in\n    tag_311:\n        /* \"#utility.yul\":7630:7632   */\n      0x20\n        /* \"#utility.yul\":7625:7628   */\n      dup3\n        /* \"#utility.yul\":7621:7633   */\n      add\n        /* \"#utility.yul\":7614:7633   */\n      swap1\n      pop\n        /* \"#utility.yul\":7273:7639   */\n      swap2\n      swap1\n      pop\n      jump\t// out\n        /* \"#utility.yul\":7645:8011   */\n    tag_313:\n        /* \"#utility.yul\":7787:7790   */\n      0x00\n        /* \"#utility.yul\":7808:7875   */\n      tag_315\n        /* \"#utility.yul\":7872:7874   */\n      0x32\n        /* \"#utility.yul\":7867:7870   */\n      dup4\n        /* \"#utility.yul\":7808:7875   */\n      tag_310\n      jump\t// in\n    tag_315:\n        /* \"#utility.yul\":7801:7875   */\n      swap2\n      pop\n        /* \"#utility.yul\":7884:7977   */\n      tag_316\n        /* \"#utility.yul\":7973:7976   */\n      dup3\n        /* \"#utility.yul\":7884:7977   */\n      tag_317\n      jump\t// in\n    tag_316:\n        /* \"#utility.yul\":8002:8004   */\n      0x40\n        /* \"#utility.yul\":7997:8000   */\n      dup3\n        /* \"#utility.yul\":7993:8005   */\n      add\n        /* \"#utility.yul\":7986:8005   */\n      swap1\n      pop\n        /* \"#utility.yul\":7645:8011   */\n      swap2\n      swap1\n      pop\n      jump\t// out\n        /* \"#utility.yul\":8017:8383   */\n    tag_318:\n        /* \"#utility.yul\":8159:8162   */\n      0x00\n        /* \"#utility.yul\":8180:8247   */\n      tag_320\n        /* \"#utility.yul\":8244:8246   */\n      0x3a\n        /* \"#utility.yul\":8239:8242   */\n      dup4\n        /* \"#utility.yul\":8180:8247   */\n      tag_310\n      jump\t// in\n    tag_320:\n        /* \"#utility.yul\":8173:8247   */\n      swap2\n      pop\n        /* \"#utility.yul\":8256:8349   */\n      tag_321\n        /* \"#utility.yul\":8345:8348   */\n      dup3\n        /* \"#utility.yul\":8256:8349   */\n      tag_322\n      jump\t// in\n    tag_321:\n        /* \"#utility.yul\":8374:8376   */\n      0x40\n        /* \"#utility.yul\":8369:8372   */\n      dup3\n        /* \"#utility.yul\":8365:8377   */\n      add\n        /* \"#utility.yul\":8358:8377   */\n      swap1\n      pop\n        /* \"#utility.yul\":8017:8383   */\n      swap2\n      swap1\n      pop\n      jump\t// out\n        /* \"#utility.yul\":8389:8755   */\n    tag_323:\n        /* \"#utility.yul\":8531:8534   */\n      0x00\n        /* \"#utility.yul\":8552:8619   */\n      tag_325\n        /* \"#utility.yul\":8616:8618   */\n      0x2a\n        /* \"#utility.yul\":8611:8614   */\n      dup4\n        /* \"#utility.yul\":8552:8619   */\n      tag_310\n      jump\t// in\n    tag_325:\n        /* \"#utility.yul\":8545:8619   */\n      swap2\n      pop\n        /* \"#utility.yul\":8628:8721   */\n      tag_326\n        /* \"#utility.yul\":8717:8720   */\n      dup3\n        /* \"#utility.yul\":8628:8721   */\n      tag_327\n      jump\t// in\n    tag_326:\n        /* \"#utility.yul\":8746:8748   */\n      0x40\n        /* \"#utility.yul\":8741:8744   */\n      dup3\n        /* \"#utility.yul\":8737:8749   */\n      add\n        /* \"#utility.yul\":8730:8749   */\n      swap1\n      pop\n        /* \"#utility.yul\":8389:8755   */\n      swap2\n      swap1\n      pop\n      jump\t// out\n        /* \"#utility.yul\":8761:9127   */\n    tag_328:\n        /* \"#utility.yul\":8903:8906   */\n      0x00\n        /* \"#utility.yul\":8924:8991   */\n      tag_330\n        /* \"#utility.yul\":8988:8990   */\n      0x21\n        /* \"#utility.yul\":8983:8986   */\n      dup4\n        /* \"#utility.yul\":8924:8991   */\n      tag_310\n      jump\t// in\n    tag_330:\n        /* \"#utility.yul\":8917:8991   */\n      swap2\n      pop\n        /* \"#utility.yul\":9000:9093   */\n      tag_331\n        /* \"#utility.yul\":9089:9092   */\n      dup3\n        /* \"#utility.yul\":9000:9093   */\n      tag_332\n      jump\t// in\n    tag_331:\n        /* \"#utility.yul\":9118:9120   */\n      0x40\n        /* \"#utility.yul\":9113:9116   */\n      dup3\n        /* \"#utility.yul\":9109:9121   */\n      add\n        /* \"#utility.yul\":9102:9121   */\n      swap1\n      pop\n        /* \"#utility.yul\":8761:9127   */\n      swap2\n      swap1\n      pop\n      jump\t// out\n        /* \"#utility.yul\":9133:9499   */\n    tag_333:\n        /* \"#utility.yul\":9275:9278   */\n      0x00\n        /* \"#utility.yul\":9296:9363   */\n      tag_335\n        /* \"#utility.yul\":9360:9362   */\n      0x44\n        /* \"#utility.yul\":9355:9358   */\n      dup4\n        /* \"#utility.yul\":9296:9363   */\n      tag_310\n      jump\t// in\n    tag_335:\n        /* \"#utility.yul\":9289:9363   */\n      swap2\n      pop\n        /* \"#utility.yul\":9372:9465   */\n      tag_336\n        /* \"#utility.yul\":9461:9464   */\n      dup3\n        /* \"#utility.yul\":9372:9465   */\n      tag_337\n      jump\t// in\n    tag_336:\n        /* \"#utility.yul\":9490:9492   */\n      0x60\n        /* \"#utility.yul\":9485:9488   */\n      dup3\n        /* \"#utility.yul\":9481:9493   */\n      add\n        /* \"#utility.yul\":9474:9493   */\n      swap1\n      pop\n        /* \"#utility.yul\":9133:9499   */\n      swap2\n      swap1\n      pop\n      jump\t// out\n        /* \"#utility.yul\":9505:9871   */\n    tag_338:\n        /* \"#utility.yul\":9647:9650   */\n      0x00\n        /* \"#utility.yul\":9668:9735   */\n      tag_340\n        /* \"#utility.yul\":9732:9734   */\n      0x3e\n        /* \"#utility.yul\":9727:9730   */\n      dup4\n        /* \"#utility.yul\":9668:9735   */\n      tag_310\n      jump\t// in\n    tag_340:\n        /* \"#utility.yul\":9661:9735   */\n      swap2\n      pop\n        /* \"#utility.yul\":9744:9837   */\n      tag_341\n        /* \"#utility.yul\":9833:9836   */\n      dup3\n        /* \"#utility.yul\":9744:9837   */\n      tag_342\n      jump\t// in\n    tag_341:\n        /* \"#utility.yul\":9862:9864   */\n      0x40\n        /* \"#utility.yul\":9857:9860   */\n      dup3\n        /* \"#utility.yul\":9853:9865   */\n      add\n        /* \"#utility.yul\":9846:9865   */\n      swap1\n      pop\n        /* \"#utility.yul\":9505:9871   */\n      swap2\n      swap1\n      pop\n      jump\t// out\n        /* \"#utility.yul\":9877:10243   */\n    tag_343:\n        /* \"#utility.yul\":10019:10022   */\n      0x00\n        /* \"#utility.yul\":10040:10107   */\n      tag_345\n        /* \"#utility.yul\":10104:10106   */\n      0x30\n        /* \"#utility.yul\":10099:10102   */\n      dup4\n        /* \"#utility.yul\":10040:10107   */\n      tag_310\n      jump\t// in\n    tag_345:\n        /* \"#utility.yul\":10033:10107   */\n      swap2\n      pop\n        /* \"#utility.yul\":10116:10209   */\n      tag_346\n        /* \"#utility.yul\":10205:10208   */\n      dup3\n        /* \"#utility.yul\":10116:10209   */\n      tag_347\n      jump\t// in\n    tag_346:\n        /* \"#utility.yul\":10234:10236   */\n      0x40\n        /* \"#utility.yul\":10229:10232   */\n      dup3\n        /* \"#utility.yul\":10225:10237   */\n      add\n        /* \"#utility.yul\":10218:10237   */\n      swap1\n      pop\n        /* \"#utility.yul\":9877:10243   */\n      swap2\n      swap1\n      pop\n      jump\t// out\n        /* \"#utility.yul\":10249:10615   */\n    tag_348:\n        /* \"#utility.yul\":10391:10394   */\n      0x00\n        /* \"#utility.yul\":10412:10479   */\n      tag_350\n        /* \"#utility.yul\":10476:10478   */\n      0x1b\n        /* \"#utility.yul\":10471:10474   */\n      dup4\n        /* \"#utility.yul\":10412:10479   */\n      tag_310\n      jump\t// in\n    tag_350:\n        /* \"#utility.yul\":10405:10479   */\n      swap2\n      pop\n        /* \"#utility.yul\":10488:10581   */\n      tag_351\n        /* \"#utility.yul\":10577:10580   */\n      dup3\n        /* \"#utility.yul\":10488:10581   */\n      tag_352\n      jump\t// in\n    tag_351:\n        /* \"#utility.yul\":10606:10608   */\n      0x20\n        /* \"#utility.yul\":10601:10604   */\n      dup3\n        /* \"#utility.yul\":10597:10609   */\n      add\n        /* \"#utility.yul\":10590:10609   */\n      swap1\n      pop\n        /* \"#utility.yul\":10249:10615   */\n      swap2\n      swap1\n      pop\n      jump\t// out\n        /* \"#utility.yul\":10621:10987   */\n    tag_353:\n        /* \"#utility.yul\":10763:10766   */\n      0x00\n        /* \"#utility.yul\":10784:10851   */\n      tag_355\n        /* \"#utility.yul\":10848:10850   */\n      0x3d\n        /* \"#utility.yul\":10843:10846   */\n      dup4\n        /* \"#utility.yul\":10784:10851   */\n      tag_310\n      jump\t// in\n    tag_355:\n        /* \"#utility.yul\":10777:10851   */\n      swap2\n      pop\n        /* \"#utility.yul\":10860:10953   */\n      tag_356\n        /* \"#utility.yul\":10949:10952   */\n      dup3\n        /* \"#utility.yul\":10860:10953   */\n      tag_357\n      jump\t// in\n    tag_356:\n        /* \"#utility.yul\":10978:10980   */\n      0x40\n        /* \"#utility.yul\":10973:10976   */\n      dup3\n        /* \"#utility.yul\":10969:10981   */\n      add\n        /* \"#utility.yul\":10962:10981   */\n      swap1\n      pop\n        /* \"#utility.yul\":10621:10987   */\n      swap2\n      swap1\n      pop\n      jump\t// out\n        /* \"#utility.yul\":10993:11357   */\n    tag_358:\n        /* \"#utility.yul\":11135:11138   */\n      0x00\n        /* \"#utility.yul\":11156:11222   */\n      tag_360\n        /* \"#utility.yul\":11220:11221   */\n      0x00\n        /* \"#utility.yul\":11215:11218   */\n      dup4\n        /* \"#utility.yul\":11156:11222   */\n      tag_310\n      jump\t// in\n    tag_360:\n        /* \"#utility.yul\":11149:11222   */\n      swap2\n      pop\n        /* \"#utility.yul\":11231:11324   */\n      tag_361\n        /* \"#utility.yul\":11320:11323   */\n      dup3\n        /* \"#utility.yul\":11231:11324   */\n      tag_362\n      jump\t// in\n    tag_361:\n        /* \"#utility.yul\":11349:11350   */\n      0x00\n        /* \"#utility.yul\":11344:11347   */\n      dup3\n        /* \"#utility.yul\":11340:11351   */\n      add\n        /* \"#utility.yul\":11333:11351   */\n      swap1\n      pop\n        /* \"#utility.yul\":10993:11357   */\n      swap2\n      swap1\n      pop\n      jump\t// out\n        /* \"#utility.yul\":11363:11729   */\n    tag_363:\n        /* \"#utility.yul\":11505:11508   */\n      0x00\n        /* \"#utility.yul\":11526:11593   */\n      tag_365\n        /* \"#utility.yul\":11590:11592   */\n      0x21\n        /* \"#utility.yul\":11585:11588   */\n      dup4\n        /* \"#utility.yul\":11526:11593   */\n      tag_310\n      jump\t// in\n    tag_365:\n        /* \"#utility.yul\":11519:11593   */\n      swap2\n      pop\n        /* \"#utility.yul\":11602:11695   */\n      tag_366\n        /* \"#utility.yul\":11691:11694   */\n      dup3\n        /* \"#utility.yul\":11602:11695   */\n      tag_367\n      jump\t// in\n    tag_366:\n        /* \"#utility.yul\":11720:11722   */\n      0x40\n        /* \"#utility.yul\":11715:11718   */\n      dup3\n        /* \"#utility.yul\":11711:11723   */\n      add\n        /* \"#utility.yul\":11704:11723   */\n      swap1\n      pop\n        /* \"#utility.yul\":11363:11729   */\n      swap2\n      swap1\n      pop\n      jump\t// out\n        /* \"#utility.yul\":11735:12101   */\n    tag_368:\n        /* \"#utility.yul\":11877:11880   */\n      0x00\n        /* \"#utility.yul\":11898:11965   */\n      tag_370\n        /* \"#utility.yul\":11962:11964   */\n      0x20\n        /* \"#utility.yul\":11957:11960   */\n      dup4\n        /* \"#utility.yul\":11898:11965   */\n      tag_310\n      jump\t// in\n    tag_370:\n        /* \"#utility.yul\":11891:11965   */\n      swap2\n      pop\n        /* \"#utility.yul\":11974:12067   */\n      tag_371\n        /* \"#utility.yul\":12063:12066   */\n      dup3\n        /* \"#utility.yul\":11974:12067   */\n      tag_372\n      jump\t// in\n    tag_371:\n        /* \"#utility.yul\":12092:12094   */\n      0x20\n        /* \"#utility.yul\":12087:12090   */\n      dup3\n        /* \"#utility.yul\":12083:12095   */\n      add\n        /* \"#utility.yul\":12076:12095   */\n      swap1\n      pop\n        /* \"#utility.yul\":11735:12101   */\n      swap2\n      swap1\n      pop\n      jump\t// out\n        /* \"#utility.yul\":12107:12225   */\n    tag_373:\n        /* \"#utility.yul\":12194:12218   */\n      tag_375\n        /* \"#utility.yul\":12212:12217   */\n      dup2\n        /* \"#utility.yul\":12194:12218   */\n      tag_376\n      jump\t// in\n    tag_375:\n        /* \"#utility.yul\":12189:12192   */\n      dup3\n        /* \"#utility.yul\":12182:12219   */\n      mstore\n        /* \"#utility.yul\":12107:12225   */\n      pop\n      pop\n      jump\t// out\n        /* \"#utility.yul\":12231:12453   */\n    tag_27:\n        /* \"#utility.yul\":12324:12328   */\n      0x00\n        /* \"#utility.yul\":12362:12364   */\n      0x20\n        /* \"#utility.yul\":12351:12360   */\n      dup3\n        /* \"#utility.yul\":12347:12365   */\n      add\n        /* \"#utility.yul\":12339:12365   */\n      swap1\n      pop\n        /* \"#utility.yul\":12375:12446   */\n      tag_378\n        /* \"#utility.yul\":12443:12444   */\n      0x00\n        /* \"#utility.yul\":12432:12441   */\n      dup4\n        /* \"#utility.yul\":12428:12445   */\n      add\n        /* \"#utility.yul\":12419:12425   */\n      dup5\n        /* \"#utility.yul\":12375:12446   */\n      tag_289\n      jump\t// in\n    tag_378:\n        /* \"#utility.yul\":12231:12453   */\n      swap3\n      swap2\n      pop\n      pop\n      jump\t// out\n        /* \"#utility.yul\":12459:13099   */\n    tag_171:\n        /* \"#utility.yul\":12654:12658   */\n      0x00\n        /* \"#utility.yul\":12692:12695   */\n      0x80\n        /* \"#utility.yul\":12681:12690   */\n      dup3\n        /* \"#utility.yul\":12677:12696   */\n      add\n        /* \"#utility.yul\":12669:12696   */\n      swap1\n      pop\n        /* \"#utility.yul\":12706:12777   */\n      tag_380\n        /* \"#utility.yul\":12774:12775   */\n      0x00\n        /* \"#utility.yul\":12763:12772   */\n      dup4\n        /* \"#utility.yul\":12759:12776   */\n      add\n        /* \"#utility.yul\":12750:12756   */\n      dup8\n        /* \"#utility.yul\":12706:12777   */\n      tag_289\n      jump\t// in\n    tag_380:\n        /* \"#utility.yul\":12787:12859   */\n      tag_381\n        /* \"#utility.yul\":12855:12857   */\n      0x20\n        /* \"#utility.yul\":12844:12853   */\n      dup4\n        /* \"#utility.yul\":12840:12858   */\n      add\n        /* \"#utility.yul\":12831:12837   */\n      dup7\n        /* \"#utility.yul\":12787:12859   */\n      tag_289\n      jump\t// in\n    tag_381:\n        /* \"#utility.yul\":12869:12941   */\n      tag_382\n        /* \"#utility.yul\":12937:12939   */\n      0x40\n        /* \"#utility.yul\":12926:12935   */\n      dup4\n        /* \"#utility.yul\":12922:12940   */\n      add\n        /* \"#utility.yul\":12913:12919   */\n      dup6\n        /* \"#utility.yul\":12869:12941   */\n      tag_373\n      jump\t// in\n    tag_382:\n        /* \"#utility.yul\":12988:12997   */\n      dup2\n        /* \"#utility.yul\":12982:12986   */\n      dup2\n        /* \"#utility.yul\":12978:12998   */\n      sub\n        /* \"#utility.yul\":12973:12975   */\n      0x60\n        /* \"#utility.yul\":12962:12971   */\n      dup4\n        /* \"#utility.yul\":12958:12976   */\n      add\n        /* \"#utility.yul\":12951:12999   */\n      mstore\n        /* \"#utility.yul\":13016:13092   */\n      tag_383\n        /* \"#utility.yul\":13087:13091   */\n      dup2\n        /* \"#utility.yul\":13078:13084   */\n      dup5\n        /* \"#utility.yul\":13016:13092   */\n      tag_297\n      jump\t// in\n    tag_383:\n        /* \"#utility.yul\":13008:13092   */\n      swap1\n      pop\n        /* \"#utility.yul\":12459:13099   */\n      swap6\n      swap5\n      pop\n      pop\n      pop\n      pop\n      pop\n      jump\t// out\n        /* \"#utility.yul\":13105:13315   */\n    tag_21:\n        /* \"#utility.yul\":13192:13196   */\n      0x00\n        /* \"#utility.yul\":13230:13232   */\n      0x20\n        /* \"#utility.yul\":13219:13228   */\n      dup3\n        /* \"#utility.yul\":13215:13233   */\n      add\n        /* \"#utility.yul\":13207:13233   */\n      swap1\n      pop\n        /* \"#utility.yul\":13243:13308   */\n      tag_385\n        /* \"#utility.yul\":13305:13306   */\n      0x00\n        /* \"#utility.yul\":13294:13303   */\n      dup4\n        /* \"#utility.yul\":13290:13307   */\n      add\n        /* \"#utility.yul\":13281:13287   */\n      dup5\n        /* \"#utility.yul\":13243:13308   */\n      tag_293\n      jump\t// in\n    tag_385:\n        /* \"#utility.yul\":13105:13315   */\n      swap3\n      swap2\n      pop\n      pop\n      jump\t// out\n        /* \"#utility.yul\":13321:13740   */\n    tag_78:\n        /* \"#utility.yul\":13487:13491   */\n      0x00\n        /* \"#utility.yul\":13525:13527   */\n      0x20\n        /* \"#utility.yul\":13514:13523   */\n      dup3\n        /* \"#utility.yul\":13510:13528   */\n      add\n        /* \"#utility.yul\":13502:13528   */\n      swap1\n      pop\n        /* \"#utility.yul\":13574:13583   */\n      dup2\n        /* \"#utility.yul\":13568:13572   */\n      dup2\n        /* \"#utility.yul\":13564:13584   */\n      sub\n        /* \"#utility.yul\":13560:13561   */\n      0x00\n        /* \"#utility.yul\":13549:13558   */\n      dup4\n        /* \"#utility.yul\":13545:13562   */\n      add\n        /* \"#utility.yul\":13538:13585   */\n      mstore\n        /* \"#utility.yul\":13602:13733   */\n      tag_387\n        /* \"#utility.yul\":13728:13732   */\n      dup2\n        /* \"#utility.yul\":13602:13733   */\n      tag_307\n      jump\t// in\n    tag_387:\n        /* \"#utility.yul\":13594:13733   */\n      swap1\n      pop\n        /* \"#utility.yul\":13321:13740   */\n      swap2\n      swap1\n      pop\n      jump\t// out\n        /* \"#utility.yul\":13746:14165   */\n    tag_120:\n        /* \"#utility.yul\":13912:13916   */\n      0x00\n        /* \"#utility.yul\":13950:13952   */\n      0x20\n        /* \"#utility.yul\":13939:13948   */\n      dup3\n        /* \"#utility.yul\":13935:13953   */\n      add\n        /* \"#utility.yul\":13927:13953   */\n      swap1\n      pop\n        /* \"#utility.yul\":13999:14008   */\n      dup2\n        /* \"#utility.yul\":13993:13997   */\n      dup2\n        /* \"#utility.yul\":13989:14009   */\n      sub\n        /* \"#utility.yul\":13985:13986   */\n      0x00\n        /* \"#utility.yul\":13974:13983   */\n      dup4\n        /* \"#utility.yul\":13970:13987   */\n      add\n        /* \"#utility.yul\":13963:14010   */\n      mstore\n        /* \"#utility.yul\":14027:14158   */\n      tag_389\n        /* \"#utility.yul\":14153:14157   */\n      dup2\n        /* \"#utility.yul\":14027:14158   */\n      tag_313\n      jump\t// in\n    tag_389:\n        /* \"#utility.yul\":14019:14158   */\n      swap1\n      pop\n        /* \"#utility.yul\":13746:14165   */\n      swap2\n      swap1\n      pop\n      jump\t// out\n        /* \"#utility.yul\":14171:14590   */\n    tag_88:\n        /* \"#utility.yul\":14337:14341   */\n      0x00\n        /* \"#utility.yul\":14375:14377   */\n      0x20\n        /* \"#utility.yul\":14364:14373   */\n      dup3\n        /* \"#utility.yul\":14360:14378   */\n      add\n        /* \"#utility.yul\":14352:14378   */\n      swap1\n      pop\n        /* \"#utility.yul\":14424:14433   */\n      dup2\n        /* \"#utility.yul\":14418:14422   */\n      dup2\n        /* \"#utility.yul\":14414:14434   */\n      sub\n        /* \"#utility.yul\":14410:14411   */\n      0x00\n        /* \"#utility.yul\":14399:14408   */\n      dup4\n        /* \"#utility.yul\":14395:14412   */\n      add\n        /* \"#utility.yul\":14388:14435   */\n      mstore\n        /* \"#utility.yul\":14452:14583   */\n      tag_391\n        /* \"#utility.yul\":14578:14582   */\n      dup2\n        /* \"#utility.yul\":14452:14583   */\n      tag_318\n      jump\t// in\n    tag_391:\n        /* \"#utility.yul\":14444:14583   */\n      swap1\n      pop\n        /* \"#utility.yul\":14171:14590   */\n      swap2\n      swap1\n      pop\n      jump\t// out\n        /* \"#utility.yul\":14596:15015   */\n    tag_162:\n        /* \"#utility.yul\":14762:14766   */\n      0x00\n        /* \"#utility.yul\":14800:14802   */\n      0x20\n        /* \"#utility.yul\":14789:14798   */\n      dup3\n        /* \"#utility.yul\":14785:14803   */\n      add\n        /* \"#utility.yul\":14777:14803   */\n      swap1\n      pop\n        /* \"#utility.yul\":14849:14858   */\n      dup2\n        /* \"#utility.yul\":14843:14847   */\n      dup2\n        /* \"#utility.yul\":14839:14859   */\n      sub\n        /* \"#utility.yul\":14835:14836   */\n      0x00\n        /* \"#utility.yul\":14824:14833   */\n      dup4\n        /* \"#utility.yul\":14820:14837   */\n      add\n        /* \"#utility.yul\":14813:14860   */\n      mstore\n        /* \"#utility.yul\":14877:15008   */\n      tag_393\n        /* \"#utility.yul\":15003:15007   */\n      dup2\n        /* \"#utility.yul\":14877:15008   */\n      tag_323\n      jump\t// in\n    tag_393:\n        /* \"#utility.yul\":14869:15008   */\n      swap1\n      pop\n        /* \"#utility.yul\":14596:15015   */\n      swap2\n      swap1\n      pop\n      jump\t// out\n        /* \"#utility.yul\":15021:15440   */\n    tag_149:\n        /* \"#utility.yul\":15187:15191   */\n      0x00\n        /* \"#utility.yul\":15225:15227   */\n      0x20\n        /* \"#utility.yul\":15214:15223   */\n      dup3\n        /* \"#utility.yul\":15210:15228   */\n      add\n        /* \"#utility.yul\":15202:15228   */\n      swap1\n      pop\n        /* \"#utility.yul\":15274:15283   */\n      dup2\n        /* \"#utility.yul\":15268:15272   */\n      dup2\n        /* \"#utility.yul\":15264:15284   */\n      sub\n        /* \"#utility.yul\":15260:15261   */\n      0x00\n        /* \"#utility.yul\":15249:15258   */\n      dup4\n        /* \"#utility.yul\":15245:15262   */\n      add\n        /* \"#utility.yul\":15238:15285   */\n      mstore\n        /* \"#utility.yul\":15302:15433   */\n      tag_395\n        /* \"#utility.yul\":15428:15432   */\n      dup2\n        /* \"#utility.yul\":15302:15433   */\n      tag_328\n      jump\t// in\n    tag_395:\n        /* \"#utility.yul\":15294:15433   */\n      swap1\n      pop\n        /* \"#utility.yul\":15021:15440   */\n      swap2\n      swap1\n      pop\n      jump\t// out\n        /* \"#utility.yul\":15446:15865   */\n    tag_83:\n        /* \"#utility.yul\":15612:15616   */\n      0x00\n        /* \"#utility.yul\":15650:15652   */\n      0x20\n        /* \"#utility.yul\":15639:15648   */\n      dup3\n        /* \"#utility.yul\":15635:15653   */\n      add\n        /* \"#utility.yul\":15627:15653   */\n      swap1\n      pop\n        /* \"#utility.yul\":15699:15708   */\n      dup2\n        /* \"#utility.yul\":15693:15697   */\n      dup2\n        /* \"#utility.yul\":15689:15709   */\n      sub\n        /* \"#utility.yul\":15685:15686   */\n      0x00\n        /* \"#utility.yul\":15674:15683   */\n      dup4\n        /* \"#utility.yul\":15670:15687   */\n      add\n        /* \"#utility.yul\":15663:15710   */\n      mstore\n        /* \"#utility.yul\":15727:15858   */\n      tag_397\n        /* \"#utility.yul\":15853:15857   */\n      dup2\n        /* \"#utility.yul\":15727:15858   */\n      tag_333\n      jump\t// in\n    tag_397:\n        /* \"#utility.yul\":15719:15858   */\n      swap1\n      pop\n        /* \"#utility.yul\":15446:15865   */\n      swap2\n      swap1\n      pop\n      jump\t// out\n        /* \"#utility.yul\":15871:16290   */\n    tag_112:\n        /* \"#utility.yul\":16037:16041   */\n      0x00\n        /* \"#utility.yul\":16075:16077   */\n      0x20\n        /* \"#utility.yul\":16064:16073   */\n      dup3\n        /* \"#utility.yul\":16060:16078   */\n      add\n        /* \"#utility.yul\":16052:16078   */\n      swap1\n      pop\n        /* \"#utility.yul\":16124:16133   */\n      dup2\n        /* \"#utility.yul\":16118:16122   */\n      dup2\n        /* \"#utility.yul\":16114:16134   */\n      sub\n        /* \"#utility.yul\":16110:16111   */\n      0x00\n        /* \"#utility.yul\":16099:16108   */\n      dup4\n        /* \"#utility.yul\":16095:16112   */\n      add\n        /* \"#utility.yul\":16088:16135   */\n      mstore\n        /* \"#utility.yul\":16152:16283   */\n      tag_399\n        /* \"#utility.yul\":16278:16282   */\n      dup2\n        /* \"#utility.yul\":16152:16283   */\n      tag_338\n      jump\t// in\n    tag_399:\n        /* \"#utility.yul\":16144:16283   */\n      swap1\n      pop\n        /* \"#utility.yul\":15871:16290   */\n      swap2\n      swap1\n      pop\n      jump\t// out\n        /* \"#utility.yul\":16296:16715   */\n    tag_193:\n        /* \"#utility.yul\":16462:16466   */\n      0x00\n        /* \"#utility.yul\":16500:16502   */\n      0x20\n        /* \"#utility.yul\":16489:16498   */\n      dup3\n        /* \"#utility.yul\":16485:16503   */\n      add\n        /* \"#utility.yul\":16477:16503   */\n      swap1\n      pop\n        /* \"#utility.yul\":16549:16558   */\n      dup2\n        /* \"#utility.yul\":16543:16547   */\n      dup2\n        /* \"#utility.yul\":16539:16559   */\n      sub\n        /* \"#utility.yul\":16535:16536   */\n      0x00\n        /* \"#utility.yul\":16524:16533   */\n      dup4\n        /* \"#utility.yul\":16520:16537   */\n      add\n        /* \"#utility.yul\":16513:16560   */\n      mstore\n        /* \"#utility.yul\":16577:16708   */\n      tag_401\n        /* \"#utility.yul\":16703:16707   */\n      dup2\n        /* \"#utility.yul\":16577:16708   */\n      tag_343\n      jump\t// in\n    tag_401:\n        /* \"#utility.yul\":16569:16708   */\n      swap1\n      pop\n        /* \"#utility.yul\":16296:16715   */\n      swap2\n      swap1\n      pop\n      jump\t// out\n        /* \"#utility.yul\":16721:17140   */\n    tag_116:\n        /* \"#utility.yul\":16887:16891   */\n      0x00\n        /* \"#utility.yul\":16925:16927   */\n      0x20\n        /* \"#utility.yul\":16914:16923   */\n      dup3\n        /* \"#utility.yul\":16910:16928   */\n      add\n        /* \"#utility.yul\":16902:16928   */\n      swap1\n      pop\n        /* \"#utility.yul\":16974:16983   */\n      dup2\n        /* \"#utility.yul\":16968:16972   */\n      dup2\n        /* \"#utility.yul\":16964:16984   */\n      sub\n        /* \"#utility.yul\":16960:16961   */\n      0x00\n        /* \"#utility.yul\":16949:16958   */\n      dup4\n        /* \"#utility.yul\":16945:16962   */\n      add\n        /* \"#utility.yul\":16938:16985   */\n      mstore\n        /* \"#utility.yul\":17002:17133   */\n      tag_403\n        /* \"#utility.yul\":17128:17132   */\n      dup2\n        /* \"#utility.yul\":17002:17133   */\n      tag_348\n      jump\t// in\n    tag_403:\n        /* \"#utility.yul\":16994:17133   */\n      swap1\n      pop\n        /* \"#utility.yul\":16721:17140   */\n      swap2\n      swap1\n      pop\n      jump\t// out\n        /* \"#utility.yul\":17146:17565   */\n    tag_184:\n        /* \"#utility.yul\":17312:17316   */\n      0x00\n        /* \"#utility.yul\":17350:17352   */\n      0x20\n        /* \"#utility.yul\":17339:17348   */\n      dup3\n        /* \"#utility.yul\":17335:17353   */\n      add\n        /* \"#utility.yul\":17327:17353   */\n      swap1\n      pop\n        /* \"#utility.yul\":17399:17408   */\n      dup2\n        /* \"#utility.yul\":17393:17397   */\n      dup2\n        /* \"#utility.yul\":17389:17409   */\n      sub\n        /* \"#utility.yul\":17385:17386   */\n      0x00\n        /* \"#utility.yul\":17374:17383   */\n      dup4\n        /* \"#utility.yul\":17370:17387   */\n      add\n        /* \"#utility.yul\":17363:17410   */\n      mstore\n        /* \"#utility.yul\":17427:17558   */\n      tag_405\n        /* \"#utility.yul\":17553:17557   */\n      dup2\n        /* \"#utility.yul\":17427:17558   */\n      tag_353\n      jump\t// in\n    tag_405:\n        /* \"#utility.yul\":17419:17558   */\n      swap1\n      pop\n        /* \"#utility.yul\":17146:17565   */\n      swap2\n      swap1\n      pop\n      jump\t// out\n        /* \"#utility.yul\":17571:17990   */\n    tag_96:\n        /* \"#utility.yul\":17737:17741   */\n      0x00\n        /* \"#utility.yul\":17775:17777   */\n      0x20\n        /* \"#utility.yul\":17764:17773   */\n      dup3\n        /* \"#utility.yul\":17760:17778   */\n      add\n        /* \"#utility.yul\":17752:17778   */\n      swap1\n      pop\n        /* \"#utility.yul\":17824:17833   */\n      dup2\n        /* \"#utility.yul\":17818:17822   */\n      dup2\n        /* \"#utility.yul\":17814:17834   */\n      sub\n        /* \"#utility.yul\":17810:17811   */\n      0x00\n        /* \"#utility.yul\":17799:17808   */\n      dup4\n        /* \"#utility.yul\":17795:17812   */\n      add\n        /* \"#utility.yul\":17788:17835   */\n      mstore\n        /* \"#utility.yul\":17852:17983   */\n      tag_407\n        /* \"#utility.yul\":17978:17982   */\n      dup2\n        /* \"#utility.yul\":17852:17983   */\n      tag_358\n      jump\t// in\n    tag_407:\n        /* \"#utility.yul\":17844:17983   */\n      swap1\n      pop\n        /* \"#utility.yul\":17571:17990   */\n      swap2\n      swap1\n      pop\n      jump\t// out\n        /* \"#utility.yul\":17996:18415   */\n    tag_104:\n        /* \"#utility.yul\":18162:18166   */\n      0x00\n        /* \"#utility.yul\":18200:18202   */\n      0x20\n        /* \"#utility.yul\":18189:18198   */\n      dup3\n        /* \"#utility.yul\":18185:18203   */\n      add\n        /* \"#utility.yul\":18177:18203   */\n      swap1\n      pop\n        /* \"#utility.yul\":18249:18258   */\n      dup2\n        /* \"#utility.yul\":18243:18247   */\n      dup2\n        /* \"#utility.yul\":18239:18259   */\n      sub\n        /* \"#utility.yul\":18235:18236   */\n      0x00\n        /* \"#utility.yul\":18224:18233   */\n      dup4\n        /* \"#utility.yul\":18220:18237   */\n      add\n        /* \"#utility.yul\":18213:18260   */\n      mstore\n        /* \"#utility.yul\":18277:18408   */\n      tag_409\n        /* \"#utility.yul\":18403:18407   */\n      dup2\n        /* \"#utility.yul\":18277:18408   */\n      tag_363\n      jump\t// in\n    tag_409:\n        /* \"#utility.yul\":18269:18408   */\n      swap1\n      pop\n        /* \"#utility.yul\":17996:18415   */\n      swap2\n      swap1\n      pop\n      jump\t// out\n        /* \"#utility.yul\":18421:18840   */\n    tag_139:\n        /* \"#utility.yul\":18587:18591   */\n      0x00\n        /* \"#utility.yul\":18625:18627   */\n      0x20\n        /* \"#utility.yul\":18614:18623   */\n      dup3\n        /* \"#utility.yul\":18610:18628   */\n      add\n        /* \"#utility.yul\":18602:18628   */\n      swap1\n      pop\n        /* \"#utility.yul\":18674:18683   */\n      dup2\n        /* \"#utility.yul\":18668:18672   */\n      dup2\n        /* \"#utility.yul\":18664:18684   */\n      sub\n        /* \"#utility.yul\":18660:18661   */\n      0x00\n        /* \"#utility.yul\":18649:18658   */\n      dup4\n        /* \"#utility.yul\":18645:18662   */\n      add\n        /* \"#utility.yul\":18638:18685   */\n      mstore\n        /* \"#utility.yul\":18702:18833   */\n      tag_411\n        /* \"#utility.yul\":18828:18832   */\n      dup2\n        /* \"#utility.yul\":18702:18833   */\n      tag_368\n      jump\t// in\n    tag_411:\n        /* \"#utility.yul\":18694:18833   */\n      swap1\n      pop\n        /* \"#utility.yul\":18421:18840   */\n      swap2\n      swap1\n      pop\n      jump\t// out\n        /* \"#utility.yul\":18846:19068   */\n    tag_52:\n        /* \"#utility.yul\":18939:18943   */\n      0x00\n        /* \"#utility.yul\":18977:18979   */\n      0x20\n        /* \"#utility.yul\":18966:18975   */\n      dup3\n        /* \"#utility.yul\":18962:18980   */\n      add\n        /* \"#utility.yul\":18954:18980   */\n      swap1\n      pop\n        /* \"#utility.yul\":18990:19061   */\n      tag_413\n        /* \"#utility.yul\":19058:19059   */\n      0x00\n        /* \"#utility.yul\":19047:19056   */\n      dup4\n        /* \"#utility.yul\":19043:19060   */\n      add\n        /* \"#utility.yul\":19034:19040   */\n      dup5\n        /* \"#utility.yul\":18990:19061   */\n      tag_373\n      jump\t// in\n    tag_413:\n        /* \"#utility.yul\":18846:19068   */\n      swap3\n      swap2\n      pop\n      pop\n      jump\t// out\n        /* \"#utility.yul\":19074:19203   */\n    tag_202:\n        /* \"#utility.yul\":19108:19114   */\n      0x00\n        /* \"#utility.yul\":19135:19155   */\n      tag_415\n      tag_416\n      jump\t// in\n    tag_415:\n        /* \"#utility.yul\":19125:19155   */\n      swap1\n      pop\n        /* \"#utility.yul\":19164:19197   */\n      tag_417\n        /* \"#utility.yul\":19192:19196   */\n      dup3\n        /* \"#utility.yul\":19184:19190   */\n      dup3\n        /* \"#utility.yul\":19164:19197   */\n      tag_418\n      jump\t// in\n    tag_417:\n        /* \"#utility.yul\":19074:19203   */\n      swap2\n      swap1\n      pop\n      jump\t// out\n        /* \"#utility.yul\":19209:19284   */\n    tag_416:\n        /* \"#utility.yul\":19242:19248   */\n      0x00\n        /* \"#utility.yul\":19275:19277   */\n      0x40\n        /* \"#utility.yul\":19269:19278   */\n      mload\n        /* \"#utility.yul\":19259:19278   */\n      swap1\n      pop\n        /* \"#utility.yul\":19209:19284   */\n      swap1\n      jump\t// out\n        /* \"#utility.yul\":19290:19597   */\n    tag_201:\n        /* \"#utility.yul\":19351:19355   */\n      0x00\n        /* \"#utility.yul\":19441:19459   */\n      0xffffffffffffffff\n        /* \"#utility.yul\":19433:19439   */\n      dup3\n        /* \"#utility.yul\":19430:19460   */\n      gt\n        /* \"#utility.yul\":19427:19483   */\n      iszero\n      tag_421\n      jumpi\n        /* \"#utility.yul\":19463:19481   */\n      tag_422\n      tag_423\n      jump\t// in\n    tag_422:\n        /* \"#utility.yul\":19427:19483   */\n    tag_421:\n        /* \"#utility.yul\":19501:19530   */\n      tag_424\n        /* \"#utility.yul\":19523:19529   */\n      dup3\n        /* \"#utility.yul\":19501:19530   */\n      tag_306\n      jump\t// in\n    tag_424:\n        /* \"#utility.yul\":19493:19530   */\n      swap1\n      pop\n        /* \"#utility.yul\":19585:19589   */\n      0x20\n        /* \"#utility.yul\":19579:19583   */\n      dup2\n        /* \"#utility.yul\":19575:19590   */\n      add\n        /* \"#utility.yul\":19567:19590   */\n      swap1\n      pop\n        /* \"#utility.yul\":19290:19597   */\n      swap2\n      swap1\n      pop\n      jump\t// out\n        /* \"#utility.yul\":19603:19701   */\n    tag_300:\n        /* \"#utility.yul\":19654:19660   */\n      0x00\n        /* \"#utility.yul\":19688:19693   */\n      dup2\n        /* \"#utility.yul\":19682:19694   */\n      mload\n        /* \"#utility.yul\":19672:19694   */\n      swap1\n      pop\n        /* \"#utility.yul\":19603:19701   */\n      swap2\n      swap1\n      pop\n      jump\t// out\n        /* \"#utility.yul\":19707:19875   */\n    tag_302:\n        /* \"#utility.yul\":19790:19801   */\n      0x00\n        /* \"#utility.yul\":19824:19830   */\n      dup3\n        /* \"#utility.yul\":19819:19822   */\n      dup3\n        /* \"#utility.yul\":19812:19831   */\n      mstore\n        /* \"#utility.yul\":19864:19868   */\n      0x20\n        /* \"#utility.yul\":19859:19862   */\n      dup3\n        /* \"#utility.yul\":19855:19869   */\n      add\n        /* \"#utility.yul\":19840:19869   */\n      swap1\n      pop\n        /* \"#utility.yul\":19707:19875   */\n      swap3\n      swap2\n      pop\n      pop\n      jump\t// out\n        /* \"#utility.yul\":19881:20050   */\n    tag_310:\n        /* \"#utility.yul\":19965:19976   */\n      0x00\n        /* \"#utility.yul\":19999:20005   */\n      dup3\n        /* \"#utility.yul\":19994:19997   */\n      dup3\n        /* \"#utility.yul\":19987:20006   */\n      mstore\n        /* \"#utility.yul\":20039:20043   */\n      0x20\n        /* \"#utility.yul\":20034:20037   */\n      dup3\n        /* \"#utility.yul\":20030:20044   */\n      add\n        /* \"#utility.yul\":20015:20044   */\n      swap1\n      pop\n        /* \"#utility.yul\":19881:20050   */\n      swap3\n      swap2\n      pop\n      pop\n      jump\t// out\n        /* \"#utility.yul\":20056:20361   */\n    tag_155:\n        /* \"#utility.yul\":20096:20099   */\n      0x00\n        /* \"#utility.yul\":20115:20135   */\n      tag_429\n        /* \"#utility.yul\":20133:20134   */\n      dup3\n        /* \"#utility.yul\":20115:20135   */\n      tag_376\n      jump\t// in\n    tag_429:\n        /* \"#utility.yul\":20110:20135   */\n      swap2\n      pop\n        /* \"#utility.yul\":20149:20169   */\n      tag_430\n        /* \"#utility.yul\":20167:20168   */\n      dup4\n        /* \"#utility.yul\":20149:20169   */\n      tag_376\n      jump\t// in\n    tag_430:\n        /* \"#utility.yul\":20144:20169   */\n      swap3\n      pop\n        /* \"#utility.yul\":20303:20304   */\n      dup3\n        /* \"#utility.yul\":20235:20301   */\n      0xffffffffffffffffffffffffffffffffffffffffffffffffffffffffffffffff\n        /* \"#utility.yul\":20231:20305   */\n      sub\n        /* \"#utility.yul\":20228:20229   */\n      dup3\n        /* \"#utility.yul\":20225:20306   */\n      gt\n        /* \"#utility.yul\":20222:20329   */\n      iszero\n      tag_431\n      jumpi\n        /* \"#utility.yul\":20309:20327   */\n      tag_432\n      tag_433\n      jump\t// in\n    tag_432:\n        /* \"#utility.yul\":20222:20329   */\n    tag_431:\n        /* \"#utility.yul\":20353:20354   */\n      dup3\n        /* \"#utility.yul\":20350:20351   */\n      dup3\n        /* \"#utility.yul\":20346:20355   */\n      add\n        /* \"#utility.yul\":20339:20355   */\n      swap1\n      pop\n        /* \"#utility.yul\":20056:20361   */\n      swap3\n      swap2\n      pop\n      pop\n      jump\t// out\n        /* \"#utility.yul\":20367:20558   */\n    tag_153:\n        /* \"#utility.yul\":20407:20411   */\n      0x00\n        /* \"#utility.yul\":20427:20447   */\n      tag_435\n        /* \"#utility.yul\":20445:20446   */\n      dup3\n        /* \"#utility.yul\":20427:20447   */\n      tag_376\n      jump\t// in\n    tag_435:\n        /* \"#utility.yul\":20422:20447   */\n      swap2\n      pop\n        /* \"#utility.yul\":20461:20481   */\n      tag_436\n        /* \"#utility.yul\":20479:20480   */\n      dup4\n        /* \"#utility.yul\":20461:20481   */\n      tag_376\n      jump\t// in\n    tag_436:\n        /* \"#utility.yul\":20456:20481   */\n      swap3\n      pop\n        /* \"#utility.yul\":20500:20501   */\n      dup3\n        /* \"#utility.yul\":20497:20498   */\n      dup3\n        /* \"#utility.yul\":20494:20502   */\n      lt\n        /* \"#utility.yul\":20491:20525   */\n      iszero\n      tag_437\n      jumpi\n        /* \"#utility.yul\":20505:20523   */\n      tag_438\n      tag_433\n      jump\t// in\n    tag_438:\n        /* \"#utility.yul\":20491:20525   */\n    tag_437:\n        /* \"#utility.yul\":20550:20551   */\n      dup3\n        /* \"#utility.yul\":20547:20548   */\n      dup3\n        /* \"#utility.yul\":20543:20552   */\n      sub\n        /* \"#utility.yul\":20535:20552   */\n      swap1\n      pop\n        /* \"#utility.yul\":20367:20558   */\n      swap3\n      swap2\n      pop\n      pop\n      jump\t// out\n        /* \"#utility.yul\":20564:20660   */\n    tag_292:\n        /* \"#utility.yul\":20601:20608   */\n      0x00\n        /* \"#utility.yul\":20630:20654   */\n      tag_440\n        /* \"#utility.yul\":20648:20653   */\n      dup3\n        /* \"#utility.yul\":20630:20654   */\n      tag_441\n      jump\t// in\n    tag_440:\n        /* \"#utility.yul\":20619:20654   */\n      swap1\n      pop\n        /* \"#utility.yul\":20564:20660   */\n      swap2\n      swap1\n      pop\n      jump\t// out\n        /* \"#utility.yul\":20666:20756   */\n    tag_296:\n        /* \"#utility.yul\":20700:20707   */\n      0x00\n        /* \"#utility.yul\":20743:20748   */\n      dup2\n        /* \"#utility.yul\":20736:20749   */\n      iszero\n        /* \"#utility.yul\":20729:20750   */\n      iszero\n        /* \"#utility.yul\":20718:20750   */\n      swap1\n      pop\n        /* \"#utility.yul\":20666:20756   */\n      swap2\n      swap1\n      pop\n      jump\t// out\n        /* \"#utility.yul\":20762:20911   */\n    tag_443:\n        /* \"#utility.yul\":20798:20805   */\n      0x00\n        /* \"#utility.yul\":20838:20904   */\n      0xffffffff00000000000000000000000000000000000000000000000000000000\n        /* \"#utility.yul\":20831:20836   */\n      dup3\n        /* \"#utility.yul\":20827:20905   */\n      and\n        /* \"#utility.yul\":20816:20905   */\n      swap1\n      pop\n        /* \"#utility.yul\":20762:20911   */\n      swap2\n      swap1\n      pop\n      jump\t// out\n        /* \"#utility.yul\":20917:21043   */\n    tag_441:\n        /* \"#utility.yul\":20954:20961   */\n      0x00\n        /* \"#utility.yul\":20994:21036   */\n      0xffffffffffffffffffffffffffffffffffffffff\n        /* \"#utility.yul\":20987:20992   */\n      dup3\n        /* \"#utility.yul\":20983:21037   */\n      and\n        /* \"#utility.yul\":20972:21037   */\n      swap1\n      pop\n        /* \"#utility.yul\":20917:21043   */\n      swap2\n      swap1\n      pop\n      jump\t// out\n        /* \"#utility.yul\":21049:21126   */\n    tag_376:\n        /* \"#utility.yul\":21086:21093   */\n      0x00\n        /* \"#utility.yul\":21115:21120   */\n      dup2\n        /* \"#utility.yul\":21104:21120   */\n      swap1\n      pop\n        /* \"#utility.yul\":21049:21126   */\n      swap2\n      swap1\n      pop\n      jump\t// out\n        /* \"#utility.yul\":21132:21286   */\n    tag_207:\n        /* \"#utility.yul\":21216:21222   */\n      dup3\n        /* \"#utility.yul\":21211:21214   */\n      dup2\n        /* \"#utility.yul\":21206:21209   */\n      dup4\n        /* \"#utility.yul\":21193:21223   */\n      calldatacopy\n        /* \"#utility.yul\":21278:21279   */\n      0x00\n        /* \"#utility.yul\":21269:21275   */\n      dup4\n        /* \"#utility.yul\":21264:21267   */\n      dup4\n        /* \"#utility.yul\":21260:21276   */\n      add\n        /* \"#utility.yul\":21253:21280   */\n      mstore\n        /* \"#utility.yul\":21132:21286   */\n      pop\n      pop\n      pop\n      jump\t// out\n        /* \"#utility.yul\":21292:21599   */\n    tag_304:\n        /* \"#utility.yul\":21360:21361   */\n      0x00\n        /* \"#utility.yul\":21370:21483   */\n    tag_449:\n        /* \"#utility.yul\":21384:21390   */\n      dup4\n        /* \"#utility.yul\":21381:21382   */\n      dup2\n        /* \"#utility.yul\":21378:21391   */\n      lt\n        /* \"#utility.yul\":21370:21483   */\n      iszero\n      tag_451\n      jumpi\n        /* \"#utility.yul\":21469:21470   */\n      dup1\n        /* \"#utility.yul\":21464:21467   */\n      dup3\n        /* \"#utility.yul\":21460:21471   */\n      add\n        /* \"#utility.yul\":21454:21472   */\n      mload\n        /* \"#utility.yul\":21450:21451   */\n      dup2\n        /* \"#utility.yul\":21445:21448   */\n      dup5\n        /* \"#utility.yul\":21441:21452   */\n      add\n        /* \"#utility.yul\":21434:21473   */\n      mstore\n        /* \"#utility.yul\":21406:21408   */\n      0x20\n        /* \"#utility.yul\":21403:21404   */\n      dup2\n        /* \"#utility.yul\":21399:21409   */\n      add\n        /* \"#utility.yul\":21394:21409   */\n      swap1\n      pop\n        /* \"#utility.yul\":21370:21483   */\n      jump(tag_449)\n    tag_451:\n        /* \"#utility.yul\":21501:21507   */\n      dup4\n        /* \"#utility.yul\":21498:21499   */\n      dup2\n        /* \"#utility.yul\":21495:21508   */\n      gt\n        /* \"#utility.yul\":21492:21593   */\n      iszero\n      tag_452\n      jumpi\n        /* \"#utility.yul\":21581:21582   */\n      0x00\n        /* \"#utility.yul\":21572:21578   */\n      dup5\n        /* \"#utility.yul\":21567:21570   */\n      dup5\n        /* \"#utility.yul\":21563:21579   */\n      add\n        /* \"#utility.yul\":21556:21583   */\n      mstore\n        /* \"#utility.yul\":21492:21593   */\n    tag_452:\n        /* \"#utility.yul\":21341:21599   */\n      pop\n        /* \"#utility.yul\":21292:21599   */\n      pop\n      pop\n      pop\n      jump\t// out\n        /* \"#utility.yul\":21605:21886   */\n    tag_418:\n        /* \"#utility.yul\":21688:21715   */\n      tag_454\n        /* \"#utility.yul\":21710:21714   */\n      dup3\n        /* \"#utility.yul\":21688:21715   */\n      tag_306\n      jump\t// in\n    tag_454:\n        /* \"#utility.yul\":21680:21686   */\n      dup2\n        /* \"#utility.yul\":21676:21716   */\n      add\n        /* \"#utility.yul\":21818:21824   */\n      dup2\n        /* \"#utility.yul\":21806:21816   */\n      dup2\n        /* \"#utility.yul\":21803:21825   */\n      lt\n        /* \"#utility.yul\":21782:21800   */\n      0xffffffffffffffff\n        /* \"#utility.yul\":21770:21780   */\n      dup3\n        /* \"#utility.yul\":21767:21801   */\n      gt\n        /* \"#utility.yul\":21764:21826   */\n      or\n        /* \"#utility.yul\":21761:21849   */\n      iszero\n      tag_455\n      jumpi\n        /* \"#utility.yul\":21829:21847   */\n      tag_456\n      tag_423\n      jump\t// in\n    tag_456:\n        /* \"#utility.yul\":21761:21849   */\n    tag_455:\n        /* \"#utility.yul\":21869:21879   */\n      dup1\n        /* \"#utility.yul\":21865:21867   */\n      0x40\n        /* \"#utility.yul\":21858:21880   */\n      mstore\n        /* \"#utility.yul\":21648:21886   */\n      pop\n        /* \"#utility.yul\":21605:21886   */\n      pop\n      pop\n      jump\t// out\n        /* \"#utility.yul\":21892:22072   */\n    tag_433:\n        /* \"#utility.yul\":21940:22017   */\n      0x4e487b7100000000000000000000000000000000000000000000000000000000\n        /* \"#utility.yul\":21937:21938   */\n      0x00\n        /* \"#utility.yul\":21930:22018   */\n      mstore\n        /* \"#utility.yul\":22037:22041   */\n      0x11\n        /* \"#utility.yul\":22034:22035   */\n      0x04\n        /* \"#utility.yul\":22027:22042   */\n      mstore\n        /* \"#utility.yul\":22061:22065   */\n      0x24\n        /* \"#utility.yul\":22058:22059   */\n      0x00\n        /* \"#utility.yul\":22051:22066   */\n      revert\n        /* \"#utility.yul\":22078:22258   */\n    tag_423:\n        /* \"#utility.yul\":22126:22203   */\n      0x4e487b7100000000000000000000000000000000000000000000000000000000\n        /* \"#utility.yul\":22123:22124   */\n      0x00\n        /* \"#utility.yul\":22116:22204   */\n      mstore\n        /* \"#utility.yul\":22223:22227   */\n      0x41\n        /* \"#utility.yul\":22220:22221   */\n      0x04\n        /* \"#utility.yul\":22213:22228   */\n      mstore\n        /* \"#utility.yul\":22247:22251   */\n      0x24\n        /* \"#utility.yul\":22244:22245   */\n      0x00\n        /* \"#utility.yul\":22237:22252   */\n      revert\n        /* \"#utility.yul\":22264:22381   */\n    tag_227:\n        /* \"#utility.yul\":22373:22374   */\n      0x00\n        /* \"#utility.yul\":22370:22371   */\n      dup1\n        /* \"#utility.yul\":22363:22375   */\n      revert\n        /* \"#utility.yul\":22387:22504   */\n    tag_205:\n        /* \"#utility.yul\":22496:22497   */\n      0x00\n        /* \"#utility.yul\":22493:22494   */\n      dup1\n        /* \"#utility.yul\":22486:22498   */\n      revert\n        /* \"#utility.yul\":22510:22627   */\n    tag_257:\n        /* \"#utility.yul\":22619:22620   */\n      0x00\n        /* \"#utility.yul\":22616:22617   */\n      dup1\n        /* \"#utility.yul\":22609:22621   */\n      revert\n        /* \"#utility.yul\":22633:22750   */\n    tag_236:\n        /* \"#utility.yul\":22742:22743   */\n      0x00\n        /* \"#utility.yul\":22739:22740   */\n      dup1\n        /* \"#utility.yul\":22732:22744   */\n      revert\n        /* \"#utility.yul\":22756:22858   */\n    tag_306:\n        /* \"#utility.yul\":22797:22803   */\n      0x00\n        /* \"#utility.yul\":22848:22850   */\n      0x1f\n        /* \"#utility.yul\":22844:22851   */\n      not\n        /* \"#utility.yul\":22839:22841   */\n      0x1f\n        /* \"#utility.yul\":22832:22837   */\n      dup4\n        /* \"#utility.yul\":22828:22842   */\n      add\n        /* \"#utility.yul\":22824:22852   */\n      and\n        /* \"#utility.yul\":22814:22852   */\n      swap1\n      pop\n        /* \"#utility.yul\":22756:22858   */\n      swap2\n      swap1\n      pop\n      jump\t// out\n        /* \"#utility.yul\":22864:23046   */\n    tag_312:\n        /* \"#utility.yul\":23004:23038   */\n      0x455243373231204552524f523a20456c20746f6b656e206e6f20657869737465\n        /* \"#utility.yul\":23000:23001   */\n      0x00\n        /* \"#utility.yul\":22992:22998   */\n      dup3\n        /* \"#utility.yul\":22988:23002   */\n      add\n        /* \"#utility.yul\":22981:23039   */\n      mstore\n        /* \"#utility.yul\":22864:23046   */\n      pop\n      jump\t// out\n        /* \"#utility.yul\":23052:23289   */\n    tag_317:\n        /* \"#utility.yul\":23192:23226   */\n      0x455243373231204552524f523a204e6f20746520707565646573206461722070\n        /* \"#utility.yul\":23188:23189   */\n      0x00\n        /* \"#utility.yul\":23180:23186   */\n      dup3\n        /* \"#utility.yul\":23176:23190   */\n      add\n        /* \"#utility.yul\":23169:23227   */\n      mstore\n        /* \"#utility.yul\":23261:23281   */\n      0x65726d69736f732061207469206d69736d6f0000000000000000000000000000\n        /* \"#utility.yul\":23256:23258   */\n      0x20\n        /* \"#utility.yul\":23248:23254   */\n      dup3\n        /* \"#utility.yul\":23244:23259   */\n      add\n        /* \"#utility.yul\":23237:23282   */\n      mstore\n        /* \"#utility.yul\":23052:23289   */\n      pop\n      jump\t// out\n        /* \"#utility.yul\":23295:23540   */\n    tag_322:\n        /* \"#utility.yul\":23435:23469   */\n      0x455243373231204552524f523a204e6f207469656e6573207065726d69736f73\n        /* \"#utility.yul\":23431:23432   */\n      0x00\n        /* \"#utility.yul\":23423:23429   */\n      dup3\n        /* \"#utility.yul\":23419:23433   */\n      add\n        /* \"#utility.yul\":23412:23470   */\n      mstore\n        /* \"#utility.yul\":23504:23532   */\n      0x20706172612067657374696f6e6172206573746520746f6b656e000000000000\n        /* \"#utility.yul\":23499:23501   */\n      0x20\n        /* \"#utility.yul\":23491:23497   */\n      dup3\n        /* \"#utility.yul\":23487:23502   */\n      add\n        /* \"#utility.yul\":23480:23533   */\n      mstore\n        /* \"#utility.yul\":23295:23540   */\n      pop\n      jump\t// out\n        /* \"#utility.yul\":23546:23775   */\n    tag_327:\n        /* \"#utility.yul\":23686:23720   */\n      0x455243373231204552524f523a20456c20746f6b656e20796120686120736964\n        /* \"#utility.yul\":23682:23683   */\n      0x00\n        /* \"#utility.yul\":23674:23680   */\n      dup3\n        /* \"#utility.yul\":23670:23684   */\n      add\n        /* \"#utility.yul\":23663:23721   */\n      mstore\n        /* \"#utility.yul\":23755:23767   */\n      0x6f206d696e746561646f00000000000000000000000000000000000000000000\n        /* \"#utility.yul\":23750:23752   */\n      0x20\n        /* \"#utility.yul\":23742:23748   */\n      dup3\n        /* \"#utility.yul\":23738:23753   */\n      add\n        /* \"#utility.yul\":23731:23768   */\n      mstore\n        /* \"#utility.yul\":23546:23775   */\n      pop\n      jump\t// out\n        /* \"#utility.yul\":23781:24001   */\n    tag_332:\n        /* \"#utility.yul\":23921:23955   */\n      0x455243373231204552524f523a204e6f206578697374652065736520746f6b65\n        /* \"#utility.yul\":23917:23918   */\n      0x00\n        /* \"#utility.yul\":23909:23915   */\n      dup3\n        /* \"#utility.yul\":23905:23919   */\n      add\n        /* \"#utility.yul\":23898:23956   */\n      mstore\n        /* \"#utility.yul\":23990:23993   */\n      0x6e00000000000000000000000000000000000000000000000000000000000000\n        /* \"#utility.yul\":23985:23987   */\n      0x20\n        /* \"#utility.yul\":23977:23983   */\n      dup3\n        /* \"#utility.yul\":23973:23988   */\n      add\n        /* \"#utility.yul\":23966:23994   */\n      mstore\n        /* \"#utility.yul\":23781:24001   */\n      pop\n      jump\t// out\n        /* \"#utility.yul\":24007:24299   */\n    tag_337:\n        /* \"#utility.yul\":24147:24181   */\n      0x455243373231204552524f523a204c6120616464726573732064652064657374\n        /* \"#utility.yul\":24143:24144   */\n      0x00\n        /* \"#utility.yul\":24135:24141   */\n      dup3\n        /* \"#utility.yul\":24131:24145   */\n      add\n        /* \"#utility.yul\":24124:24182   */\n      mstore\n        /* \"#utility.yul\":24216:24250   */\n      0x696e6f206465626520736572206469666572656e74652061206c612064652065\n        /* \"#utility.yul\":24211:24213   */\n      0x20\n        /* \"#utility.yul\":24203:24209   */\n      dup3\n        /* \"#utility.yul\":24199:24214   */\n      add\n        /* \"#utility.yul\":24192:24251   */\n      mstore\n        /* \"#utility.yul\":24285:24291   */\n      0x6e76696f00000000000000000000000000000000000000000000000000000000\n        /* \"#utility.yul\":24280:24282   */\n      0x40\n        /* \"#utility.yul\":24272:24278   */\n      dup3\n        /* \"#utility.yul\":24268:24283   */\n      add\n        /* \"#utility.yul\":24261:24292   */\n      mstore\n        /* \"#utility.yul\":24007:24299   */\n      pop\n      jump\t// out\n        /* \"#utility.yul\":24305:24554   */\n    tag_342:\n        /* \"#utility.yul\":24445:24479   */\n      0x455243373231204552524f523a205472616e73666572656e636961206e6f2069\n        /* \"#utility.yul\":24441:24442   */\n      0x00\n        /* \"#utility.yul\":24433:24439   */\n      dup3\n        /* \"#utility.yul\":24429:24443   */\n      add\n        /* \"#utility.yul\":24422:24480   */\n      mstore\n        /* \"#utility.yul\":24514:24546   */\n      0x6d706c656d656e7461646120656e204945524337323152656365697665720000\n        /* \"#utility.yul\":24509:24511   */\n      0x20\n        /* \"#utility.yul\":24501:24507   */\n      dup3\n        /* \"#utility.yul\":24497:24512   */\n      add\n        /* \"#utility.yul\":24490:24547   */\n      mstore\n        /* \"#utility.yul\":24305:24554   */\n      pop\n      jump\t// out\n        /* \"#utility.yul\":24560:24795   */\n    tag_347:\n        /* \"#utility.yul\":24700:24734   */\n      0x455243373231204552524f523a20456c2064657374696e6f206e6f2061646d69\n        /* \"#utility.yul\":24696:24697   */\n      0x00\n        /* \"#utility.yul\":24688:24694   */\n      dup3\n        /* \"#utility.yul\":24684:24698   */\n      add\n        /* \"#utility.yul\":24677:24735   */\n      mstore\n        /* \"#utility.yul\":24769:24787   */\n      0x7465206573746520657374616e64617200000000000000000000000000000000\n        /* \"#utility.yul\":24764:24766   */\n      0x20\n        /* \"#utility.yul\":24756:24762   */\n      dup3\n        /* \"#utility.yul\":24752:24767   */\n      add\n        /* \"#utility.yul\":24745:24788   */\n      mstore\n        /* \"#utility.yul\":24560:24795   */\n      pop\n      jump\t// out\n        /* \"#utility.yul\":24801:24978   */\n    tag_352:\n        /* \"#utility.yul\":24941:24970   */\n      0x455243373231204552524f523a20416464726573732056616369610000000000\n        /* \"#utility.yul\":24937:24938   */\n      0x00\n        /* \"#utility.yul\":24929:24935   */\n      dup3\n        /* \"#utility.yul\":24925:24939   */\n      add\n        /* \"#utility.yul\":24918:24971   */\n      mstore\n        /* \"#utility.yul\":24801:24978   */\n      pop\n      jump\t// out\n        /* \"#utility.yul\":24984:25232   */\n    tag_357:\n        /* \"#utility.yul\":25124:25158   */\n      0x455243373231204552524f522c207472616e73666572656e636961206e6f2069\n        /* \"#utility.yul\":25120:25121   */\n      0x00\n        /* \"#utility.yul\":25112:25118   */\n      dup3\n        /* \"#utility.yul\":25108:25122   */\n      add\n        /* \"#utility.yul\":25101:25159   */\n      mstore\n        /* \"#utility.yul\":25193:25224   */\n      0x6d706c656d656e7461646120706172612065736520636f6e747261746f000000\n        /* \"#utility.yul\":25188:25190   */\n      0x20\n        /* \"#utility.yul\":25180:25186   */\n      dup3\n        /* \"#utility.yul\":25176:25191   */\n      add\n        /* \"#utility.yul\":25169:25225   */\n      mstore\n        /* \"#utility.yul\":24984:25232   */\n      pop\n      jump\t// out\n        /* \"#utility.yul\":25238:25352   */\n    tag_362:\n      pop\n      jump\t// out\n        /* \"#utility.yul\":25358:25578   */\n    tag_367:\n        /* \"#utility.yul\":25498:25532   */\n      0x455243373231204552524f523a204e6f2065786973746520656c20746f6b656e\n        /* \"#utility.yul\":25494:25495   */\n      0x00\n        /* \"#utility.yul\":25486:25492   */\n      dup3\n        /* \"#utility.yul\":25482:25496   */\n      add\n        /* \"#utility.yul\":25475:25533   */\n      mstore\n        /* \"#utility.yul\":25567:25570   */\n      0x3b00000000000000000000000000000000000000000000000000000000000000\n        /* \"#utility.yul\":25562:25564   */\n      0x20\n        /* \"#utility.yul\":25554:25560   */\n      dup3\n        /* \"#utility.yul\":25550:25565   */\n      add\n        /* \"#utility.yul\":25543:25571   */\n      mstore\n        /* \"#utility.yul\":25358:25578   */\n      pop\n      jump\t// out\n        /* \"#utility.yul\":25584:25766   */\n    tag_372:\n        /* \"#utility.yul\":25724:25758   */\n      0x455243373231204552524f523a204e6f2065786973746520656c20746f6b656e\n        /* \"#utility.yul\":25720:25721   */\n      0x00\n        /* \"#utility.yul\":25712:25718   */\n      dup3\n        /* \"#utility.yul\":25708:25722   */\n      add\n        /* \"#utility.yul\":25701:25759   */\n      mstore\n        /* \"#utility.yul\":25584:25766   */\n      pop\n      jump\t// out\n        /* \"#utility.yul\":25772:25894   */\n    tag_211:\n        /* \"#utility.yul\":25845:25869   */\n      tag_478\n        /* \"#utility.yul\":25863:25868   */\n      dup2\n        /* \"#utility.yul\":25845:25869   */\n      tag_292\n      jump\t// in\n    tag_478:\n        /* \"#utility.yul\":25838:25843   */\n      dup2\n        /* \"#utility.yul\":25835:25870   */\n      eq\n        /* \"#utility.yul\":25825:25888   */\n      tag_479\n      jumpi\n        /* \"#utility.yul\":25884:25885   */\n      0x00\n        /* \"#utility.yul\":25881:25882   */\n      dup1\n        /* \"#utility.yul\":25874:25886   */\n      revert\n        /* \"#utility.yul\":25825:25888   */\n    tag_479:\n        /* \"#utility.yul\":25772:25894   */\n      pop\n      jump\t// out\n        /* \"#utility.yul\":25900:26016   */\n    tag_215:\n        /* \"#utility.yul\":25970:25991   */\n      tag_481\n        /* \"#utility.yul\":25985:25990   */\n      dup2\n        /* \"#utility.yul\":25970:25991   */\n      tag_296\n      jump\t// in\n    tag_481:\n        /* \"#utility.yul\":25963:25968   */\n      dup2\n        /* \"#utility.yul\":25960:25992   */\n      eq\n        /* \"#utility.yul\":25950:26010   */\n      tag_482\n      jumpi\n        /* \"#utility.yul\":26006:26007   */\n      0x00\n        /* \"#utility.yul\":26003:26004   */\n      dup1\n        /* \"#utility.yul\":25996:26008   */\n      revert\n        /* \"#utility.yul\":25950:26010   */\n    tag_482:\n        /* \"#utility.yul\":25900:26016   */\n      pop\n      jump\t// out\n        /* \"#utility.yul\":26022:26142   */\n    tag_219:\n        /* \"#utility.yul\":26094:26117   */\n      tag_484\n        /* \"#utility.yul\":26111:26116   */\n      dup2\n        /* \"#utility.yul\":26094:26117   */\n      tag_443\n      jump\t// in\n    tag_484:\n        /* \"#utility.yul\":26087:26092   */\n      dup2\n        /* \"#utility.yul\":26084:26118   */\n      eq\n        /* \"#utility.yul\":26074:26136   */\n      tag_485\n      jumpi\n        /* \"#utility.yul\":26132:26133   */\n      0x00\n        /* \"#utility.yul\":26129:26130   */\n      dup1\n        /* \"#utility.yul\":26122:26134   */\n      revert\n        /* \"#utility.yul\":26074:26136   */\n    tag_485:\n        /* \"#utility.yul\":26022:26142   */\n      pop\n      jump\t// out\n        /* \"#utility.yul\":26148:26270   */\n    tag_232:\n        /* \"#utility.yul\":26221:26245   */\n      tag_487\n        /* \"#utility.yul\":26239:26244   */\n      dup2\n        /* \"#utility.yul\":26221:26245   */\n      tag_376\n      jump\t// in\n    tag_487:\n        /* \"#utility.yul\":26214:26219   */\n      dup2\n        /* \"#utility.yul\":26211:26246   */\n      eq\n        /* \"#utility.yul\":26201:26264   */\n      tag_488\n      jumpi\n        /* \"#utility.yul\":26260:26261   */\n      0x00\n        /* \"#utility.yul\":26257:26258   */\n      dup1\n        /* \"#utility.yul\":26250:26262   */\n      revert\n        /* \"#utility.yul\":26201:26264   */\n    tag_488:\n        /* \"#utility.yul\":26148:26270   */\n      pop\n      jump\t// out\n\n    auxdata: 0xa2646970667358221220cb64ae2cda89b845c95df835f73c287b845c937b9115278ca3ec3ba4132803a564736f6c63430008070033\n}\n",
				"bytecode": {
					"linkReferences": {},
					"object": "608060405234801561001057600080fd5b5061200b806100206000396000f3fe608060405234801561001057600080fd5b50600436106100b45760003560e01c80636a4f832b116100715780636a4f832b1461019d57806370a08231146101b9578063a22cb465146101e9578063b3e1c71814610205578063b88d4fde14610221578063e985e9c51461023d576100b4565b806301ffc9a7146100b9578063081812fc146100e9578063095ea7b31461011957806323b872dd1461013557806342842e0e146101515780636352211e1461016d575b600080fd5b6100d360048036038101906100ce91906114a6565b61026d565b6040516100e091906117c1565b60405180910390f35b61010360048036038101906100fe9190611500565b6102e7565b604051610110919061175a565b60405180910390f35b610133600480360381019061012e91906113f7565b61036c565b005b61014f600480360381019061014a91906112e1565b610476565b005b61016b600480360381019061016691906112e1565b6104cf565b005b61018760048036038101906101829190611500565b6104ef565b604051610194919061175a565b60405180910390f35b6101b760048036038101906101b29190611437565b6105a0565b005b6101d360048036038101906101ce9190611274565b6105fb565b6040516101e0919061197c565b60405180910390f35b61020360048036038101906101fe91906113b7565b6106b3565b005b61021f600480360381019061021a91906113f7565b61081f565b005b61023b60048036038101906102369190611334565b61083d565b005b610257600480360381019061025291906112a1565b610898565b60405161026491906117c1565b60405180910390f35b60007f80ac58cd000000000000000000000000000000000000000000000000000000007bffffffffffffffffffffffffffffffffffffffffffffffffffffffff1916827bffffffffffffffffffffffffffffffffffffffffffffffffffffffff191614806102e057506102df8261092c565b5b9050919050565b60006102f282610996565b610331576040517f08c379a0000000000000000000000000000000000000000000000000000000008152600401610328906117dc565b60405180910390fd5b6002600083815260200190815260200160002060009054906101000a900473ffffffffffffffffffffffffffffffffffffffff169050919050565b6000610377826104ef565b90508073ffffffffffffffffffffffffffffffffffffffff168373ffffffffffffffffffffffffffffffffffffffff1614156103e8576040517f08c379a00000000000000000000000000000000000000000000000000000000081526004016103df9061187c565b60405180910390fd5b8073ffffffffffffffffffffffffffffffffffffffff163373ffffffffffffffffffffffffffffffffffffffff16148061042857506104278133610898565b5b610467576040517f08c379a000000000000000000000000000000000000000000000000000000000815260040161045e9061181c565b60405180910390fd5b6104718383610a01565b505050565b6104803382610aba565b6104bf576040517f08c379a00000000000000000000000000000000000000000000000000000000081526004016104b69061191c565b60405180910390fd5b6104ca838383610b98565b505050565b6104ea8383836040518060200160405280600081525061083d565b505050565b60008060008084815260200190815260200160002060009054906101000a900473ffffffffffffffffffffffffffffffffffffffff169050600073ffffffffffffffffffffffffffffffffffffffff168173ffffffffffffffffffffffffffffffffffffffff161415610597576040517f08c379a000000000000000000000000000000000000000000000000000000000815260040161058e9061193c565b60405180910390fd5b80915050919050565b6105aa8383610ddb565b6105b76000848484610fa7565b6105f6576040517f08c379a00000000000000000000000000000000000000000000000000000000081526004016105ed9061189c565b60405180910390fd5b505050565b60008073ffffffffffffffffffffffffffffffffffffffff168273ffffffffffffffffffffffffffffffffffffffff16141561066c576040517f08c379a0000000000000000000000000000000000000000000000000000000008152600401610663906118dc565b60405180910390fd5b600160008373ffffffffffffffffffffffffffffffffffffffff1673ffffffffffffffffffffffffffffffffffffffff168152602001908152602001600020549050919050565b8173ffffffffffffffffffffffffffffffffffffffff163373ffffffffffffffffffffffffffffffffffffffff161415610722576040517f08c379a0000000000000000000000000000000000000000000000000000000008152600401610719906117fc565b60405180910390fd5b80600360003373ffffffffffffffffffffffffffffffffffffffff1673ffffffffffffffffffffffffffffffffffffffff16815260200190815260200160002060008473ffffffffffffffffffffffffffffffffffffffff1673ffffffffffffffffffffffffffffffffffffffff16815260200190815260200160002060006101000a81548160ff0219169083151502179055508173ffffffffffffffffffffffffffffffffffffffff163373ffffffffffffffffffffffffffffffffffffffff167f17307eab39ab6107e8899845ad3d59bd9653f200f220920489ca2b5937696c318360405161081391906117c1565b60405180910390a35050565b6108398282604051806020016040528060008152506105a0565b5050565b6108473383610aba565b610886576040517f08c379a000000000000000000000000000000000000000000000000000000000815260040161087d9061191c565b60405180910390fd5b61089284848484611121565b50505050565b6000600360008473ffffffffffffffffffffffffffffffffffffffff1673ffffffffffffffffffffffffffffffffffffffff16815260200190815260200160002060008373ffffffffffffffffffffffffffffffffffffffff1673ffffffffffffffffffffffffffffffffffffffff16815260200190815260200160002060009054906101000a900460ff16905092915050565b60007f01ffc9a7000000000000000000000000000000000000000000000000000000007bffffffffffffffffffffffffffffffffffffffffffffffffffffffff1916827bffffffffffffffffffffffffffffffffffffffffffffffffffffffff1916149050919050565b60008073ffffffffffffffffffffffffffffffffffffffff1660008084815260200190815260200160002060009054906101000a900473ffffffffffffffffffffffffffffffffffffffff1673ffffffffffffffffffffffffffffffffffffffff1614159050919050565b816002600083815260200190815260200160002060006101000a81548173ffffffffffffffffffffffffffffffffffffffff021916908373ffffffffffffffffffffffffffffffffffffffff160217905550808273ffffffffffffffffffffffffffffffffffffffff16610a74836104ef565b73ffffffffffffffffffffffffffffffffffffffff167f8c5be1e5ebec7d5bd14f71427d1e84f3dd0314c0f7b2291e5b200ac8c7c3b92560405160405180910390a45050565b6000610ac582610996565b610b04576040517f08c379a0000000000000000000000000000000000000000000000000000000008152600401610afb9061195c565b60405180910390fd5b6000610b0f836104ef565b90508073ffffffffffffffffffffffffffffffffffffffff168473ffffffffffffffffffffffffffffffffffffffff161480610b7e57508373ffffffffffffffffffffffffffffffffffffffff16610b66846102e7565b73ffffffffffffffffffffffffffffffffffffffff16145b80610b8f5750610b8e8185610898565b5b91505092915050565b8273ffffffffffffffffffffffffffffffffffffffff16610bb8826104ef565b73ffffffffffffffffffffffffffffffffffffffff1614610c0e576040517f08c379a0000000000000000000000000000000000000000000000000000000008152600401610c059061185c565b60405180910390fd5b600073ffffffffffffffffffffffffffffffffffffffff168273ffffffffffffffffffffffffffffffffffffffff161415610c7e576040517f08c379a0000000000000000000000000000000000000000000000000000000008152600401610c759061191c565b60405180910390fd5b60018060008573ffffffffffffffffffffffffffffffffffffffff1673ffffffffffffffffffffffffffffffffffffffff1681526020019081526020016000206000828254610ccd9190611a70565b9250508190555060018060008473ffffffffffffffffffffffffffffffffffffffff1673ffffffffffffffffffffffffffffffffffffffff1681526020019081526020016000206000828254610d239190611a1a565b925050819055508160008083815260200190815260200160002060006101000a81548173ffffffffffffffffffffffffffffffffffffffff021916908373ffffffffffffffffffffffffffffffffffffffff160217905550808273ffffffffffffffffffffffffffffffffffffffff168473ffffffffffffffffffffffffffffffffffffffff167fddf252ad1be2c89b69c2b068fc378daa952ba7f163c4a11628f55a4df523b3ef60405160405180910390a4505050565b600073ffffffffffffffffffffffffffffffffffffffff168273ffffffffffffffffffffffffffffffffffffffff161415610e4b576040517f08c379a0000000000000000000000000000000000000000000000000000000008152600401610e429061191c565b60405180910390fd5b610e5481610996565b15610e94576040517f08c379a0000000000000000000000000000000000000000000000000000000008152600401610e8b9061183c565b60405180910390fd5b610ea06000838361117d565b60018060008473ffffffffffffffffffffffffffffffffffffffff1673ffffffffffffffffffffffffffffffffffffffff1681526020019081526020016000206000828254610eef9190611a1a565b925050819055508160008083815260200190815260200160002060006101000a81548173ffffffffffffffffffffffffffffffffffffffff021916908373ffffffffffffffffffffffffffffffffffffffff160217905550808273ffffffffffffffffffffffffffffffffffffffff16600073ffffffffffffffffffffffffffffffffffffffff167fddf252ad1be2c89b69c2b068fc378daa952ba7f163c4a11628f55a4df523b3ef60405160405180910390a45050565b6000610fb284611182565b15611114578373ffffffffffffffffffffffffffffffffffffffff16639642d02d338786866040518563ffffffff1660e01b8152600401610ff69493929190611775565b602060405180830381600087803b15801561101057600080fd5b505af192505050801561104157506040513d601f19601f8201168201806040525081019061103e91906114d3565b60015b6110c4573d8060008114611071576040519150601f19603f3d011682016040523d82523d6000602084013e611076565b606091505b506000815114156110bc576040517f08c379a00000000000000000000000000000000000000000000000000000000081526004016110b3906118fc565b60405180910390fd5b805181602001fd5b639642d02d60e01b7bffffffffffffffffffffffffffffffffffffffffffffffffffffffff1916817bffffffffffffffffffffffffffffffffffffffffffffffffffffffff191614915050611119565b600190505b949350505050565b61112c848484610b98565b61113884848484610fa7565b611177576040517f08c379a000000000000000000000000000000000000000000000000000000000815260040161116e906118bc565b60405180910390fd5b50505050565b505050565b600080823b905060008163ffffffff1611915050919050565b60006111ae6111a9846119bc565b611997565b9050828152602081018484840111156111ca576111c9611bee565b5b6111d5848285611b18565b509392505050565b6000813590506111ec81611f79565b92915050565b60008135905061120181611f90565b92915050565b60008135905061121681611fa7565b92915050565b60008151905061122b81611fa7565b92915050565b600082601f83011261124657611245611be9565b5b813561125684826020860161119b565b91505092915050565b60008135905061126e81611fbe565b92915050565b60006020828403121561128a57611289611bf8565b5b6000611298848285016111dd565b91505092915050565b600080604083850312156112b8576112b7611bf8565b5b60006112c6858286016111dd565b92505060206112d7858286016111dd565b9150509250929050565b6000806000606084860312156112fa576112f9611bf8565b5b6000611308868287016111dd565b9350506020611319868287016111dd565b925050604061132a8682870161125f565b9150509250925092565b6000806000806080858703121561134e5761134d611bf8565b5b600061135c878288016111dd565b945050602061136d878288016111dd565b935050604061137e8782880161125f565b925050606085013567ffffffffffffffff81111561139f5761139e611bf3565b5b6113ab87828801611231565b91505092959194509250565b600080604083850312156113ce576113cd611bf8565b5b60006113dc858286016111dd565b92505060206113ed858286016111f2565b9150509250929050565b6000806040838503121561140e5761140d611bf8565b5b600061141c858286016111dd565b925050602061142d8582860161125f565b9150509250929050565b6000806000606084860312156114505761144f611bf8565b5b600061145e868287016111dd565b935050602061146f8682870161125f565b925050604084013567ffffffffffffffff8111156114905761148f611bf3565b5b61149c86828701611231565b9150509250925092565b6000602082840312156114bc576114bb611bf8565b5b60006114ca84828501611207565b91505092915050565b6000602082840312156114e9576114e8611bf8565b5b60006114f78482850161121c565b91505092915050565b60006020828403121561151657611515611bf8565b5b60006115248482850161125f565b91505092915050565b61153681611aa4565b82525050565b61154581611ab6565b82525050565b6000611556826119ed565b61156081856119f8565b9350611570818560208601611b27565b61157981611bfd565b840191505092915050565b6000611591602083611a09565b915061159c82611c0e565b602082019050919050565b60006115b4603283611a09565b91506115bf82611c37565b604082019050919050565b60006115d7603a83611a09565b91506115e282611c86565b604082019050919050565b60006115fa602a83611a09565b915061160582611cd5565b604082019050919050565b600061161d602183611a09565b915061162882611d24565b604082019050919050565b6000611640604483611a09565b915061164b82611d73565b606082019050919050565b6000611663603e83611a09565b915061166e82611de8565b604082019050919050565b6000611686603083611a09565b915061169182611e37565b604082019050919050565b60006116a9601b83611a09565b91506116b482611e86565b602082019050919050565b60006116cc603d83611a09565b91506116d782611eaf565b604082019050919050565b60006116ef600083611a09565b91506116fa82611efe565b600082019050919050565b6000611712602183611a09565b915061171d82611f01565b604082019050919050565b6000611735602083611a09565b915061174082611f50565b602082019050919050565b61175481611b0e565b82525050565b600060208201905061176f600083018461152d565b92915050565b600060808201905061178a600083018761152d565b611797602083018661152d565b6117a4604083018561174b565b81810360608301526117b6818461154b565b905095945050505050565b60006020820190506117d6600083018461153c565b92915050565b600060208201905081810360008301526117f581611584565b9050919050565b60006020820190508181036000830152611815816115a7565b9050919050565b60006020820190508181036000830152611835816115ca565b9050919050565b60006020820190508181036000830152611855816115ed565b9050919050565b6000602082019050818103600083015261187581611610565b9050919050565b6000602082019050818103600083015261189581611633565b9050919050565b600060208201905081810360008301526118b581611656565b9050919050565b600060208201905081810360008301526118d581611679565b9050919050565b600060208201905081810360008301526118f58161169c565b9050919050565b60006020820190508181036000830152611915816116bf565b9050919050565b60006020820190508181036000830152611935816116e2565b9050919050565b6000602082019050818103600083015261195581611705565b9050919050565b6000602082019050818103600083015261197581611728565b9050919050565b6000602082019050611991600083018461174b565b92915050565b60006119a16119b2565b90506119ad8282611b5a565b919050565b6000604051905090565b600067ffffffffffffffff8211156119d7576119d6611bba565b5b6119e082611bfd565b9050602081019050919050565b600081519050919050565b600082825260208201905092915050565b600082825260208201905092915050565b6000611a2582611b0e565b9150611a3083611b0e565b9250827fffffffffffffffffffffffffffffffffffffffffffffffffffffffffffffffff03821115611a6557611a64611b8b565b5b828201905092915050565b6000611a7b82611b0e565b9150611a8683611b0e565b925082821015611a9957611a98611b8b565b5b828203905092915050565b6000611aaf82611aee565b9050919050565b60008115159050919050565b60007fffffffff0000000000000000000000000000000000000000000000000000000082169050919050565b600073ffffffffffffffffffffffffffffffffffffffff82169050919050565b6000819050919050565b82818337600083830152505050565b60005b83811015611b45578082015181840152602081019050611b2a565b83811115611b54576000848401525b50505050565b611b6382611bfd565b810181811067ffffffffffffffff82111715611b8257611b81611bba565b5b80604052505050565b7f4e487b7100000000000000000000000000000000000000000000000000000000600052601160045260246000fd5b7f4e487b7100000000000000000000000000000000000000000000000000000000600052604160045260246000fd5b600080fd5b600080fd5b600080fd5b600080fd5b6000601f19601f8301169050919050565b7f455243373231204552524f523a20456c20746f6b656e206e6f20657869737465600082015250565b7f455243373231204552524f523a204e6f2074652070756564657320646172207060008201527f65726d69736f732061207469206d69736d6f0000000000000000000000000000602082015250565b7f455243373231204552524f523a204e6f207469656e6573207065726d69736f7360008201527f20706172612067657374696f6e6172206573746520746f6b656e000000000000602082015250565b7f455243373231204552524f523a20456c20746f6b656e2079612068612073696460008201527f6f206d696e746561646f00000000000000000000000000000000000000000000602082015250565b7f455243373231204552524f523a204e6f206578697374652065736520746f6b6560008201527f6e00000000000000000000000000000000000000000000000000000000000000602082015250565b7f455243373231204552524f523a204c612061646472657373206465206465737460008201527f696e6f206465626520736572206469666572656e74652061206c61206465206560208201527f6e76696f00000000000000000000000000000000000000000000000000000000604082015250565b7f455243373231204552524f523a205472616e73666572656e636961206e6f206960008201527f6d706c656d656e7461646120656e204945524337323152656365697665720000602082015250565b7f455243373231204552524f523a20456c2064657374696e6f206e6f2061646d6960008201527f7465206573746520657374616e64617200000000000000000000000000000000602082015250565b7f455243373231204552524f523a20416464726573732056616369610000000000600082015250565b7f455243373231204552524f522c207472616e73666572656e636961206e6f206960008201527f6d706c656d656e7461646120706172612065736520636f6e747261746f000000602082015250565b50565b7f455243373231204552524f523a204e6f2065786973746520656c20746f6b656e60008201527f3b00000000000000000000000000000000000000000000000000000000000000602082015250565b7f455243373231204552524f523a204e6f2065786973746520656c20746f6b656e600082015250565b611f8281611aa4565b8114611f8d57600080fd5b50565b611f9981611ab6565b8114611fa457600080fd5b50565b611fb081611ac2565b8114611fbb57600080fd5b50565b611fc781611b0e565b8114611fd257600080fd5b5056fea2646970667358221220cb64ae2cda89b845c95df835f73c287b845c937b9115278ca3ec3ba4132803a564736f6c63430008070033",
					"opcodes": "PUSH1 0x80 PUSH1 0x40 MSTORE CALLVALUE DUP1 ISZERO PUSH2 0x10 JUMPI PUSH1 0x0 DUP1 REVERT JUMPDEST POP PUSH2 0x200B DUP1 PUSH2 0x20 PUSH1 0x0 CODECOPY PUSH1 0x0 RETURN INVALID PUSH1 0x80 PUSH1 0x40 MSTORE CALLVALUE DUP1 ISZERO PUSH2 0x10 JUMPI PUSH1 0x0 DUP1 REVERT JUMPDEST POP PUSH1 0x4 CALLDATASIZE LT PUSH2 0xB4 JUMPI PUSH1 0x0 CALLDATALOAD PUSH1 0xE0 SHR DUP1 PUSH4 0x6A4F832B GT PUSH2 0x71 JUMPI DUP1 PUSH4 0x6A4F832B EQ PUSH2 0x19D JUMPI DUP1 PUSH4 0x70A08231 EQ PUSH2 0x1B9 JUMPI DUP1 PUSH4 0xA22CB465 EQ PUSH2 0x1E9 JUMPI DUP1 PUSH4 0xB3E1C718 EQ PUSH2 0x205 JUMPI DUP1 PUSH4 0xB88D4FDE EQ PUSH2 0x221 JUMPI DUP1 PUSH4 0xE985E9C5 EQ PUSH2 0x23D JUMPI PUSH2 0xB4 JUMP JUMPDEST DUP1 PUSH4 0x1FFC9A7 EQ PUSH2 0xB9 JUMPI DUP1 PUSH4 0x81812FC EQ PUSH2 0xE9 JUMPI DUP1 PUSH4 0x95EA7B3 EQ PUSH2 0x119 JUMPI DUP1 PUSH4 0x23B872DD EQ PUSH2 0x135 JUMPI DUP1 PUSH4 0x42842E0E EQ PUSH2 0x151 JUMPI DUP1 PUSH4 0x6352211E EQ PUSH2 0x16D JUMPI JUMPDEST PUSH1 0x0 DUP1 REVERT JUMPDEST PUSH2 0xD3 PUSH1 0x4 DUP1 CALLDATASIZE SUB DUP2 ADD SWAP1 PUSH2 0xCE SWAP2 SWAP1 PUSH2 0x14A6 JUMP JUMPDEST PUSH2 0x26D JUMP JUMPDEST PUSH1 0x40 MLOAD PUSH2 0xE0 SWAP2 SWAP1 PUSH2 0x17C1 JUMP JUMPDEST PUSH1 0x40 MLOAD DUP1 SWAP2 SUB SWAP1 RETURN JUMPDEST PUSH2 0x103 PUSH1 0x4 DUP1 CALLDATASIZE SUB DUP2 ADD SWAP1 PUSH2 0xFE SWAP2 SWAP1 PUSH2 0x1500 JUMP JUMPDEST PUSH2 0x2E7 JUMP JUMPDEST PUSH1 0x40 MLOAD PUSH2 0x110 SWAP2 SWAP1 PUSH2 0x175A JUMP JUMPDEST PUSH1 0x40 MLOAD DUP1 SWAP2 SUB SWAP1 RETURN JUMPDEST PUSH2 0x133 PUSH1 0x4 DUP1 CALLDATASIZE SUB DUP2 ADD SWAP1 PUSH2 0x12E SWAP2 SWAP1 PUSH2 0x13F7 JUMP JUMPDEST PUSH2 0x36C JUMP JUMPDEST STOP JUMPDEST PUSH2 0x14F PUSH1 0x4 DUP1 CALLDATASIZE SUB DUP2 ADD SWAP1 PUSH2 0x14A SWAP2 SWAP1 PUSH2 0x12E1 JUMP JUMPDEST PUSH2 0x476 JUMP JUMPDEST STOP JUMPDEST PUSH2 0x16B PUSH1 0x4 DUP1 CALLDATASIZE SUB DUP2 ADD SWAP1 PUSH2 0x166 SWAP2 SWAP1 PUSH2 0x12E1 JUMP JUMPDEST PUSH2 0x4CF JUMP JUMPDEST STOP JUMPDEST PUSH2 0x187 PUSH1 0x4 DUP1 CALLDATASIZE SUB DUP2 ADD SWAP1 PUSH2 0x182 SWAP2 SWAP1 PUSH2 0x1500 JUMP JUMPDEST PUSH2 0x4EF JUMP JUMPDEST PUSH1 0x40 MLOAD PUSH2 0x194 SWAP2 SWAP1 PUSH2 0x175A JUMP JUMPDEST PUSH1 0x40 MLOAD DUP1 SWAP2 SUB SWAP1 RETURN JUMPDEST PUSH2 0x1B7 PUSH1 0x4 DUP1 CALLDATASIZE SUB DUP2 ADD SWAP1 PUSH2 0x1B2 SWAP2 SWAP1 PUSH2 0x1437 JUMP JUMPDEST PUSH2 0x5A0 JUMP JUMPDEST STOP JUMPDEST PUSH2 0x1D3 PUSH1 0x4 DUP1 CALLDATASIZE SUB DUP2 ADD SWAP1 PUSH2 0x1CE SWAP2 SWAP1 PUSH2 0x1274 JUMP JUMPDEST PUSH2 0x5FB JUMP JUMPDEST PUSH1 0x40 MLOAD PUSH2 0x1E0 SWAP2 SWAP1 PUSH2 0x197C JUMP JUMPDEST PUSH1 0x40 MLOAD DUP1 SWAP2 SUB SWAP1 RETURN JUMPDEST PUSH2 0x203 PUSH1 0x4 DUP1 CALLDATASIZE SUB DUP2 ADD SWAP1 PUSH2 0x1FE SWAP2 SWAP1 PUSH2 0x13B7 JUMP JUMPDEST PUSH2 0x6B3 JUMP JUMPDEST STOP JUMPDEST PUSH2 0x21F PUSH1 0x4 DUP1 CALLDATASIZE SUB DUP2 ADD SWAP1 PUSH2 0x21A SWAP2 SWAP1 PUSH2 0x13F7 JUMP JUMPDEST PUSH2 0x81F JUMP JUMPDEST STOP JUMPDEST PUSH2 0x23B PUSH1 0x4 DUP1 CALLDATASIZE SUB DUP2 ADD SWAP1 PUSH2 0x236 SWAP2 SWAP1 PUSH2 0x1334 JUMP JUMPDEST PUSH2 0x83D JUMP JUMPDEST STOP JUMPDEST PUSH2 0x257 PUSH1 0x4 DUP1 CALLDATASIZE SUB DUP2 ADD SWAP1 PUSH2 0x252 SWAP2 SWAP1 PUSH2 0x12A1 JUMP JUMPDEST PUSH2 0x898 JUMP JUMPDEST PUSH1 0x40 MLOAD PUSH2 0x264 SWAP2 SWAP1 PUSH2 0x17C1 JUMP JUMPDEST PUSH1 0x40 MLOAD DUP1 SWAP2 SUB SWAP1 RETURN JUMPDEST PUSH1 0x0 PUSH32 0x80AC58CD00000000000000000000000000000000000000000000000000000000 PUSH28 0xFFFFFFFFFFFFFFFFFFFFFFFFFFFFFFFFFFFFFFFFFFFFFFFFFFFFFFFF NOT AND DUP3 PUSH28 0xFFFFFFFFFFFFFFFFFFFFFFFFFFFFFFFFFFFFFFFFFFFFFFFFFFFFFFFF NOT AND EQ DUP1 PUSH2 0x2E0 JUMPI POP PUSH2 0x2DF DUP3 PUSH2 0x92C JUMP JUMPDEST JUMPDEST SWAP1 POP SWAP2 SWAP1 POP JUMP JUMPDEST PUSH1 0x0 PUSH2 0x2F2 DUP3 PUSH2 0x996 JUMP JUMPDEST PUSH2 0x331 JUMPI PUSH1 0x40 MLOAD PUSH32 0x8C379A000000000000000000000000000000000000000000000000000000000 DUP2 MSTORE PUSH1 0x4 ADD PUSH2 0x328 SWAP1 PUSH2 0x17DC JUMP JUMPDEST PUSH1 0x40 MLOAD DUP1 SWAP2 SUB SWAP1 REVERT JUMPDEST PUSH1 0x2 PUSH1 0x0 DUP4 DUP2 MSTORE PUSH1 0x20 ADD SWAP1 DUP2 MSTORE PUSH1 0x20 ADD PUSH1 0x0 KECCAK256 PUSH1 0x0 SWAP1 SLOAD SWAP1 PUSH2 0x100 EXP SWAP1 DIV PUSH20 0xFFFFFFFFFFFFFFFFFFFFFFFFFFFFFFFFFFFFFFFF AND SWAP1 POP SWAP2 SWAP1 POP JUMP JUMPDEST PUSH1 0x0 PUSH2 0x377 DUP3 PUSH2 0x4EF JUMP JUMPDEST SWAP1 POP DUP1 PUSH20 0xFFFFFFFFFFFFFFFFFFFFFFFFFFFFFFFFFFFFFFFF AND DUP4 PUSH20 0xFFFFFFFFFFFFFFFFFFFFFFFFFFFFFFFFFFFFFFFF AND EQ ISZERO PUSH2 0x3E8 JUMPI PUSH1 0x40 MLOAD PUSH32 0x8C379A000000000000000000000000000000000000000000000000000000000 DUP2 MSTORE PUSH1 0x4 ADD PUSH2 0x3DF SWAP1 PUSH2 0x187C JUMP JUMPDEST PUSH1 0x40 MLOAD DUP1 SWAP2 SUB SWAP1 REVERT JUMPDEST DUP1 PUSH20 0xFFFFFFFFFFFFFFFFFFFFFFFFFFFFFFFFFFFFFFFF AND CALLER PUSH20 0xFFFFFFFFFFFFFFFFFFFFFFFFFFFFFFFFFFFFFFFF AND EQ DUP1 PUSH2 0x428 JUMPI POP PUSH2 0x427 DUP2 CALLER PUSH2 0x898 JUMP JUMPDEST JUMPDEST PUSH2 0x467 JUMPI PUSH1 0x40 MLOAD PUSH32 0x8C379A000000000000000000000000000000000000000000000000000000000 DUP2 MSTORE PUSH1 0x4 ADD PUSH2 0x45E SWAP1 PUSH2 0x181C JUMP JUMPDEST PUSH1 0x40 MLOAD DUP1 SWAP2 SUB SWAP1 REVERT JUMPDEST PUSH2 0x471 DUP4 DUP4 PUSH2 0xA01 JUMP JUMPDEST POP POP POP JUMP JUMPDEST PUSH2 0x480 CALLER DUP3 PUSH2 0xABA JUMP JUMPDEST PUSH2 0x4BF JUMPI PUSH1 0x40 MLOAD PUSH32 0x8C379A000000000000000000000000000000000000000000000000000000000 DUP2 MSTORE PUSH1 0x4 ADD PUSH2 0x4B6 SWAP1 PUSH2 0x191C JUMP JUMPDEST PUSH1 0x40 MLOAD DUP1 SWAP2 SUB SWAP1 REVERT JUMPDEST PUSH2 0x4CA DUP4 DUP4 DUP4 PUSH2 0xB98 JUMP JUMPDEST POP POP POP JUMP JUMPDEST PUSH2 0x4EA DUP4 DUP4 DUP4 PUSH1 0x40 MLOAD DUP1 PUSH1 0x20 ADD PUSH1 0x40 MSTORE DUP1 PUSH1 0x0 DUP2 MSTORE POP PUSH2 0x83D JUMP JUMPDEST POP POP POP JUMP JUMPDEST PUSH1 0x0 DUP1 PUSH1 0x0 DUP1 DUP5 DUP2 MSTORE PUSH1 0x20 ADD SWAP1 DUP2 MSTORE PUSH1 0x20 ADD PUSH1 0x0 KECCAK256 PUSH1 0x0 SWAP1 SLOAD SWAP1 PUSH2 0x100 EXP SWAP1 DIV PUSH20 0xFFFFFFFFFFFFFFFFFFFFFFFFFFFFFFFFFFFFFFFF AND SWAP1 POP PUSH1 0x0 PUSH20 0xFFFFFFFFFFFFFFFFFFFFFFFFFFFFFFFFFFFFFFFF AND DUP2 PUSH20 0xFFFFFFFFFFFFFFFFFFFFFFFFFFFFFFFFFFFFFFFF AND EQ ISZERO PUSH2 0x597 JUMPI PUSH1 0x40 MLOAD PUSH32 0x8C379A000000000000000000000000000000000000000000000000000000000 DUP2 MSTORE PUSH1 0x4 ADD PUSH2 0x58E SWAP1 PUSH2 0x193C JUMP JUMPDEST PUSH1 0x40 MLOAD DUP1 SWAP2 SUB SWAP1 REVERT JUMPDEST DUP1 SWAP2 POP POP SWAP2 SWAP1 POP JUMP JUMPDEST PUSH2 0x5AA DUP4 DUP4 PUSH2 0xDDB JUMP JUMPDEST PUSH2 0x5B7 PUSH1 0x0 DUP5 DUP5 DUP5 PUSH2 0xFA7 JUMP JUMPDEST PUSH2 0x5F6 JUMPI PUSH1 0x40 MLOAD PUSH32 0x8C379A000000000000000000000000000000000000000000000000000000000 DUP2 MSTORE PUSH1 0x4 ADD PUSH2 0x5ED SWAP1 PUSH2 0x189C JUMP JUMPDEST PUSH1 0x40 MLOAD DUP1 SWAP2 SUB SWAP1 REVERT JUMPDEST POP POP POP JUMP JUMPDEST PUSH1 0x0 DUP1 PUSH20 0xFFFFFFFFFFFFFFFFFFFFFFFFFFFFFFFFFFFFFFFF AND DUP3 PUSH20 0xFFFFFFFFFFFFFFFFFFFFFFFFFFFFFFFFFFFFFFFF AND EQ ISZERO PUSH2 0x66C JUMPI PUSH1 0x40 MLOAD PUSH32 0x8C379A000000000000000000000000000000000000000000000000000000000 DUP2 MSTORE PUSH1 0x4 ADD PUSH2 0x663 SWAP1 PUSH2 0x18DC JUMP JUMPDEST PUSH1 0x40 MLOAD DUP1 SWAP2 SUB SWAP1 REVERT JUMPDEST PUSH1 0x1 PUSH1 0x0 DUP4 PUSH20 0xFFFFFFFFFFFFFFFFFFFFFFFFFFFFFFFFFFFFFFFF AND PUSH20 0xFFFFFFFFFFFFFFFFFFFFFFFFFFFFFFFFFFFFFFFF AND DUP2 MSTORE PUSH1 0x20 ADD SWAP1 DUP2 MSTORE PUSH1 0x20 ADD PUSH1 0x0 KECCAK256 SLOAD SWAP1 POP SWAP2 SWAP1 POP JUMP JUMPDEST DUP2 PUSH20 0xFFFFFFFFFFFFFFFFFFFFFFFFFFFFFFFFFFFFFFFF AND CALLER PUSH20 0xFFFFFFFFFFFFFFFFFFFFFFFFFFFFFFFFFFFFFFFF AND EQ ISZERO PUSH2 0x722 JUMPI PUSH1 0x40 MLOAD PUSH32 0x8C379A000000000000000000000000000000000000000000000000000000000 DUP2 MSTORE PUSH1 0x4 ADD PUSH2 0x719 SWAP1 PUSH2 0x17FC JUMP JUMPDEST PUSH1 0x40 MLOAD DUP1 SWAP2 SUB SWAP1 REVERT JUMPDEST DUP1 PUSH1 0x3 PUSH1 0x0 CALLER PUSH20 0xFFFFFFFFFFFFFFFFFFFFFFFFFFFFFFFFFFFFFFFF AND PUSH20 0xFFFFFFFFFFFFFFFFFFFFFFFFFFFFFFFFFFFFFFFF AND DUP2 MSTORE PUSH1 0x20 ADD SWAP1 DUP2 MSTORE PUSH1 0x20 ADD PUSH1 0x0 KECCAK256 PUSH1 0x0 DUP5 PUSH20 0xFFFFFFFFFFFFFFFFFFFFFFFFFFFFFFFFFFFFFFFF AND PUSH20 0xFFFFFFFFFFFFFFFFFFFFFFFFFFFFFFFFFFFFFFFF AND DUP2 MSTORE PUSH1 0x20 ADD SWAP1 DUP2 MSTORE PUSH1 0x20 ADD PUSH1 0x0 KECCAK256 PUSH1 0x0 PUSH2 0x100 EXP DUP2 SLOAD DUP2 PUSH1 0xFF MUL NOT AND SWAP1 DUP4 ISZERO ISZERO MUL OR SWAP1 SSTORE POP DUP2 PUSH20 0xFFFFFFFFFFFFFFFFFFFFFFFFFFFFFFFFFFFFFFFF AND CALLER PUSH20 0xFFFFFFFFFFFFFFFFFFFFFFFFFFFFFFFFFFFFFFFF AND PUSH32 0x17307EAB39AB6107E8899845AD3D59BD9653F200F220920489CA2B5937696C31 DUP4 PUSH1 0x40 MLOAD PUSH2 0x813 SWAP2 SWAP1 PUSH2 0x17C1 JUMP JUMPDEST PUSH1 0x40 MLOAD DUP1 SWAP2 SUB SWAP1 LOG3 POP POP JUMP JUMPDEST PUSH2 0x839 DUP3 DUP3 PUSH1 0x40 MLOAD DUP1 PUSH1 0x20 ADD PUSH1 0x40 MSTORE DUP1 PUSH1 0x0 DUP2 MSTORE POP PUSH2 0x5A0 JUMP JUMPDEST POP POP JUMP JUMPDEST PUSH2 0x847 CALLER DUP4 PUSH2 0xABA JUMP JUMPDEST PUSH2 0x886 JUMPI PUSH1 0x40 MLOAD PUSH32 0x8C379A000000000000000000000000000000000000000000000000000000000 DUP2 MSTORE PUSH1 0x4 ADD PUSH2 0x87D SWAP1 PUSH2 0x191C JUMP JUMPDEST PUSH1 0x40 MLOAD DUP1 SWAP2 SUB SWAP1 REVERT JUMPDEST PUSH2 0x892 DUP5 DUP5 DUP5 DUP5 PUSH2 0x1121 JUMP JUMPDEST POP POP POP POP JUMP JUMPDEST PUSH1 0x0 PUSH1 0x3 PUSH1 0x0 DUP5 PUSH20 0xFFFFFFFFFFFFFFFFFFFFFFFFFFFFFFFFFFFFFFFF AND PUSH20 0xFFFFFFFFFFFFFFFFFFFFFFFFFFFFFFFFFFFFFFFF AND DUP2 MSTORE PUSH1 0x20 ADD SWAP1 DUP2 MSTORE PUSH1 0x20 ADD PUSH1 0x0 KECCAK256 PUSH1 0x0 DUP4 PUSH20 0xFFFFFFFFFFFFFFFFFFFFFFFFFFFFFFFFFFFFFFFF AND PUSH20 0xFFFFFFFFFFFFFFFFFFFFFFFFFFFFFFFFFFFFFFFF AND DUP2 MSTORE PUSH1 0x20 ADD SWAP1 DUP2 MSTORE PUSH1 0x20 ADD PUSH1 0x0 KECCAK256 PUSH1 0x0 SWAP1 SLOAD SWAP1 PUSH2 0x100 EXP SWAP1 DIV PUSH1 0xFF AND SWAP1 POP SWAP3 SWAP2 POP POP JUMP JUMPDEST PUSH1 0x0 PUSH32 0x1FFC9A700000000000000000000000000000000000000000000000000000000 PUSH28 0xFFFFFFFFFFFFFFFFFFFFFFFFFFFFFFFFFFFFFFFFFFFFFFFFFFFFFFFF NOT AND DUP3 PUSH28 0xFFFFFFFFFFFFFFFFFFFFFFFFFFFFFFFFFFFFFFFFFFFFFFFFFFFFFFFF NOT AND EQ SWAP1 POP SWAP2 SWAP1 POP JUMP JUMPDEST PUSH1 0x0 DUP1 PUSH20 0xFFFFFFFFFFFFFFFFFFFFFFFFFFFFFFFFFFFFFFFF AND PUSH1 0x0 DUP1 DUP5 DUP2 MSTORE PUSH1 0x20 ADD SWAP1 DUP2 MSTORE PUSH1 0x20 ADD PUSH1 0x0 KECCAK256 PUSH1 0x0 SWAP1 SLOAD SWAP1 PUSH2 0x100 EXP SWAP1 DIV PUSH20 0xFFFFFFFFFFFFFFFFFFFFFFFFFFFFFFFFFFFFFFFF AND PUSH20 0xFFFFFFFFFFFFFFFFFFFFFFFFFFFFFFFFFFFFFFFF AND EQ ISZERO SWAP1 POP SWAP2 SWAP1 POP JUMP JUMPDEST DUP2 PUSH1 0x2 PUSH1 0x0 DUP4 DUP2 MSTORE PUSH1 0x20 ADD SWAP1 DUP2 MSTORE PUSH1 0x20 ADD PUSH1 0x0 KECCAK256 PUSH1 0x0 PUSH2 0x100 EXP DUP2 SLOAD DUP2 PUSH20 0xFFFFFFFFFFFFFFFFFFFFFFFFFFFFFFFFFFFFFFFF MUL NOT AND SWAP1 DUP4 PUSH20 0xFFFFFFFFFFFFFFFFFFFFFFFFFFFFFFFFFFFFFFFF AND MUL OR SWAP1 SSTORE POP DUP1 DUP3 PUSH20 0xFFFFFFFFFFFFFFFFFFFFFFFFFFFFFFFFFFFFFFFF AND PUSH2 0xA74 DUP4 PUSH2 0x4EF JUMP JUMPDEST PUSH20 0xFFFFFFFFFFFFFFFFFFFFFFFFFFFFFFFFFFFFFFFF AND PUSH32 0x8C5BE1E5EBEC7D5BD14F71427D1E84F3DD0314C0F7B2291E5B200AC8C7C3B925 PUSH1 0x40 MLOAD PUSH1 0x40 MLOAD DUP1 SWAP2 SUB SWAP1 LOG4 POP POP JUMP JUMPDEST PUSH1 0x0 PUSH2 0xAC5 DUP3 PUSH2 0x996 JUMP JUMPDEST PUSH2 0xB04 JUMPI PUSH1 0x40 MLOAD PUSH32 0x8C379A000000000000000000000000000000000000000000000000000000000 DUP2 MSTORE PUSH1 0x4 ADD PUSH2 0xAFB SWAP1 PUSH2 0x195C JUMP JUMPDEST PUSH1 0x40 MLOAD DUP1 SWAP2 SUB SWAP1 REVERT JUMPDEST PUSH1 0x0 PUSH2 0xB0F DUP4 PUSH2 0x4EF JUMP JUMPDEST SWAP1 POP DUP1 PUSH20 0xFFFFFFFFFFFFFFFFFFFFFFFFFFFFFFFFFFFFFFFF AND DUP5 PUSH20 0xFFFFFFFFFFFFFFFFFFFFFFFFFFFFFFFFFFFFFFFF AND EQ DUP1 PUSH2 0xB7E JUMPI POP DUP4 PUSH20 0xFFFFFFFFFFFFFFFFFFFFFFFFFFFFFFFFFFFFFFFF AND PUSH2 0xB66 DUP5 PUSH2 0x2E7 JUMP JUMPDEST PUSH20 0xFFFFFFFFFFFFFFFFFFFFFFFFFFFFFFFFFFFFFFFF AND EQ JUMPDEST DUP1 PUSH2 0xB8F JUMPI POP PUSH2 0xB8E DUP2 DUP6 PUSH2 0x898 JUMP JUMPDEST JUMPDEST SWAP2 POP POP SWAP3 SWAP2 POP POP JUMP JUMPDEST DUP3 PUSH20 0xFFFFFFFFFFFFFFFFFFFFFFFFFFFFFFFFFFFFFFFF AND PUSH2 0xBB8 DUP3 PUSH2 0x4EF JUMP JUMPDEST PUSH20 0xFFFFFFFFFFFFFFFFFFFFFFFFFFFFFFFFFFFFFFFF AND EQ PUSH2 0xC0E JUMPI PUSH1 0x40 MLOAD PUSH32 0x8C379A000000000000000000000000000000000000000000000000000000000 DUP2 MSTORE PUSH1 0x4 ADD PUSH2 0xC05 SWAP1 PUSH2 0x185C JUMP JUMPDEST PUSH1 0x40 MLOAD DUP1 SWAP2 SUB SWAP1 REVERT JUMPDEST PUSH1 0x0 PUSH20 0xFFFFFFFFFFFFFFFFFFFFFFFFFFFFFFFFFFFFFFFF AND DUP3 PUSH20 0xFFFFFFFFFFFFFFFFFFFFFFFFFFFFFFFFFFFFFFFF AND EQ ISZERO PUSH2 0xC7E JUMPI PUSH1 0x40 MLOAD PUSH32 0x8C379A000000000000000000000000000000000000000000000000000000000 DUP2 MSTORE PUSH1 0x4 ADD PUSH2 0xC75 SWAP1 PUSH2 0x191C JUMP JUMPDEST PUSH1 0x40 MLOAD DUP1 SWAP2 SUB SWAP1 REVERT JUMPDEST PUSH1 0x1 DUP1 PUSH1 0x0 DUP6 PUSH20 0xFFFFFFFFFFFFFFFFFFFFFFFFFFFFFFFFFFFFFFFF AND PUSH20 0xFFFFFFFFFFFFFFFFFFFFFFFFFFFFFFFFFFFFFFFF AND DUP2 MSTORE PUSH1 0x20 ADD SWAP1 DUP2 MSTORE PUSH1 0x20 ADD PUSH1 0x0 KECCAK256 PUSH1 0x0 DUP3 DUP3 SLOAD PUSH2 0xCCD SWAP2 SWAP1 PUSH2 0x1A70 JUMP JUMPDEST SWAP3 POP POP DUP2 SWAP1 SSTORE POP PUSH1 0x1 DUP1 PUSH1 0x0 DUP5 PUSH20 0xFFFFFFFFFFFFFFFFFFFFFFFFFFFFFFFFFFFFFFFF AND PUSH20 0xFFFFFFFFFFFFFFFFFFFFFFFFFFFFFFFFFFFFFFFF AND DUP2 MSTORE PUSH1 0x20 ADD SWAP1 DUP2 MSTORE PUSH1 0x20 ADD PUSH1 0x0 KECCAK256 PUSH1 0x0 DUP3 DUP3 SLOAD PUSH2 0xD23 SWAP2 SWAP1 PUSH2 0x1A1A JUMP JUMPDEST SWAP3 POP POP DUP2 SWAP1 SSTORE POP DUP2 PUSH1 0x0 DUP1 DUP4 DUP2 MSTORE PUSH1 0x20 ADD SWAP1 DUP2 MSTORE PUSH1 0x20 ADD PUSH1 0x0 KECCAK256 PUSH1 0x0 PUSH2 0x100 EXP DUP2 SLOAD DUP2 PUSH20 0xFFFFFFFFFFFFFFFFFFFFFFFFFFFFFFFFFFFFFFFF MUL NOT AND SWAP1 DUP4 PUSH20 0xFFFFFFFFFFFFFFFFFFFFFFFFFFFFFFFFFFFFFFFF AND MUL OR SWAP1 SSTORE POP DUP1 DUP3 PUSH20 0xFFFFFFFFFFFFFFFFFFFFFFFFFFFFFFFFFFFFFFFF AND DUP5 PUSH20 0xFFFFFFFFFFFFFFFFFFFFFFFFFFFFFFFFFFFFFFFF AND PUSH32 0xDDF252AD1BE2C89B69C2B068FC378DAA952BA7F163C4A11628F55A4DF523B3EF PUSH1 0x40 MLOAD PUSH1 0x40 MLOAD DUP1 SWAP2 SUB SWAP1 LOG4 POP POP POP JUMP JUMPDEST PUSH1 0x0 PUSH20 0xFFFFFFFFFFFFFFFFFFFFFFFFFFFFFFFFFFFFFFFF AND DUP3 PUSH20 0xFFFFFFFFFFFFFFFFFFFFFFFFFFFFFFFFFFFFFFFF AND EQ ISZERO PUSH2 0xE4B JUMPI PUSH1 0x40 MLOAD PUSH32 0x8C379A000000000000000000000000000000000000000000000000000000000 DUP2 MSTORE PUSH1 0x4 ADD PUSH2 0xE42 SWAP1 PUSH2 0x191C JUMP JUMPDEST PUSH1 0x40 MLOAD DUP1 SWAP2 SUB SWAP1 REVERT JUMPDEST PUSH2 0xE54 DUP2 PUSH2 0x996 JUMP JUMPDEST ISZERO PUSH2 0xE94 JUMPI PUSH1 0x40 MLOAD PUSH32 0x8C379A000000000000000000000000000000000000000000000000000000000 DUP2 MSTORE PUSH1 0x4 ADD PUSH2 0xE8B SWAP1 PUSH2 0x183C JUMP JUMPDEST PUSH1 0x40 MLOAD DUP1 SWAP2 SUB SWAP1 REVERT JUMPDEST PUSH2 0xEA0 PUSH1 0x0 DUP4 DUP4 PUSH2 0x117D JUMP JUMPDEST PUSH1 0x1 DUP1 PUSH1 0x0 DUP5 PUSH20 0xFFFFFFFFFFFFFFFFFFFFFFFFFFFFFFFFFFFFFFFF AND PUSH20 0xFFFFFFFFFFFFFFFFFFFFFFFFFFFFFFFFFFFFFFFF AND DUP2 MSTORE PUSH1 0x20 ADD SWAP1 DUP2 MSTORE PUSH1 0x20 ADD PUSH1 0x0 KECCAK256 PUSH1 0x0 DUP3 DUP3 SLOAD PUSH2 0xEEF SWAP2 SWAP1 PUSH2 0x1A1A JUMP JUMPDEST SWAP3 POP POP DUP2 SWAP1 SSTORE POP DUP2 PUSH1 0x0 DUP1 DUP4 DUP2 MSTORE PUSH1 0x20 ADD SWAP1 DUP2 MSTORE PUSH1 0x20 ADD PUSH1 0x0 KECCAK256 PUSH1 0x0 PUSH2 0x100 EXP DUP2 SLOAD DUP2 PUSH20 0xFFFFFFFFFFFFFFFFFFFFFFFFFFFFFFFFFFFFFFFF MUL NOT AND SWAP1 DUP4 PUSH20 0xFFFFFFFFFFFFFFFFFFFFFFFFFFFFFFFFFFFFFFFF AND MUL OR SWAP1 SSTORE POP DUP1 DUP3 PUSH20 0xFFFFFFFFFFFFFFFFFFFFFFFFFFFFFFFFFFFFFFFF AND PUSH1 0x0 PUSH20 0xFFFFFFFFFFFFFFFFFFFFFFFFFFFFFFFFFFFFFFFF AND PUSH32 0xDDF252AD1BE2C89B69C2B068FC378DAA952BA7F163C4A11628F55A4DF523B3EF PUSH1 0x40 MLOAD PUSH1 0x40 MLOAD DUP1 SWAP2 SUB SWAP1 LOG4 POP POP JUMP JUMPDEST PUSH1 0x0 PUSH2 0xFB2 DUP5 PUSH2 0x1182 JUMP JUMPDEST ISZERO PUSH2 0x1114 JUMPI DUP4 PUSH20 0xFFFFFFFFFFFFFFFFFFFFFFFFFFFFFFFFFFFFFFFF AND PUSH4 0x9642D02D CALLER DUP8 DUP7 DUP7 PUSH1 0x40 MLOAD DUP6 PUSH4 0xFFFFFFFF AND PUSH1 0xE0 SHL DUP2 MSTORE PUSH1 0x4 ADD PUSH2 0xFF6 SWAP5 SWAP4 SWAP3 SWAP2 SWAP1 PUSH2 0x1775 JUMP JUMPDEST PUSH1 0x20 PUSH1 0x40 MLOAD DUP1 DUP4 SUB DUP2 PUSH1 0x0 DUP8 DUP1 EXTCODESIZE ISZERO DUP1 ISZERO PUSH2 0x1010 JUMPI PUSH1 0x0 DUP1 REVERT JUMPDEST POP GAS CALL SWAP3 POP POP POP DUP1 ISZERO PUSH2 0x1041 JUMPI POP PUSH1 0x40 MLOAD RETURNDATASIZE PUSH1 0x1F NOT PUSH1 0x1F DUP3 ADD AND DUP3 ADD DUP1 PUSH1 0x40 MSTORE POP DUP2 ADD SWAP1 PUSH2 0x103E SWAP2 SWAP1 PUSH2 0x14D3 JUMP JUMPDEST PUSH1 0x1 JUMPDEST PUSH2 0x10C4 JUMPI RETURNDATASIZE DUP1 PUSH1 0x0 DUP2 EQ PUSH2 0x1071 JUMPI PUSH1 0x40 MLOAD SWAP2 POP PUSH1 0x1F NOT PUSH1 0x3F RETURNDATASIZE ADD AND DUP3 ADD PUSH1 0x40 MSTORE RETURNDATASIZE DUP3 MSTORE RETURNDATASIZE PUSH1 0x0 PUSH1 0x20 DUP5 ADD RETURNDATACOPY PUSH2 0x1076 JUMP JUMPDEST PUSH1 0x60 SWAP2 POP JUMPDEST POP PUSH1 0x0 DUP2 MLOAD EQ ISZERO PUSH2 0x10BC JUMPI PUSH1 0x40 MLOAD PUSH32 0x8C379A000000000000000000000000000000000000000000000000000000000 DUP2 MSTORE PUSH1 0x4 ADD PUSH2 0x10B3 SWAP1 PUSH2 0x18FC JUMP JUMPDEST PUSH1 0x40 MLOAD DUP1 SWAP2 SUB SWAP1 REVERT JUMPDEST DUP1 MLOAD DUP2 PUSH1 0x20 ADD REVERT JUMPDEST PUSH4 0x9642D02D PUSH1 0xE0 SHL PUSH28 0xFFFFFFFFFFFFFFFFFFFFFFFFFFFFFFFFFFFFFFFFFFFFFFFFFFFFFFFF NOT AND DUP2 PUSH28 0xFFFFFFFFFFFFFFFFFFFFFFFFFFFFFFFFFFFFFFFFFFFFFFFFFFFFFFFF NOT AND EQ SWAP2 POP POP PUSH2 0x1119 JUMP JUMPDEST PUSH1 0x1 SWAP1 POP JUMPDEST SWAP5 SWAP4 POP POP POP POP JUMP JUMPDEST PUSH2 0x112C DUP5 DUP5 DUP5 PUSH2 0xB98 JUMP JUMPDEST PUSH2 0x1138 DUP5 DUP5 DUP5 DUP5 PUSH2 0xFA7 JUMP JUMPDEST PUSH2 0x1177 JUMPI PUSH1 0x40 MLOAD PUSH32 0x8C379A000000000000000000000000000000000000000000000000000000000 DUP2 MSTORE PUSH1 0x4 ADD PUSH2 0x116E SWAP1 PUSH2 0x18BC JUMP JUMPDEST PUSH1 0x40 MLOAD DUP1 SWAP2 SUB SWAP1 REVERT JUMPDEST POP POP POP POP JUMP JUMPDEST POP POP POP JUMP JUMPDEST PUSH1 0x0 DUP1 DUP3 EXTCODESIZE SWAP1 POP PUSH1 0x0 DUP2 PUSH4 0xFFFFFFFF AND GT SWAP2 POP POP SWAP2 SWAP1 POP JUMP JUMPDEST PUSH1 0x0 PUSH2 0x11AE PUSH2 0x11A9 DUP5 PUSH2 0x19BC JUMP JUMPDEST PUSH2 0x1997 JUMP JUMPDEST SWAP1 POP DUP3 DUP2 MSTORE PUSH1 0x20 DUP2 ADD DUP5 DUP5 DUP5 ADD GT ISZERO PUSH2 0x11CA JUMPI PUSH2 0x11C9 PUSH2 0x1BEE JUMP JUMPDEST JUMPDEST PUSH2 0x11D5 DUP5 DUP3 DUP6 PUSH2 0x1B18 JUMP JUMPDEST POP SWAP4 SWAP3 POP POP POP JUMP JUMPDEST PUSH1 0x0 DUP2 CALLDATALOAD SWAP1 POP PUSH2 0x11EC DUP2 PUSH2 0x1F79 JUMP JUMPDEST SWAP3 SWAP2 POP POP JUMP JUMPDEST PUSH1 0x0 DUP2 CALLDATALOAD SWAP1 POP PUSH2 0x1201 DUP2 PUSH2 0x1F90 JUMP JUMPDEST SWAP3 SWAP2 POP POP JUMP JUMPDEST PUSH1 0x0 DUP2 CALLDATALOAD SWAP1 POP PUSH2 0x1216 DUP2 PUSH2 0x1FA7 JUMP JUMPDEST SWAP3 SWAP2 POP POP JUMP JUMPDEST PUSH1 0x0 DUP2 MLOAD SWAP1 POP PUSH2 0x122B DUP2 PUSH2 0x1FA7 JUMP JUMPDEST SWAP3 SWAP2 POP POP JUMP JUMPDEST PUSH1 0x0 DUP3 PUSH1 0x1F DUP4 ADD SLT PUSH2 0x1246 JUMPI PUSH2 0x1245 PUSH2 0x1BE9 JUMP JUMPDEST JUMPDEST DUP2 CALLDATALOAD PUSH2 0x1256 DUP5 DUP3 PUSH1 0x20 DUP7 ADD PUSH2 0x119B JUMP JUMPDEST SWAP2 POP POP SWAP3 SWAP2 POP POP JUMP JUMPDEST PUSH1 0x0 DUP2 CALLDATALOAD SWAP1 POP PUSH2 0x126E DUP2 PUSH2 0x1FBE JUMP JUMPDEST SWAP3 SWAP2 POP POP JUMP JUMPDEST PUSH1 0x0 PUSH1 0x20 DUP3 DUP5 SUB SLT ISZERO PUSH2 0x128A JUMPI PUSH2 0x1289 PUSH2 0x1BF8 JUMP JUMPDEST JUMPDEST PUSH1 0x0 PUSH2 0x1298 DUP5 DUP3 DUP6 ADD PUSH2 0x11DD JUMP JUMPDEST SWAP2 POP POP SWAP3 SWAP2 POP POP JUMP JUMPDEST PUSH1 0x0 DUP1 PUSH1 0x40 DUP4 DUP6 SUB SLT ISZERO PUSH2 0x12B8 JUMPI PUSH2 0x12B7 PUSH2 0x1BF8 JUMP JUMPDEST JUMPDEST PUSH1 0x0 PUSH2 0x12C6 DUP6 DUP3 DUP7 ADD PUSH2 0x11DD JUMP JUMPDEST SWAP3 POP POP PUSH1 0x20 PUSH2 0x12D7 DUP6 DUP3 DUP7 ADD PUSH2 0x11DD JUMP JUMPDEST SWAP2 POP POP SWAP3 POP SWAP3 SWAP1 POP JUMP JUMPDEST PUSH1 0x0 DUP1 PUSH1 0x0 PUSH1 0x60 DUP5 DUP7 SUB SLT ISZERO PUSH2 0x12FA JUMPI PUSH2 0x12F9 PUSH2 0x1BF8 JUMP JUMPDEST JUMPDEST PUSH1 0x0 PUSH2 0x1308 DUP7 DUP3 DUP8 ADD PUSH2 0x11DD JUMP JUMPDEST SWAP4 POP POP PUSH1 0x20 PUSH2 0x1319 DUP7 DUP3 DUP8 ADD PUSH2 0x11DD JUMP JUMPDEST SWAP3 POP POP PUSH1 0x40 PUSH2 0x132A DUP7 DUP3 DUP8 ADD PUSH2 0x125F JUMP JUMPDEST SWAP2 POP POP SWAP3 POP SWAP3 POP SWAP3 JUMP JUMPDEST PUSH1 0x0 DUP1 PUSH1 0x0 DUP1 PUSH1 0x80 DUP6 DUP8 SUB SLT ISZERO PUSH2 0x134E JUMPI PUSH2 0x134D PUSH2 0x1BF8 JUMP JUMPDEST JUMPDEST PUSH1 0x0 PUSH2 0x135C DUP8 DUP3 DUP9 ADD PUSH2 0x11DD JUMP JUMPDEST SWAP5 POP POP PUSH1 0x20 PUSH2 0x136D DUP8 DUP3 DUP9 ADD PUSH2 0x11DD JUMP JUMPDEST SWAP4 POP POP PUSH1 0x40 PUSH2 0x137E DUP8 DUP3 DUP9 ADD PUSH2 0x125F JUMP JUMPDEST SWAP3 POP POP PUSH1 0x60 DUP6 ADD CALLDATALOAD PUSH8 0xFFFFFFFFFFFFFFFF DUP2 GT ISZERO PUSH2 0x139F JUMPI PUSH2 0x139E PUSH2 0x1BF3 JUMP JUMPDEST JUMPDEST PUSH2 0x13AB DUP8 DUP3 DUP9 ADD PUSH2 0x1231 JUMP JUMPDEST SWAP2 POP POP SWAP3 SWAP6 SWAP2 SWAP5 POP SWAP3 POP JUMP JUMPDEST PUSH1 0x0 DUP1 PUSH1 0x40 DUP4 DUP6 SUB SLT ISZERO PUSH2 0x13CE JUMPI PUSH2 0x13CD PUSH2 0x1BF8 JUMP JUMPDEST JUMPDEST PUSH1 0x0 PUSH2 0x13DC DUP6 DUP3 DUP7 ADD PUSH2 0x11DD JUMP JUMPDEST SWAP3 POP POP PUSH1 0x20 PUSH2 0x13ED DUP6 DUP3 DUP7 ADD PUSH2 0x11F2 JUMP JUMPDEST SWAP2 POP POP SWAP3 POP SWAP3 SWAP1 POP JUMP JUMPDEST PUSH1 0x0 DUP1 PUSH1 0x40 DUP4 DUP6 SUB SLT ISZERO PUSH2 0x140E JUMPI PUSH2 0x140D PUSH2 0x1BF8 JUMP JUMPDEST JUMPDEST PUSH1 0x0 PUSH2 0x141C DUP6 DUP3 DUP7 ADD PUSH2 0x11DD JUMP JUMPDEST SWAP3 POP POP PUSH1 0x20 PUSH2 0x142D DUP6 DUP3 DUP7 ADD PUSH2 0x125F JUMP JUMPDEST SWAP2 POP POP SWAP3 POP SWAP3 SWAP1 POP JUMP JUMPDEST PUSH1 0x0 DUP1 PUSH1 0x0 PUSH1 0x60 DUP5 DUP7 SUB SLT ISZERO PUSH2 0x1450 JUMPI PUSH2 0x144F PUSH2 0x1BF8 JUMP JUMPDEST JUMPDEST PUSH1 0x0 PUSH2 0x145E DUP7 DUP3 DUP8 ADD PUSH2 0x11DD JUMP JUMPDEST SWAP4 POP POP PUSH1 0x20 PUSH2 0x146F DUP7 DUP3 DUP8 ADD PUSH2 0x125F JUMP JUMPDEST SWAP3 POP POP PUSH1 0x40 DUP5 ADD CALLDATALOAD PUSH8 0xFFFFFFFFFFFFFFFF DUP2 GT ISZERO PUSH2 0x1490 JUMPI PUSH2 0x148F PUSH2 0x1BF3 JUMP JUMPDEST JUMPDEST PUSH2 0x149C DUP7 DUP3 DUP8 ADD PUSH2 0x1231 JUMP JUMPDEST SWAP2 POP POP SWAP3 POP SWAP3 POP SWAP3 JUMP JUMPDEST PUSH1 0x0 PUSH1 0x20 DUP3 DUP5 SUB SLT ISZERO PUSH2 0x14BC JUMPI PUSH2 0x14BB PUSH2 0x1BF8 JUMP JUMPDEST JUMPDEST PUSH1 0x0 PUSH2 0x14CA DUP5 DUP3 DUP6 ADD PUSH2 0x1207 JUMP JUMPDEST SWAP2 POP POP SWAP3 SWAP2 POP POP JUMP JUMPDEST PUSH1 0x0 PUSH1 0x20 DUP3 DUP5 SUB SLT ISZERO PUSH2 0x14E9 JUMPI PUSH2 0x14E8 PUSH2 0x1BF8 JUMP JUMPDEST JUMPDEST PUSH1 0x0 PUSH2 0x14F7 DUP5 DUP3 DUP6 ADD PUSH2 0x121C JUMP JUMPDEST SWAP2 POP POP SWAP3 SWAP2 POP POP JUMP JUMPDEST PUSH1 0x0 PUSH1 0x20 DUP3 DUP5 SUB SLT ISZERO PUSH2 0x1516 JUMPI PUSH2 0x1515 PUSH2 0x1BF8 JUMP JUMPDEST JUMPDEST PUSH1 0x0 PUSH2 0x1524 DUP5 DUP3 DUP6 ADD PUSH2 0x125F JUMP JUMPDEST SWAP2 POP POP SWAP3 SWAP2 POP POP JUMP JUMPDEST PUSH2 0x1536 DUP2 PUSH2 0x1AA4 JUMP JUMPDEST DUP3 MSTORE POP POP JUMP JUMPDEST PUSH2 0x1545 DUP2 PUSH2 0x1AB6 JUMP JUMPDEST DUP3 MSTORE POP POP JUMP JUMPDEST PUSH1 0x0 PUSH2 0x1556 DUP3 PUSH2 0x19ED JUMP JUMPDEST PUSH2 0x1560 DUP2 DUP6 PUSH2 0x19F8 JUMP JUMPDEST SWAP4 POP PUSH2 0x1570 DUP2 DUP6 PUSH1 0x20 DUP7 ADD PUSH2 0x1B27 JUMP JUMPDEST PUSH2 0x1579 DUP2 PUSH2 0x1BFD JUMP JUMPDEST DUP5 ADD SWAP2 POP POP SWAP3 SWAP2 POP POP JUMP JUMPDEST PUSH1 0x0 PUSH2 0x1591 PUSH1 0x20 DUP4 PUSH2 0x1A09 JUMP JUMPDEST SWAP2 POP PUSH2 0x159C DUP3 PUSH2 0x1C0E JUMP JUMPDEST PUSH1 0x20 DUP3 ADD SWAP1 POP SWAP2 SWAP1 POP JUMP JUMPDEST PUSH1 0x0 PUSH2 0x15B4 PUSH1 0x32 DUP4 PUSH2 0x1A09 JUMP JUMPDEST SWAP2 POP PUSH2 0x15BF DUP3 PUSH2 0x1C37 JUMP JUMPDEST PUSH1 0x40 DUP3 ADD SWAP1 POP SWAP2 SWAP1 POP JUMP JUMPDEST PUSH1 0x0 PUSH2 0x15D7 PUSH1 0x3A DUP4 PUSH2 0x1A09 JUMP JUMPDEST SWAP2 POP PUSH2 0x15E2 DUP3 PUSH2 0x1C86 JUMP JUMPDEST PUSH1 0x40 DUP3 ADD SWAP1 POP SWAP2 SWAP1 POP JUMP JUMPDEST PUSH1 0x0 PUSH2 0x15FA PUSH1 0x2A DUP4 PUSH2 0x1A09 JUMP JUMPDEST SWAP2 POP PUSH2 0x1605 DUP3 PUSH2 0x1CD5 JUMP JUMPDEST PUSH1 0x40 DUP3 ADD SWAP1 POP SWAP2 SWAP1 POP JUMP JUMPDEST PUSH1 0x0 PUSH2 0x161D PUSH1 0x21 DUP4 PUSH2 0x1A09 JUMP JUMPDEST SWAP2 POP PUSH2 0x1628 DUP3 PUSH2 0x1D24 JUMP JUMPDEST PUSH1 0x40 DUP3 ADD SWAP1 POP SWAP2 SWAP1 POP JUMP JUMPDEST PUSH1 0x0 PUSH2 0x1640 PUSH1 0x44 DUP4 PUSH2 0x1A09 JUMP JUMPDEST SWAP2 POP PUSH2 0x164B DUP3 PUSH2 0x1D73 JUMP JUMPDEST PUSH1 0x60 DUP3 ADD SWAP1 POP SWAP2 SWAP1 POP JUMP JUMPDEST PUSH1 0x0 PUSH2 0x1663 PUSH1 0x3E DUP4 PUSH2 0x1A09 JUMP JUMPDEST SWAP2 POP PUSH2 0x166E DUP3 PUSH2 0x1DE8 JUMP JUMPDEST PUSH1 0x40 DUP3 ADD SWAP1 POP SWAP2 SWAP1 POP JUMP JUMPDEST PUSH1 0x0 PUSH2 0x1686 PUSH1 0x30 DUP4 PUSH2 0x1A09 JUMP JUMPDEST SWAP2 POP PUSH2 0x1691 DUP3 PUSH2 0x1E37 JUMP JUMPDEST PUSH1 0x40 DUP3 ADD SWAP1 POP SWAP2 SWAP1 POP JUMP JUMPDEST PUSH1 0x0 PUSH2 0x16A9 PUSH1 0x1B DUP4 PUSH2 0x1A09 JUMP JUMPDEST SWAP2 POP PUSH2 0x16B4 DUP3 PUSH2 0x1E86 JUMP JUMPDEST PUSH1 0x20 DUP3 ADD SWAP1 POP SWAP2 SWAP1 POP JUMP JUMPDEST PUSH1 0x0 PUSH2 0x16CC PUSH1 0x3D DUP4 PUSH2 0x1A09 JUMP JUMPDEST SWAP2 POP PUSH2 0x16D7 DUP3 PUSH2 0x1EAF JUMP JUMPDEST PUSH1 0x40 DUP3 ADD SWAP1 POP SWAP2 SWAP1 POP JUMP JUMPDEST PUSH1 0x0 PUSH2 0x16EF PUSH1 0x0 DUP4 PUSH2 0x1A09 JUMP JUMPDEST SWAP2 POP PUSH2 0x16FA DUP3 PUSH2 0x1EFE JUMP JUMPDEST PUSH1 0x0 DUP3 ADD SWAP1 POP SWAP2 SWAP1 POP JUMP JUMPDEST PUSH1 0x0 PUSH2 0x1712 PUSH1 0x21 DUP4 PUSH2 0x1A09 JUMP JUMPDEST SWAP2 POP PUSH2 0x171D DUP3 PUSH2 0x1F01 JUMP JUMPDEST PUSH1 0x40 DUP3 ADD SWAP1 POP SWAP2 SWAP1 POP JUMP JUMPDEST PUSH1 0x0 PUSH2 0x1735 PUSH1 0x20 DUP4 PUSH2 0x1A09 JUMP JUMPDEST SWAP2 POP PUSH2 0x1740 DUP3 PUSH2 0x1F50 JUMP JUMPDEST PUSH1 0x20 DUP3 ADD SWAP1 POP SWAP2 SWAP1 POP JUMP JUMPDEST PUSH2 0x1754 DUP2 PUSH2 0x1B0E JUMP JUMPDEST DUP3 MSTORE POP POP JUMP JUMPDEST PUSH1 0x0 PUSH1 0x20 DUP3 ADD SWAP1 POP PUSH2 0x176F PUSH1 0x0 DUP4 ADD DUP5 PUSH2 0x152D JUMP JUMPDEST SWAP3 SWAP2 POP POP JUMP JUMPDEST PUSH1 0x0 PUSH1 0x80 DUP3 ADD SWAP1 POP PUSH2 0x178A PUSH1 0x0 DUP4 ADD DUP8 PUSH2 0x152D JUMP JUMPDEST PUSH2 0x1797 PUSH1 0x20 DUP4 ADD DUP7 PUSH2 0x152D JUMP JUMPDEST PUSH2 0x17A4 PUSH1 0x40 DUP4 ADD DUP6 PUSH2 0x174B JUMP JUMPDEST DUP2 DUP2 SUB PUSH1 0x60 DUP4 ADD MSTORE PUSH2 0x17B6 DUP2 DUP5 PUSH2 0x154B JUMP JUMPDEST SWAP1 POP SWAP6 SWAP5 POP POP POP POP POP JUMP JUMPDEST PUSH1 0x0 PUSH1 0x20 DUP3 ADD SWAP1 POP PUSH2 0x17D6 PUSH1 0x0 DUP4 ADD DUP5 PUSH2 0x153C JUMP JUMPDEST SWAP3 SWAP2 POP POP JUMP JUMPDEST PUSH1 0x0 PUSH1 0x20 DUP3 ADD SWAP1 POP DUP2 DUP2 SUB PUSH1 0x0 DUP4 ADD MSTORE PUSH2 0x17F5 DUP2 PUSH2 0x1584 JUMP JUMPDEST SWAP1 POP SWAP2 SWAP1 POP JUMP JUMPDEST PUSH1 0x0 PUSH1 0x20 DUP3 ADD SWAP1 POP DUP2 DUP2 SUB PUSH1 0x0 DUP4 ADD MSTORE PUSH2 0x1815 DUP2 PUSH2 0x15A7 JUMP JUMPDEST SWAP1 POP SWAP2 SWAP1 POP JUMP JUMPDEST PUSH1 0x0 PUSH1 0x20 DUP3 ADD SWAP1 POP DUP2 DUP2 SUB PUSH1 0x0 DUP4 ADD MSTORE PUSH2 0x1835 DUP2 PUSH2 0x15CA JUMP JUMPDEST SWAP1 POP SWAP2 SWAP1 POP JUMP JUMPDEST PUSH1 0x0 PUSH1 0x20 DUP3 ADD SWAP1 POP DUP2 DUP2 SUB PUSH1 0x0 DUP4 ADD MSTORE PUSH2 0x1855 DUP2 PUSH2 0x15ED JUMP JUMPDEST SWAP1 POP SWAP2 SWAP1 POP JUMP JUMPDEST PUSH1 0x0 PUSH1 0x20 DUP3 ADD SWAP1 POP DUP2 DUP2 SUB PUSH1 0x0 DUP4 ADD MSTORE PUSH2 0x1875 DUP2 PUSH2 0x1610 JUMP JUMPDEST SWAP1 POP SWAP2 SWAP1 POP JUMP JUMPDEST PUSH1 0x0 PUSH1 0x20 DUP3 ADD SWAP1 POP DUP2 DUP2 SUB PUSH1 0x0 DUP4 ADD MSTORE PUSH2 0x1895 DUP2 PUSH2 0x1633 JUMP JUMPDEST SWAP1 POP SWAP2 SWAP1 POP JUMP JUMPDEST PUSH1 0x0 PUSH1 0x20 DUP3 ADD SWAP1 POP DUP2 DUP2 SUB PUSH1 0x0 DUP4 ADD MSTORE PUSH2 0x18B5 DUP2 PUSH2 0x1656 JUMP JUMPDEST SWAP1 POP SWAP2 SWAP1 POP JUMP JUMPDEST PUSH1 0x0 PUSH1 0x20 DUP3 ADD SWAP1 POP DUP2 DUP2 SUB PUSH1 0x0 DUP4 ADD MSTORE PUSH2 0x18D5 DUP2 PUSH2 0x1679 JUMP JUMPDEST SWAP1 POP SWAP2 SWAP1 POP JUMP JUMPDEST PUSH1 0x0 PUSH1 0x20 DUP3 ADD SWAP1 POP DUP2 DUP2 SUB PUSH1 0x0 DUP4 ADD MSTORE PUSH2 0x18F5 DUP2 PUSH2 0x169C JUMP JUMPDEST SWAP1 POP SWAP2 SWAP1 POP JUMP JUMPDEST PUSH1 0x0 PUSH1 0x20 DUP3 ADD SWAP1 POP DUP2 DUP2 SUB PUSH1 0x0 DUP4 ADD MSTORE PUSH2 0x1915 DUP2 PUSH2 0x16BF JUMP JUMPDEST SWAP1 POP SWAP2 SWAP1 POP JUMP JUMPDEST PUSH1 0x0 PUSH1 0x20 DUP3 ADD SWAP1 POP DUP2 DUP2 SUB PUSH1 0x0 DUP4 ADD MSTORE PUSH2 0x1935 DUP2 PUSH2 0x16E2 JUMP JUMPDEST SWAP1 POP SWAP2 SWAP1 POP JUMP JUMPDEST PUSH1 0x0 PUSH1 0x20 DUP3 ADD SWAP1 POP DUP2 DUP2 SUB PUSH1 0x0 DUP4 ADD MSTORE PUSH2 0x1955 DUP2 PUSH2 0x1705 JUMP JUMPDEST SWAP1 POP SWAP2 SWAP1 POP JUMP JUMPDEST PUSH1 0x0 PUSH1 0x20 DUP3 ADD SWAP1 POP DUP2 DUP2 SUB PUSH1 0x0 DUP4 ADD MSTORE PUSH2 0x1975 DUP2 PUSH2 0x1728 JUMP JUMPDEST SWAP1 POP SWAP2 SWAP1 POP JUMP JUMPDEST PUSH1 0x0 PUSH1 0x20 DUP3 ADD SWAP1 POP PUSH2 0x1991 PUSH1 0x0 DUP4 ADD DUP5 PUSH2 0x174B JUMP JUMPDEST SWAP3 SWAP2 POP POP JUMP JUMPDEST PUSH1 0x0 PUSH2 0x19A1 PUSH2 0x19B2 JUMP JUMPDEST SWAP1 POP PUSH2 0x19AD DUP3 DUP3 PUSH2 0x1B5A JUMP JUMPDEST SWAP2 SWAP1 POP JUMP JUMPDEST PUSH1 0x0 PUSH1 0x40 MLOAD SWAP1 POP SWAP1 JUMP JUMPDEST PUSH1 0x0 PUSH8 0xFFFFFFFFFFFFFFFF DUP3 GT ISZERO PUSH2 0x19D7 JUMPI PUSH2 0x19D6 PUSH2 0x1BBA JUMP JUMPDEST JUMPDEST PUSH2 0x19E0 DUP3 PUSH2 0x1BFD JUMP JUMPDEST SWAP1 POP PUSH1 0x20 DUP2 ADD SWAP1 POP SWAP2 SWAP1 POP JUMP JUMPDEST PUSH1 0x0 DUP2 MLOAD SWAP1 POP SWAP2 SWAP1 POP JUMP JUMPDEST PUSH1 0x0 DUP3 DUP3 MSTORE PUSH1 0x20 DUP3 ADD SWAP1 POP SWAP3 SWAP2 POP POP JUMP JUMPDEST PUSH1 0x0 DUP3 DUP3 MSTORE PUSH1 0x20 DUP3 ADD SWAP1 POP SWAP3 SWAP2 POP POP JUMP JUMPDEST PUSH1 0x0 PUSH2 0x1A25 DUP3 PUSH2 0x1B0E JUMP JUMPDEST SWAP2 POP PUSH2 0x1A30 DUP4 PUSH2 0x1B0E JUMP JUMPDEST SWAP3 POP DUP3 PUSH32 0xFFFFFFFFFFFFFFFFFFFFFFFFFFFFFFFFFFFFFFFFFFFFFFFFFFFFFFFFFFFFFFFF SUB DUP3 GT ISZERO PUSH2 0x1A65 JUMPI PUSH2 0x1A64 PUSH2 0x1B8B JUMP JUMPDEST JUMPDEST DUP3 DUP3 ADD SWAP1 POP SWAP3 SWAP2 POP POP JUMP JUMPDEST PUSH1 0x0 PUSH2 0x1A7B DUP3 PUSH2 0x1B0E JUMP JUMPDEST SWAP2 POP PUSH2 0x1A86 DUP4 PUSH2 0x1B0E JUMP JUMPDEST SWAP3 POP DUP3 DUP3 LT ISZERO PUSH2 0x1A99 JUMPI PUSH2 0x1A98 PUSH2 0x1B8B JUMP JUMPDEST JUMPDEST DUP3 DUP3 SUB SWAP1 POP SWAP3 SWAP2 POP POP JUMP JUMPDEST PUSH1 0x0 PUSH2 0x1AAF DUP3 PUSH2 0x1AEE JUMP JUMPDEST SWAP1 POP SWAP2 SWAP1 POP JUMP JUMPDEST PUSH1 0x0 DUP2 ISZERO ISZERO SWAP1 POP SWAP2 SWAP1 POP JUMP JUMPDEST PUSH1 0x0 PUSH32 0xFFFFFFFF00000000000000000000000000000000000000000000000000000000 DUP3 AND SWAP1 POP SWAP2 SWAP1 POP JUMP JUMPDEST PUSH1 0x0 PUSH20 0xFFFFFFFFFFFFFFFFFFFFFFFFFFFFFFFFFFFFFFFF DUP3 AND SWAP1 POP SWAP2 SWAP1 POP JUMP JUMPDEST PUSH1 0x0 DUP2 SWAP1 POP SWAP2 SWAP1 POP JUMP JUMPDEST DUP3 DUP2 DUP4 CALLDATACOPY PUSH1 0x0 DUP4 DUP4 ADD MSTORE POP POP POP JUMP JUMPDEST PUSH1 0x0 JUMPDEST DUP4 DUP2 LT ISZERO PUSH2 0x1B45 JUMPI DUP1 DUP3 ADD MLOAD DUP2 DUP5 ADD MSTORE PUSH1 0x20 DUP2 ADD SWAP1 POP PUSH2 0x1B2A JUMP JUMPDEST DUP4 DUP2 GT ISZERO PUSH2 0x1B54 JUMPI PUSH1 0x0 DUP5 DUP5 ADD MSTORE JUMPDEST POP POP POP POP JUMP JUMPDEST PUSH2 0x1B63 DUP3 PUSH2 0x1BFD JUMP JUMPDEST DUP2 ADD DUP2 DUP2 LT PUSH8 0xFFFFFFFFFFFFFFFF DUP3 GT OR ISZERO PUSH2 0x1B82 JUMPI PUSH2 0x1B81 PUSH2 0x1BBA JUMP JUMPDEST JUMPDEST DUP1 PUSH1 0x40 MSTORE POP POP POP JUMP JUMPDEST PUSH32 0x4E487B7100000000000000000000000000000000000000000000000000000000 PUSH1 0x0 MSTORE PUSH1 0x11 PUSH1 0x4 MSTORE PUSH1 0x24 PUSH1 0x0 REVERT JUMPDEST PUSH32 0x4E487B7100000000000000000000000000000000000000000000000000000000 PUSH1 0x0 MSTORE PUSH1 0x41 PUSH1 0x4 MSTORE PUSH1 0x24 PUSH1 0x0 REVERT JUMPDEST PUSH1 0x0 DUP1 REVERT JUMPDEST PUSH1 0x0 DUP1 REVERT JUMPDEST PUSH1 0x0 DUP1 REVERT JUMPDEST PUSH1 0x0 DUP1 REVERT JUMPDEST PUSH1 0x0 PUSH1 0x1F NOT PUSH1 0x1F DUP4 ADD AND SWAP1 POP SWAP2 SWAP1 POP JUMP JUMPDEST PUSH32 0x455243373231204552524F523A20456C20746F6B656E206E6F20657869737465 PUSH1 0x0 DUP3 ADD MSTORE POP JUMP JUMPDEST PUSH32 0x455243373231204552524F523A204E6F20746520707565646573206461722070 PUSH1 0x0 DUP3 ADD MSTORE PUSH32 0x65726D69736F732061207469206D69736D6F0000000000000000000000000000 PUSH1 0x20 DUP3 ADD MSTORE POP JUMP JUMPDEST PUSH32 0x455243373231204552524F523A204E6F207469656E6573207065726D69736F73 PUSH1 0x0 DUP3 ADD MSTORE PUSH32 0x20706172612067657374696F6E6172206573746520746F6B656E000000000000 PUSH1 0x20 DUP3 ADD MSTORE POP JUMP JUMPDEST PUSH32 0x455243373231204552524F523A20456C20746F6B656E20796120686120736964 PUSH1 0x0 DUP3 ADD MSTORE PUSH32 0x6F206D696E746561646F00000000000000000000000000000000000000000000 PUSH1 0x20 DUP3 ADD MSTORE POP JUMP JUMPDEST PUSH32 0x455243373231204552524F523A204E6F206578697374652065736520746F6B65 PUSH1 0x0 DUP3 ADD MSTORE PUSH32 0x6E00000000000000000000000000000000000000000000000000000000000000 PUSH1 0x20 DUP3 ADD MSTORE POP JUMP JUMPDEST PUSH32 0x455243373231204552524F523A204C6120616464726573732064652064657374 PUSH1 0x0 DUP3 ADD MSTORE PUSH32 0x696E6F206465626520736572206469666572656E74652061206C612064652065 PUSH1 0x20 DUP3 ADD MSTORE PUSH32 0x6E76696F00000000000000000000000000000000000000000000000000000000 PUSH1 0x40 DUP3 ADD MSTORE POP JUMP JUMPDEST PUSH32 0x455243373231204552524F523A205472616E73666572656E636961206E6F2069 PUSH1 0x0 DUP3 ADD MSTORE PUSH32 0x6D706C656D656E7461646120656E204945524337323152656365697665720000 PUSH1 0x20 DUP3 ADD MSTORE POP JUMP JUMPDEST PUSH32 0x455243373231204552524F523A20456C2064657374696E6F206E6F2061646D69 PUSH1 0x0 DUP3 ADD MSTORE PUSH32 0x7465206573746520657374616E64617200000000000000000000000000000000 PUSH1 0x20 DUP3 ADD MSTORE POP JUMP JUMPDEST PUSH32 0x455243373231204552524F523A20416464726573732056616369610000000000 PUSH1 0x0 DUP3 ADD MSTORE POP JUMP JUMPDEST PUSH32 0x455243373231204552524F522C207472616E73666572656E636961206E6F2069 PUSH1 0x0 DUP3 ADD MSTORE PUSH32 0x6D706C656D656E7461646120706172612065736520636F6E747261746F000000 PUSH1 0x20 DUP3 ADD MSTORE POP JUMP JUMPDEST POP JUMP JUMPDEST PUSH32 0x455243373231204552524F523A204E6F2065786973746520656C20746F6B656E PUSH1 0x0 DUP3 ADD MSTORE PUSH32 0x3B00000000000000000000000000000000000000000000000000000000000000 PUSH1 0x20 DUP3 ADD MSTORE POP JUMP JUMPDEST PUSH32 0x455243373231204552524F523A204E6F2065786973746520656C20746F6B656E PUSH1 0x0 DUP3 ADD MSTORE POP JUMP JUMPDEST PUSH2 0x1F82 DUP2 PUSH2 0x1AA4 JUMP JUMPDEST DUP2 EQ PUSH2 0x1F8D JUMPI PUSH1 0x0 DUP1 REVERT JUMPDEST POP JUMP JUMPDEST PUSH2 0x1F99 DUP2 PUSH2 0x1AB6 JUMP JUMPDEST DUP2 EQ PUSH2 0x1FA4 JUMPI PUSH1 0x0 DUP1 REVERT JUMPDEST POP JUMP JUMPDEST PUSH2 0x1FB0 DUP2 PUSH2 0x1AC2 JUMP JUMPDEST DUP2 EQ PUSH2 0x1FBB JUMPI PUSH1 0x0 DUP1 REVERT JUMPDEST POP JUMP JUMPDEST PUSH2 0x1FC7 DUP2 PUSH2 0x1B0E JUMP JUMPDEST DUP2 EQ PUSH2 0x1FD2 JUMPI PUSH1 0x0 DUP1 REVERT JUMPDEST POP JUMP INVALID LOG2 PUSH5 0x6970667358 0x22 SLT KECCAK256 0xCB PUSH5 0xAE2CDA89B8 GASLIMIT 0xC9 0x5D 0xF8 CALLDATALOAD 0xF7 EXTCODECOPY 0x28 PUSH28 0x845C937B9115278CA3EC3BA4132803A564736F6C6343000807003300 "
				},
				"gasEstimates": {
					"creation": {
						"codeDepositCost": "1640600",
						"executionCost": "1722",
						"totalCost": "1642322"
					},
					"external": {
						"_safeMint(address,uint256)": "infinite",
						"_safeMint(address,uint256,bytes)": "infinite",
						"approve(address,uint256)": "infinite",
						"balanceOf(address)": "2901",
						"getApproved(uint256)": "5183",
						"isApprovedForAll(address,address)": "infinite",
						"ownerOf(uint256)": "3088",
						"safeTransferFrom(address,address,uint256)": "infinite",
						"safeTransferFrom(address,address,uint256,bytes)": "infinite",
						"setApprovalForAll(address,bool)": "infinite",
						"supportsInterface(bytes4)": "728",
						"transferFrom(address,address,uint256)": "infinite"
					},
					"internal": {
						"_approve(address,uint256)": "infinite",
						"_beforeTokenTransfer(address,address,uint256)": "15",
						"_chekOnERC721Received(address,address,uint256,bytes memory)": "infinite",
						"_exists(uint256)": "2269",
						"_isApprovedOrOwner(address,uint256)": "infinite",
						"_mint(address,uint256)": "infinite",
						"_safeTransfer(address,address,uint256,bytes memory)": "infinite",
						"_transfer(address,address,uint256)": "infinite",
						"isContract(address)": "2653"
					}
				},
				"methodIdentifiers": {
					"_safeMint(address,uint256)": "b3e1c718",
					"_safeMint(address,uint256,bytes)": "6a4f832b",
					"approve(address,uint256)": "095ea7b3",
					"balanceOf(address)": "70a08231",
					"getApproved(uint256)": "081812fc",
					"isApprovedForAll(address,address)": "e985e9c5",
					"ownerOf(uint256)": "6352211e",
					"safeTransferFrom(address,address,uint256)": "42842e0e",
					"safeTransferFrom(address,address,uint256,bytes)": "b88d4fde",
					"setApprovalForAll(address,bool)": "a22cb465",
					"supportsInterface(bytes4)": "01ffc9a7",
					"transferFrom(address,address,uint256)": "23b872dd"
				}
			},
			"storageLayout": {
				"storage": [
					{
						"astId": 163,
						"contract": "TOKEN721.sol:TOKEN721",
						"label": "_owners",
						"offset": 0,
						"slot": "0",
						"type": "t_mapping(t_uint256,t_address)"
					},
					{
						"astId": 167,
						"contract": "TOKEN721.sol:TOKEN721",
						"label": "_balance",
						"offset": 0,
						"slot": "1",
						"type": "t_mapping(t_address,t_uint256)"
					},
					{
						"astId": 171,
						"contract": "TOKEN721.sol:TOKEN721",
						"label": "_tokenApprovals",
						"offset": 0,
						"slot": "2",
						"type": "t_mapping(t_uint256,t_address)"
					},
					{
						"astId": 177,
						"contract": "TOKEN721.sol:TOKEN721",
						"label": "_operatorApprovals",
						"offset": 0,
						"slot": "3",
						"type": "t_mapping(t_address,t_mapping(t_address,t_bool))"
					}
				],
				"types": {
					"t_address": {
						"encoding": "inplace",
						"label": "address",
						"numberOfBytes": "20"
					},
					"t_bool": {
						"encoding": "inplace",
						"label": "bool",
						"numberOfBytes": "1"
					},
					"t_mapping(t_address,t_bool)": {
						"encoding": "mapping",
						"key": "t_address",
						"label": "mapping(address => bool)",
						"numberOfBytes": "32",
						"value": "t_bool"
					},
					"t_mapping(t_address,t_mapping(t_address,t_bool))": {
						"encoding": "mapping",
						"key": "t_address",
						"label": "mapping(address => mapping(address => bool))",
						"numberOfBytes": "32",
						"value": "t_mapping(t_address,t_bool)"
					},
					"t_mapping(t_address,t_uint256)": {
						"encoding": "mapping",
						"key": "t_address",
						"label": "mapping(address => uint256)",
						"numberOfBytes": "32",
						"value": "t_uint256"
					},
					"t_mapping(t_uint256,t_address)": {
						"encoding": "mapping",
						"key": "t_uint256",
						"label": "mapping(uint256 => address)",
						"numberOfBytes": "32",
						"value": "t_address"
					},
					"t_uint256": {
						"encoding": "inplace",
						"label": "uint256",
						"numberOfBytes": "32"
					}
				}
			},
			"userdoc": {
				"kind": "user",
				"methods": {},
				"version": 1
			}
		}
	}
}